:020000040007F3
:10800000104D00206982070071820700738207000B
:108010007582070077820700798207000000000060
:108020000000000000000000000000005582070072
:108030007D820700000000007F8207008182070028
:10804000419607008382070083820700838207002E
:1080500083820700838207008382070083820700F0
:1080600083820700838207008382070083820700E0
:1080700083820700838207008382070083820700D0
:108080008382070099960700838207008382070096
:10809000BD96070083820700C19607008382070010
:1080A00083820700838207008382070083820700A0
:1080B00083820700838207000000000000000000A8
:1080C0008382070083820700838207008382070080
:1080D000838207008382070083820700000000007C
:1080E0000000000000000000000000000000000090
:1080F0000000000000000000000000000000000080
:10810000000000000000000000000000000000006F
:10811000000000000000000000000000000000005F
:10812000000000000000000000000000000000004F
:10813000000000000000000000000000000000003F
:10814000000000000000000000000000000000002F
:10815000000000000000000000000000000000001F
:10816000000000000000000000000000000000000F
:1081700000000000000000000000000000000000FF
:1081800000000000000000000000000000000000EF
:1081900000000000000000000000000000000000DF
:1081A00000000000000000000000000000000000CF
:1081B00000000000000000000000000000000000BF
:1081C00000000000000000000000000000000000AF
:1081D000000000000000000000000000000000009F
:1081E000000000000000000000000000000000008F
:1081F000000000000000000000000000000000007F
:10820000DFF80CD000F082F8004800479DAA070074
:10821000104D0020056885F308884068FF2464B28B
:10822000EFF30585002D07D1EFF31481022291436E
:1082300081F31488A64600472546064621273FBA03
:10824000F0B40024002500260027F0B4F92040B245
:10825000004700001EF0040F0CBFEFF30880EFF39F
:10826000098003F04BBF00000648804706480047DE
:10827000FEE7FEE7FEE7FEE7FEE7FEE7FEE7FEE7D6
:10828000FEE7FEE7E196070001820700202A04DBF3
:10829000203A00FA02F1002070479140C2F1200319
:1082A00020FA03F319439040704740EA01039B070B
:1082B00003D009E008C9121F08C0042AFAD203E05B
:1082C00011F8013B00F8013B521EF9D27047D2B2BF
:1082D00001E000F8012B491EFBD270470022F6E7AF
:1082E00010B513460A4604461946FFF7F0FF20462C
:1082F00010BD30B504460020034600E05B1C9342ED
:1083000003D2E05CCD5C401BF8D030BD064C074D7D
:1083100006E0E06840F0010394E807009847103455
:10832000AC42F6D3FFF770FF50DA070070DA0700AF
:108330002DE9F0438BB08046129D15F9046B009631
:1083400014461F4689462B4602A81146424600F0B5
:10835000B8FC02A80146129A00F0A3FC4046414630
:1083600002AA129B00F08DFC2046214602AA129B15
:1083700000F087FC2B46384639464A46009600F006
:10838000A0FC02A83946129A00F08BFC02A8014614
:1083900042462B46009600F094FC02A80146224675
:1083A0002B46009600F08DFC2046214642462B4687
:1083B000009600F086FC484649462246129B00F093
:1083C00060FC2046414602AA2B46009600F079FC4C
:1083D000384639462246129B00F053FC384639464F
:1083E0004A462B46009600F06CFC204602A9324615
:1083F00000F031FE0BB0BDE8F083F0B589B01C464B
:1084000007460E461546684611461A4600F049FCD6
:10841000384639466A46234600F033FC68466946CA
:108420002A46234600F02DFC304631466A46234654
:1084300000F027FC09B0F0BD1AB1013A8B5C8354FF
:10844000FAE770472DE9F0478846B3F902101F4656
:108450000825CB1D202493FBF5F51F31954291FB98
:10846000F4F44FFA84F928BF15460646494600F051
:1084700073FA2A4630464146FFF7DEFFB7F902306D
:10848000ED009D4220D9ED1A06EB840100228E42B8
:108490000AD251F8040D20FA05F313430B60C5F11D
:1084A000200300FA03F2F2E72437384631464A4601
:1084B00000F05EFA012807D0304631463A464B4676
:1084C000BDE8F04700F01CBFBDE8F0872DE9F0479C
:1084D00093F9006092B0044689461046314615462D
:1084E000984600F06FFA002840F0978002A84946AD
:1084F000424600F0D6FB43460AA8214602AA00F0F5
:10850000C0FB02A80146424600F0CBFB434648466A
:1085100049462A4600F0B5FB08F1040728462946DB
:10852000424600F0BEFB204621462A463B460096C6
:1085300000F0F6FA284629462A463B46009600F007
:10854000EFFA284621462A463B46009600F0B9FB42
:10855000204621462A46434600F093FB2846214602
:1085600022463B46009600F0DBFA20463B4600964A
:1085700021462A4600F0D4FA2368DB07204613D5AB
:10858000334621463A4600F0BBF931468246204642
:1085900000F054FD06F18043013B54F8230040EA0B
:1085A000CA7044F8230002E0314600F047FD284637
:1085B0002146424600F075FB284629460AAA3B465A
:1085C000009600F07EFB284629460AAA3B46009604
:1085D00000F077FB0AA801462A463B46009600F0C9
:1085E00070FB204621460AAA434600F04AFB02A837
:1085F00002463B462146009600F063FB2046294692
:10860000324600F028FD28464946324600F023FD58
:10861000484602A9324600F01EFD12B0BDE8F087C0
:1086200000487047A0D907002DE9F04FEFB01E4673
:10863000789C059023780493B4F9023092461F3356
:10864000202293FBF2F3DBB206939DF9187094F9A4
:10865000012007F1FF3926AB002543F829506EAB06
:1086600003EB89034EA88B46314643F8805C43F800
:10867000605CFFF7E1FE94F9012056A8B118FFF7FE
:10868000DBFE9DF910604EA8314600F09BF9804654
:10869000002840F02F8156A8314600F093F9054696
:1086A000002840F0258104F1240840464EA93A46AE
:1086B00000F05EF9012840F01D81404656A93A4677
:1086C00000F056F90128089040F014813B461EA89E
:1086D00056A9424600F03DFA0DF1380C6046594665
:1086E000524623464CF82950CDF80CC0FFF7AAFE9D
:1086F000DDF80CC00097604661461EAA4346CDF8DF
:1087000024C00DF5BC7900F0AAFA4346009716A8DC
:108710004EA91EAA00F0A3FA48463246059900F079
:108720009AFCB300039309EB030B039A059B58468D
:108730009918324600F08FFC04F144031946324682
:1087400036A8079300F087FC04EB860132463EA86A
:10875000443104F1040A00F07EFC494600961EA84C
:1087600036AA534600F0ADFA4A465B4636A83EA903
:108770000094FFF7DDFD1EA801463346524600F087
:10878000E8F91EAA484659462346FFF736FEDDF8AB
:1087900024C0079B0B936046059B0C933946CDF88C
:1087A00014C00A95CDF8349000F026FC39460546F1
:1087B00016A800F021FCA842B8BF284685B2DDF813
:1087C00014C06F1E3FB26046394600F0C9FD3946FD
:1087D00010F1000916A818BF4FF0010900F0C0FD04
:1087E000002814BF0223002343EA09090DF1280BD6
:1087F00032465BF8297026A8394600F02CFC039B12
:108800003246F9182EA800F026FC31461EA800F0CA
:10881000A3F8023D089B1E93AEB237B2002F44DB93
:1088200023461EAAD4F8A45026A82EA9A847394644
:108830000EA800F095FD3946051C16A818BF0125A5
:1088400000F08EFD002814BF022300231D430AAB55
:1088500053F8257037B39DF9105036A839462A468B
:1088600000F0F9FB039B3EA8F9182A4600F0F3FB41
:1088700036A83EA91EAA2346FFF7BFFD46A826A993
:1088800036AA5346009500F01CFA36A83EA926AA3F
:108890002EAB0094FFF74CFD1EA8014646AA2346C6
:1088A00000F0EFF9013EB6B2B7E79DF910501EA8EF
:1088B000014652462B4600F04CF9234626A82EA925
:1088C0001EAAFFF79AFD9DF91840404626A92246A8
:1088D00000F04EF8012805D026A80146424623465E
:1088E00000F00EFD26A84EA92A4600F056F802E038
:1088F000404600E028466FB0BDE8F08F0000000061
:10890000C3F10803DB0070B501330446002003A562
:108910005B1920C940CAAD1920C4184720C940CAF4
:10892000754120C420C940CA754120C420C940CA2D
:10893000754120C420C940CA754120C420C940CA1D
:10894000754120C420C940CA754120C420C940CA0D
:10895000754120C4404170BD10B5002253B28B4216
:1089600005DA1BB2002440F823400132F6E710BDBF
:1089700010B5013AD2B253B2002B09DB1BB250F84A
:10898000234051F823309C4204D8F2D2FF2002E069
:10899000002000E0012040B210BD013A30B5D2B253
:1089A000002453B2002B09DB1BB2013A51F82350CB
:1089B00050F823306B401C43D2B2F2E7B4FA84F093
:1089C000400930BD10B500231A465CB28C4204DA6F
:1089D00050F8244001332243F7E7B2FA82F040090D
:1089E00010BD00002DE9F043A3B09846019112ABF1
:1089F0004146074610469146009300F0FDFAC0EB51
:108A0000881086B2454C33B21C40002CBEBF04F126
:108A1000FF3464F01F040134202593FBF5F5EDB21B
:108A20006DB2A4B202A8294624B2FFF795FF28B27E
:108A300002AB002C03EB800010DD002213464345FF
:108A400010D259F8235005FA04F10A4340F82320C4
:108A5000C4F1200225FA02F20133F0E7494642460A
:108A600000F0F9FA0FFA88F502AB4FEA4509012444
:108A700003EB8505330444D40022114653B24B4521
:108A800022DA0DF1880E0EEB840E0DF1880C18B26F
:108A90005EF888EC0CEB83035EF820E053F8803C32
:108AA000C3EB0E035B1A734502D08CBF012100217A
:108AB000C4F1010E0DF1880C0CEB8E0E01325EF844
:108AC00088EC4EF82030D9E7621A544202A8414699
:108AD000544100F0B3FA22AA08F1FF3302EB8303FA
:108AE00002EB8802284652F8801C53F8802C013E85
:108AF00042EAC172414643F8802CB6B200F09EFAB9
:108B0000B8E722AB03EB8404384654F8881C42468D
:108B100000F0A1FA23B0BDE8F08300BF1F00008081
:108B200070B59DF910401D4623460646FFF7E8FE46
:108B300030B9284631462246FFF71AFF012807D0F0
:108B4000304631462A462346BDE8704000F0D8BB87
:108B500070BDF0B50646A1B00F4608461946154649
:108B60001C46FFF72FFF20B130462146FFF7F4FEE9
:108B700073E068463946224600F06DFA08A8294697
:108B8000224600F068FA10A82146FFF7E5FE01230F
:108B900018A821461093FFF7DFFE684608A9224671
:108BA000FFF7E6FE002853D0009BDA0704D468469E
:108BB000214600F043FA26E0089BDB0704D408A80E
:108BC000214600F03BFA3DE000281EDD08AA2346BE
:108BD0006946684600F094FB6846214600F02EFA8C
:108BE00010A818A92246FFF7C3FE002805DA10A82E
:108BF00001462A462346FFF783FE10A8014618AA1D
:108C0000234600F07DFB10A81DE008A86A46234615
:108C1000014600F075FB08A8214600F00FFA18A8DD
:108C200010A92246FFF7A4FE002805DA18A801467D
:108C30002A462346FFF764FE18A8014610AA2346D9
:108C400000F05EFB18A82946224600F06BFCA4E762
:108C5000304610A9224600F0FEF921B0F0BD70B5F3
:108C600090B006469DF950401D466846234600F0E8
:108C70003AF8304669462A462346FFF7B3FE10B05D
:108C800070BD30B51C4691B0054693F9003068467A
:108C900000F029F8D4F8AC3028466946984711B05E
:108CA00030BD30B5144691B0054692F900206846B3
:108CB00000F0DEF9D4F8AC3028466946984711B088
:108CC00030BD70B59DF910401D462346064600F0A4
:108CD00017FB38B1304631462A462346BDE870407E
:108CE000FFF70EBE70BD2DE9F04F08B4F8CA04B40A
:108CF00051F8042BA3FB028940F8048B4FF0000AC3
:108D0000E4FB629A4FF0000BE5FB62AB4FF0000C06
:108D1000E6FB62BC4FF0000EE7FB62CE51F8042B7D
:108D20004FF00008E3FB628940F8048BE4FB629A91
:108D3000E5FB62ABE6FB62BCE7FB62CE51F8042BBD
:108D40004FF00008E3FB628940F8048BE4FB629A71
:108D5000E5FB62ABE6FB62BCE7FB62CE51F8042B9D
:108D60004FF00008E3FB628940F8048BE4FB629A51
:108D7000E5FB62ABE6FB62BCE7FB62CE51F8042B7D
:108D80004FF00008E3FB628940F8048BE4FB629A31
:108D9000E5FB62ABE6FB62BCE7FB62CE40F8049BFE
:108DA00040F804AB40F804BB40F804CB40F804EBB7
:108DB0000CBC052B00F01E810C68A0F11400A1F181
:108DC0001401A2F1140252F804EB4FF0000550F820
:108DD000046BE4FB6E5652F804EB50F8047BE4FBA2
:108DE0006E6752F804EB50F8048BE4FB6E7852F88F
:108DF00004EB50F8049BE4FB6E8952F804EB50F846
:108E000004ABE4FB6E9AA0F1140052F8044B51F845
:108E100004EB4FF0000CE4FB6EC540F804CB51F8B6
:108E200004EBE4FB6E5640F8045B51F804EBE4FB02
:108E30006E6740F8046B51F804EBE4FB6E7840F881
:108E4000047B51F804EBE4FB6E8940F8048B51F885
:108E500004EBE4FB6E9AA0E80006062B00F0CA8043
:108E60000C68A0F11800A1F11801A2F1180252F843
:108E700004EB4FF0000550F8046BE4FB6E5652F81B
:108E800004EB50F8047BE4FB6E6752F804EB50F8F7
:108E9000048BE4FB6E7852F804EB50F8049BE4FB7F
:108EA0006E8952F804EB50F804ABE4FB6E9A52F86A
:108EB00004EB50F804BBE4FB6EABA0F1180052F8D1
:108EC000044B51F804EB4FF0000CE4FB6EC540F886
:108ED00004CB51F804EBE4FB6E5640F8045B51F808
:108EE00004EBE4FB6E6740F8046B51F804EBE4FB21
:108EF0006E7840F8047B51F804EBE4FB6E8940F88F
:108F0000048B51F804EBE4FB6E9A40F8049B51F893
:108F100004EBE4FB6EABA0E8000C072B6AD008B4AE
:108F20000C68A0F11C00A1F11C01A2F11C0252F876
:108F300004EB4FF0000550F8046BE4FB6E5652F85A
:108F400004EB50F8047BE4FB6E6752F804EB50F836
:108F5000048BE4FB6E7852F804EB50F8049BE4FBBE
:108F60006E8952F804EB50F804ABE4FB6E9A52F8A9
:108F700004EB50F804BBE4FB6EAB52F804EB50F882
:108F800004CBE4FB6EBCA0F11C0052F8044B51F87A
:108F900004EB4FF00003E4FB6E3540F8043B51F85E
:108FA00004EBE4FB6E5640F8045B51F804EBE4FB81
:108FB0006E6740F8046B51F804EBE4FB6E7840F800
:108FC000047B51F804EBE4FB6E8940F8048B51F804
:108FD00004EBE4FB6E9A40F8049B51F804EBE4FBCD
:108FE0006EAB40F804AB51F804EBE4FB6EBCA0E8B8
:108FF000001808BCBDE8F08F0139C9B24BB2002B94
:109000000BDA013111F0FF0315D059B201F18043A1
:10901000013B50F82320002304E050F82330002BBC
:10902000EAD0EEE712B152080133FBE7481E03EB2A
:10903000401080B200E0184600B2704700EB81019A
:109040000023884206D251F8042D43EA52030B60F4
:10905000D307F6E7704730B5002463B2934206DACF
:109060001BB2013451F8235040F82350F5E730BDCE
:109070002DE9F04FB1E8005E06B4AAFB09124FF0EB
:109080000003EBFB69234FF00004ECFB69344FF065
:109090000005EEFB69454FF00006EBFB6A63ECFB55
:1090A0006A344918524176415B41A9FB09784FF077
:1090B000000949F1000918EB0108A0E88001AAFBAA
:1090C0000A78574158EB0608A0E88001EEFB6A4594
:1090D0004FF0000A4AF1000A4FF00001ECFB6B145C
:1090E000EEFB6B454FF00002EEFB6C255FEA590981
:1090F0004941644152416D4149F10009EBFB6B3A32
:109100001AEB010AA0E80804ACFB0C6A66415AEBB2
:10911000020AA0E84004AEFB0E6A6E415AEB090A4F
:10912000A0E8400406BC052A00F0E680A0F1140087
:10913000A1F11401B1E8E043A5FB0E344FF00005A6
:10914000E6FB6E454FF00006E7FB6E564FF000075A
:10915000E8FB6E674FF00008E9FB6E784FF00009FE
:10916000DB1864416D4176417F4158EB080859F1A5
:10917000000950F804CB13EB0C0350F804CB54EB6C
:109180000C0450F804CB55EB0C0550F804CB56EB0F
:109190000C0650F804CB57EB0C0758F1000859F1B6
:1091A0000009A0F11400EEFB0E89A0E8F803062ADE
:1091B00000F0A280A0F11800A1F11801B1E8E04789
:1091C000A5FB0E344FF00005E6FB6E454FF00006A0
:1091D000E7FB6E564FF00007E8FB6E674FF00008A4
:1091E000E9FB6E784FF00009EAFB6E894FF0000A48
:1091F000DB1864416D4176417F4158EB080859EB1B
:1092000009095AF1000A50F804CB13EB0C0350F88B
:1092100004CB54EB0C0450F804CB55EB0C0550F880
:1092200004CB56EB0C0650F804CB57EB0C0750F868
:1092300004CB58EB0C0859F100095AF1000AA0F1CF
:109240001800EEFB0E9AA0E8F807072A54D0A0F108
:109250001C00A1F11C01B1E8E04FA5FB0E344FF05A
:109260000005E6FB6E454FF00006E7FB6E564FF03B
:109270000007E8FB6E674FF00008E9FB6E784FF0DF
:109280000009EAFB6E894FF0000AEBFB6E9A4FF083
:10929000000BDB1864416D4176417F4158EB0808B3
:1092A00059EB09095AEB0A0A5BF1000B50F804CBA1
:1092B00013EB0C0350F804CB54EB0C0450F804CB24
:1092C00055EB0C0550F804CB56EB0C0650F804CBCC
:1092D00057EB0C0750F804CB58EB0C0850F804CBB4
:1092E00059EB0C095AF1000A5BF1000BA0F11C00CC
:1092F000EEFB0EABA0E8F80FBDE8F08F0000000019
:10930000C3F10803DB0070B50133002403A500BFDF
:109310005B1920C940CAAD1B20C0184720C940CAEC
:10932000B54120C020C940CAB54120C020C940CAAB
:10933000B54120C020C940CAB54120C020C940CA9B
:10934000B54120C020C940CAB54120C020C940CA8B
:10935000B54120C06441B4FA84F0400970BD00BF3B
:109360004A11012301F01F0150F822008B401840E0
:1093700070470000F0B50C4689B008220646FFF79A
:109380006AFEE36A0393236B0493636B0593A36BF9
:109390000693E36B0793002769466A4608236846ED
:1093A000029701970097FFF7ABFA314605466A46E8
:1093B00008233046FFF7A4FA236B0393636B0493EF
:1093C000A36B0593E36B0693054469466A4608233D
:1093D00068460797FFF794FA314605446A46082322
:1093E0003046FFF78DFA236A0093636A0193A36AFC
:1093F0000293A36B0693E36B0793054431466A46D9
:1094000008233046059704970397FFF779FA636AB4
:109410000093A36A0193E36AA26B0293636B0393C5
:1094200004920693E26B236A059205440793314642
:109430006A4608233046FFF763FAE36A0093236B1A
:109440000193636B0293236A0693A36A079305440F
:1094500031466A4608233046059704970397FFF77D
:109460004FFF236B0093636B0193A36B0293E36B3A
:109470000393636A0693E36A07932D1A31466A469B
:109480000823304605970497FFF73AFF636B009374
:10949000A36B0193E36B0293236A0393636A0493C0
:1094A000A36A0593236B07932D1A31466A46082356
:1094B00030460697FFF724FFA36B0093E36B0193FD
:1094C000636A0393A36A0493E36A0593636B079348
:1094D0002D1A314630466A46082302970697FFF751
:1094E0000FFF2D1A16D5304631460D4A0823FFF7D7
:1094F00007FA4519F7D410E0094831460822FFF76A
:1095000037FA012809D030463146054A0823FFF7CB
:10951000F7FE2D1A002DEFD0F5E709B0F0BD00BF22
:10952000A4D90700F8B5036813F0010506460F46F5
:10953000144605D001463A462346FFF7E1F90546B1
:1095400030462146FFF77AFD45B104F18042013AE9
:1095500056F8223043F0004346F82230F8BD2DE99A
:10956000F04115468AB00446884602A80021202210
:10957000FEF7B6FE2E780323204641462A462F1DCD
:1095800076B20293FFF78DFB2046214602AA3B46A6
:109590000096FFF796FB2046214642462B46FFF7F2
:1095A00070FB00962046214605F184023B46FFF7FA
:1095B000B7FA0AB0BDE8F08100F01F020121914026
:1095C0004009800000F1E020C0F88012704700F0F0
:1095D0001F02012191404009800000F1E020C0F805
:1095E0000011704700F01F020121914040098000E6
:1095F00000F1E020C0F8001270474907090E00286A
:1096000006DA00F00F0000F1E02080F8141D70472A
:1096100000F1E02080F8001470470000BFF34F8F86
:1096200005480168054A01F4E06111430160BFF398
:109630004F8F00BFFDE700000CED00E00400FA05CD
:109640002DE9F0414FF48077384601F060FA0124AB
:10965000104EA50748B1384601F060FA0120C5F860
:1096600008037470002000F03BFD4FF48277384609
:1096700001F04DFA00280BD0384601F04FFA0220D5
:10968000C5F80803B470BDE8F041012000F028BD22
:10969000BDE8F081F82A002007480021C0F84011F9
:1096A000C0F84411C0F84811C0F84C11C0F80011BE
:1096B000C0F8041103F0D6BE0010014003F020BE34
:1096C00010B50021054A084600F016FA002803D01C
:1096D000BDE8104000F00EBA10BD0000A19D0700CB
:1096E000F0B5AE480023021D01780125101D4FF092
:1096F000805406290BD11678360708D10678C6F3B0
:109700000316032E06D0042E04D0052E02D00629FF
:1097100007D00EE0B4F82463A14FC6F304263E60E0
:1097200002E01678360704D10678C6F30316032E36
:1097300002D0062904D00FE09B4F9A4E7E670EE0C0
:109740001678360708D10678C6F30316032E06D01E
:10975000042E04D0052E02D0062907D00EE0D4F83E
:109760004462924FC6F342363E6002E016783607F6
:1097700004D10678C6F30316032E02D0062906D0BC
:1097800011E08B4E376827F0807737600EE016784F
:10979000360708D10678C6F30316032E06D0042E2A
:1097A00004D0052E02D006290AD011E04FF08046E1
:1097B000C6F80C31C6F810317C4E361F336002E01B
:1097C0001678360704D10678C6F30316032E02D0A6
:1097D000062905D00CE0754F032664373E600AE089
:1097E0001678360704D10678C6F30316032E02D086
:1097F00006290DD014E06F4F05263E606D4E783679
:1098000035606C4E083633603F263F1D3E6002E0F7
:109810001678360704D10678C6F30316052E02D053
:10982000062957D062E0644E3668644F3E60624E4F
:10983000361D36683F1D3E605F4E083636683F1D58
:109840003E605D4E0C3636683F1D3E605A4E103607
:1098500036683F1D3E60584E143636683F1D3E60E8
:10986000554E18363668554F20373E60524E1C36DE
:1098700036683F1D3E60504E203636683F1D3E60C4
:109880004D4E243636683F1D3E604B4E28363668B6
:109890003F1D3E60484E2C3636683F1D3E60464EAA
:1098A00030363668454F40373E60434E3436366872
:1098B0003F1D3E60404E383636683F1D3E603E4E8E
:1098C0003C3636683F1D3E603B4E403636683F1D95
:1098D0003E6002E01678360708D10678C6F3031614
:1098E000032E06D0042E04D0052E02D0062907D060
:1098F00019E0D4F85812324A01F04F01116002E029
:10990000117809070FD10078C0F30310032803D0A2
:10991000042801D0052806D12A480168C90702D0C9
:109920006FF00101016022487438016841F4700150
:109930000160BFF34F8FBFF36F8F4FF01021D1F84D
:109940000002002803DBD1F80402002822DA1E4AB4
:1099500015601E480468002CFCD01524C1F8004294
:109960000568002DFCD0C1F8044201680029FCD034
:10997000136001680029FCD0BFF34F8F0C48F0380A
:109980000168134A01F4E06111430160BFF34F8F96
:1099900000BFFDE710490F480860F0BDE00F00F080
:1099A000403501400DF0ADBA00C007403C05004015
:1099B000FCED00E0105600400404001020C50040FB
:1099C000E40E00400004004004E5014000E40140D2
:1099D0000400FA050090D0030022002002E008C82D
:1099E000121F08C1002AFAD170477047002001E019
:1099F00001C1121F002AFBD170470000012120285D
:109A000003DA81400548014003E0402802DA2038AB
:109A1000814009B10120704700207047FC06FFBD5E
:109A2000800701D00020704701207047C3688B4237
:109A300006D811440069491E814201D801207047AF
:109A40000020704786B00B21ADF8141002218DF86C
:109A5000001001228DF801208DF8020003208DF8FE
:109A600003008DF8041059208DF80500FE208DF8B4
:109A7000060005A90DF109007DDF002818D1BDF809
:109A800014000B2808D8411C8DF807100921093053
:109A90008DF8081080B206E00C208DF80700082031
:109AA0008DF808001420C1B200231A46684672DF00
:109AB00006B070471FB50D4B0FCB8DE80F00062089
:109AC000FFF7C0FF00280FD174DF0021684673DF65
:109AD000002809D14FF0A0414FF08050C1F80C058B
:109AE0000C2002F0D6F9002004B010BD2CD70700DE
:109AF000FFF794FDFFF792FD2DE9F84F254C8146C5
:109B0000924660880E46814241D800274FF6FF7882
:109B10008DF80070684600F005F922786078A18819
:109B2000884201DA401C00E00020C0B2904204D11B
:109B30009DF8000000F01AF927E065786078884207
:109B400001DA401C00E0002060709DF8000000F089
:109B50000DF9454519D0A068B9F1000F40F835A0BE
:109B60000DD066B16188E068324605FB01004946C8
:109B7000FEF79BFBA06800EBC500868002E000EBCF
:109B8000C50087800020BDE8F88F0420FBE709208E
:109B9000F9E70000CC21002010B50E4C03E0401C7A
:109BA00000E00020207020786178814210D0227877
:109BB0006188E068A36802FB010003EBC20153F86F
:109BC0003220898890472078A1888842E9DAE6E740
:109BD00010BD0000CC21002030B5CB0008339DB271
:109BE00093074FF0000401D0072030BD044B9A606A
:109BF0002A44DA605C701C7058809980002030BD67
:109C0000CC210020074B9B7823B12AB120B10068FA
:109C1000037C1BB1082070470720704741744261E4
:109C2000002070470C2B002070B503F00FF910488E
:109C300000240B21047044700E4D817014206C6060
:109C40002C706C70FFF7B8FC07211420FFF7D5FCCF
:109C50001420FFF7BCFC0848046007211120FFF71F
:109C6000CCFC0548001F0068A860002070BD000003
:109C70000C2B0020DC210020081501402DE9FC47B9
:109C8000DFF8789099F8023073B368B3052902D2EF
:109C90000720BDE8FC87436933B3437C012B25D003
:109CA000002704460025884616468DF80050684671
:109CB00000F038F801A803F01DFCC8B101210170C3
:109CC0000F4944600968C0E90218C0E904769DF8AC
:109CD000040089F801009DF8000000F047F8142006
:109CE000FFF780FC2846D4E70820D2E70F46D8E7E4
:109CF00004259DF8000000F039F8F3E70C2B002054
:109D0000041501400649897839B130B1416921B162
:109D100000210174022103F081BB0820704700007C
:109D20000C2B002030B5EFF3108172B60D4A946809
:109D3000012324B10370002900D162B630BD9360C5
:109D40004FF0E023D3F88051074C25401560C3F84D
:109D50008041D3F8844154605A17C3F8842100220B
:109D60000270E8E7182C0020FC06FFBD0B498A684A
:109D7000002A11D000280FD1EFF3108072B60B68C3
:109D80004FF0E022C2F800314B68C2F804310022E3
:109D90008A60002800D162B670470000182C0020AD
:109DA00002F040B930B50546154C85B04FF6FF704E
:109DB000208001208DF812004FF65960ADF8100098
:109DC0002A4604A90120A0DF002817D10D4B0FCB94
:109DD0008DE80F00A91C684662DF00280ED12846D6
:109DE00000F008FC002809D1284600F0BDFA002840
:109DF00004D1A06840F00100A060002005B030BD93
:109E0000B82100203CD707000D4810B50288002477
:109E1000A2F57F41FF390CD0816841F004018160D7
:109E20001321104676DF040008D1064800F0A6FF93
:109E300003E074DF1C2002F02CF8204610BD000067
:109E4000B8210020400D030010B51C2002F019F8C5
:109E50000C2002F016F81C2002F01BF80C2002F077
:109E600018F8012000F0CEF8002818D101F0BEFD4E
:109E700038B10B4801F0AEFD0A48816841F002019B
:109E8000816000F0ABFC002809D105482838FFF7B5
:109E900089FF002803D1BDE81040FFF70BBE10BDBD
:109EA0001C260020B8210020FEB5514D0446008834
:109EB00000212B8804F1080623287DD024DC1328F8
:109EC0003BD014DC01285FD0102827D011280DD1F9
:109ED0000C2001F0DEFF287A400704D4FFF7EAFDEA
:109EE00008B1FFF707FE4FF6FF702880FEBD14286B
:109EF0005ED01A2864D01F2836D02128F6D10091D0
:109F0000A08869468FDF2AE050380828EED2DFE8C3
:109F100000F05D3F570404642F10E7E74FF0A041C5
:109F20004FF48050C1F80C051C2001F0B2FFA0884E
:109F3000DBE7BDE8FE4001F095BC2E486A4642F6DC
:109F400005210068009002A801901846A5DF08B11D
:109F5000FFF7D0FD00231A46852128887FDF0028DF
:109F6000C4D0FFF7C7FDFEBD3146184675DF05E0DA
:109F7000A0790028F7D11321184676DF0028F2D007
:109F8000BDE8FE40FFF7B6BD0021184666DFF5E7E5
:109F9000A0790028E7D02146174802F07BF9002875
:109FA000E1D003B03146BDE8F040134802F0D4B828
:109FB00000210A46A08800E013E00B4686DFDDE7BB
:109FC0000023A0881A461946A9DFD7E703B0214627
:109FD000BDE8F040084802F0A7B9A0881721ADDF1E
:109FE000CCE700910191A0880022694690DFB6E796
:109FF000B821002024D70700F4250020007800F0C5
:10A00000010070471FB5002400940194029403944A
:10A0100018B101F001FB002820D1114813DF0028FE
:10A020001CD101F0D3FF08B1FFF764FD684601F0D1
:10A0300079FF002812D1019401208DF804008DF8D9
:10A040000540029403948DF8064001A94020009A2F
:10A0500069DF002802D1684601F06EFF04B010BD30
:10A06000008007000249085C012101F019BF0000CF
:10A070001CD707000249085C002101F011BF000055
:10A080001CD707007CB50024084E25460122305D10
:10A09000009500231146019501F0E1FE641C042C9B
:10A0A000F4D3BDE87C4000F003B800001CD70700E3
:10A0B00010B500242046FFF7D5FF641C042CF9D30B
:10A0C00010BD10B543689C18446021B905E013F831
:10A0D000010B01F8010B521EF9D2012010BD000046
:10A0E00070B5084C050009D010342168002907D04C
:10A0F00008682060496828468847F6E70834F4E78E
:10A1000070BD0000F82A00202DE9F05F2648416864
:10A11000F1B3DFF898B00E688146DBF8004087683D
:10A120008078E11B21F07F45ED1CB0B9DFF880801D
:10A130004FF48030C8F84403C8F804031120FFF737
:10A140003BFA1120FFF743FA4FF0010AC8F800A0CC
:10A150002F2000F059FE89F802A0B54200D2354602
:10A16000124BE8193C3320F07F401860DBF80010F8
:10A170005A46091B21F07F41001B20F07F40C91C7B
:10A1800081420FD9106818602F2000F03DFE00E0DA
:10A1900004E0BDE8F05F1120FFF724BABDE8F05FEE
:10A1A00002F054BEBDE8F09FDC2100200415014000
:10A1B00000100140F0B54FF0FF3622B11268D243D3
:10A1C00000230A4D0DE03246FAE7C45C62400824E1
:10A1D000D70700D037462F4087EA5202641EF7D1D6
:10A1E0005B1C8B42F1D3D043F0BD00002083B8ED5F
:10A1F000F0B5146906468DB020681546271DE0B1FC
:10A20000022920D00A2000906B4609AA304602F0AD
:10A2100027FD00280FD009A901A8009A02F000FC30
:10A2200001AE96E80F0005AE86E80F002368696866
:10A230003A4605A898470DB0F0BD0DB03046BDE8D0
:10A24000F04002F061BC6946304602F0F3FB0028A2
:10A25000F1D0236869683A46684698470028EAD0F2
:10A2600002980028F5D1019870600120E3E7536857
:10A270005B7813F0C00303D0402B03D0002070475D
:10A2800000F002B8FFF7B4BF2DE9FF410B4651685B
:10A29000064614464878334D00F00F0210F03000A7
:10A2A00055F8225006D0102806D0202808D0302893
:10A2B00056D13EE022694DE061690120087047E017
:10A2C000022B28D1042A26D84FF0010869463046CF
:10A2D000676902F0AFFB00281AD009E00B79226908
:10A2E00013FB00226846A84770B13878401C3870CC
:10A2F000029820B1616838784A799042EED301988B
:10A300007060029860BB02E04FF00008F7E740463B
:10A3100004B0BDE8F081D4E904300F79027817FB6E
:10A32000023349798A421BD2521C02701A46616874
:10A3300010E008786169072A087009D1606801791E
:10A340002069FDF7CBFF60682169806802F08DFB12
:10A350002269616804B03046AC46BDE8F041604710
:10A360000020D5E77CD9070010B58EB004461C212B
:10A370006846FDF7B3FF142108A8FDF7AFFF9DF86D
:10A380000010002041F0180107908DF80010A1780E
:10A390008DF836100121ADF834109DF81C1004F131
:10A3A0000C0321F0FF018DF81C109DF81D1008AA68
:10A3B00021F00F01491C21F0F00110318DF81D1022
:10A3C0009DF81E1021F00601891C41F011018DF845
:10A3D0001E100DA9089107A909911721ADF82C109D
:10A3E0000C9020886946A2DF0EB010BD1FB50E4844
:10A3F00000F15C01826B684602F012FB0B489DE89D
:10A400000E0080E80E00094909480B4AC860094956
:10A410000020086048600949044802F09EF80028BE
:10A4200000D0012004B010BD2029002044250020C8
:10A4300089C807009021002018220020ACD6070010
:10A4400005490A6812B10A68521E0A6001690029AA
:10A4500000D0084770470000C42100202DE9F041DA
:10A460009C461600054600F104044FF0000110D090
:10A47000BCF1000F0DD094F85F0018B194F86000A3
:10A48000012851D0207A20B1E068342803D006207A
:10A4900037E0042035E000204FF44053227C1BE0DD
:10A4A00004EB8007B3F80CE07F69774513D194F88B
:10A4B00025004C4AA0B1012807D0022801D003286A
:10A4C000E7D121780029E4D0D16870B1022811D0F9
:10A4D000032812D10EE0401C8242E1DC072010E08C
:10A4E00021780029D5D09168EFE76068884204D2CE
:10A4F000052006E060688842FAD995F8700020B11E
:10A500000B20BDE8F04100F063B9374F374B62468E
:10A510003146386800F09EFB30B9344895F8712018
:10A5200008384168914202D00A20BDE8F0810068F5
:10A5300005F17201FDF7B9FE2C4B2C4AD7F8020049
:10A54000083BA2F1100100F03BFB08B10520ECE74D
:10A55000264D0020283DE86094F82510C9B1012956
:10A5600024D023480229C0F5FC2018D0032990D11B
:10A5700094F82C1000298CD094F82610002988D04B
:10A58000A26A216B5318EB6042B339B3814223D8DE
:10A5900012E094F83400002895D0A06B0BE094F8FA
:10A5A0002C1000298FD0216BE960EFE794F826008A
:10A5B000002888D0A06AE8600C482022083004F106
:10A5C0003F010068FDF771FEE86838B1074A0021D5
:10A5D000203A00F017FF18B10420A6E70320A4E7F3
:10A5E0000120A2E720290020D0D60700A8210020C2
:10A5F0000080070010B58EB004461C216846FDF7A8
:10A600006DFE142108A8FDF769FE9DF800100020DA
:10A6100041F0040107908DF80010A1788DF83610F4
:10A620000221ADF834109DF81C1008AA21F0FF019A
:10A630008DF81C109DF81D1021F00F01491C21F010
:10A64000F00110318DF81D109DF81E1021F006014B
:10A65000891C41F001018DF81E100DA9089107A970
:10A6600009911421ADF82C100C902088231D694607
:10A67000A2DF0EB010BD00000E4910B50A784C786C
:10A680000023A24212D0521CD2B20A70022A00D178
:10A690000B70084A0B780C3252F82320026088684D
:10A6A000104420F07F408860012010BD036000202E
:10A6B00010BD0000DC2100202DE9F8430E4F81463B
:10A6C00000240120984615460E46387005E000BF6C
:10A6D00006EB043001F0F0FB641CAC42F8D1002022
:10A6E00038702B46324602214846CDF8008000F0F3
:10A6F00023F80020BDE8F883F0210020F8B50746D4
:10A700000C481C46154680780E4608B10820F8BD56
:10A71000684602F027FA58B10098012101710760DC
:10A72000310B4561C0E9024102F080FA0020F8BD1A
:10A730000420F8BDF42100202DE9F04186B0044644
:10A740008068DDF830801D4616460F4600280CD084
:10A7500014216846FDF7C2FDCDE902658DF8007051
:10A76000CDF81080A1686846884706B0BDE8F08142
:10A7700030B50446006885B00D46806800281CD0BE
:10A7800014216846FDF7AAFD0195A0680490207980
:10A7900010B101280DD104E001208DF800002069DE
:10A7A00004E002208DF80000E06800030290606978
:10A7B0000390206881686846884705B030BD000076
:10A7C0000249002208780A7070470000C821002062
:10A7D000014908700B207047C821002010B586B0D1
:10A7E00000249DF80000019420F00F00401C20F090
:10A7F000F00010308DF80000029403A86DDF0028EF
:10A8000025D19DF80D00401C8DF80D0003A86CDFCC
:10A8100000281CD10F48007A800703D50E48011D7F
:10A82000806901E00DA1072082B268467CDF002824
:10A830000DD10620ADF804001820ADF80600ADF8E3
:10A8400008404FF4C870ADF80A0001A87ADF06B0DE
:10A8500010BD0000B82100201C260020446675545D
:10A860006172670010B501F0EFFB08B140DF10BD69
:10A87000054901200860012000F058F90028FAD1AC
:10A880000249487010BD000004000040F82A002072
:10A8900010B50A4C2068FFF735FA08B1FFF72AF91E
:10A8A00000224FF470112068FFF7E8F9002803D068
:10A8B000BDE81040FFF71EB910BD00004CD70700DF
:10A8C00003494160034800210180084670470000A9
:10A8D0009CD70700F021002070B50A4D08490024DC
:10A8E00041602C6001F0B0FB2946C8700648046046
:10A8F0004460C0F8E040C0F8E44000206C6070BDE7
:10A90000BCD70700F4210020242C00200148007847
:10A9100070470000F02100200348D0F8E400002830
:10A9200000D0012070470000242C0020800701D0B7
:10A9300000207047012070470268134602E08A42F7
:10A9400004D01268002AFAD10B600160704770B51C
:10A95000054608680C464A6886682846314601F074
:10A96000A5FF6068286104F10C006861707802211D
:10A97000B1EB901F01D1241D2C6170BD064901204F
:10A98000086006480168C1F300410029FAD1044972
:10A9900000208870704700000C0000401804004040
:10A9A000F82A00202DE9F047394E002780463D4621
:10A9B000DFF8E090D6F804A057E003D00446D0F8C2
:10A9C0001C8035E099F8002002EB4201521CD2B203
:10A9D00089F8002009EBC10199F80230091D9A425B
:10A9E00001D189F8005048680A780446012A12D03B
:10A9F000022A02D0032A3BD108E002F0DFFC00B1BA
:10AA00000127257434E00574C06900E070680028EF
:10AA1000F9D170602CE0207C50BB88686060C86809
:10AA2000A0600869E0604869A061F07800B16560E5
:10AA30006268B168184B501A20F07F40984202D2E9
:10AA4000A168084406E0881AA16820F07F4081428E
:10AA500002D9081A206000E0256065600120A56029
:10AA600020742046E56102F08BFCB8F10000A4D10F
:10AA700099F8001099F801008142A3D117B97168C3
:10AA8000514502D00120BDE8F0870020FBE700001F
:10AA9000DC2100200C2B0020FFFF7F0010B5FFF70A
:10AAA000F1FA0220FFF7E6FA08490748C1F8000763
:10AAB00000F025F808B1FEF7B1FD4FF44050806872
:10AAC00000F006F8002010BD0C000300400000500C
:10AAD00010B5044600F0A0FD00280FD14FF0E02192
:10AAE000401EC1F88001C1F88002204613DF002813
:10AAF00004D12046BDE81040FDF78CBB10BD10B559
:10AB000000F050FD002801D100F0E4FC10BD00F180
:10AB100080400068002800D00120704708B500F18F
:10AB20008040002101600068009008BD0549096867
:10AB300040F4803001F00111814201D101207047C1
:10AB4000002070470C0400402DE9F00300F0FF0CDA
:10AB50000023182530221C26382420274FF04009D6
:10AB6000BCF10A0F25D2DFE80CF024051D0B2015DF
:10AB7000181D0B2014224A60282211E08A6002E08E
:10AB8000C1E900468C60BDE8F003C0F307200C313A
:10AB900000F0D1B84A60602202E042224A6084227A
:10ABA0000A60EBE7C1E90025E8E7C1E900974A46FA
:10ABB000E4E74B600B608B60BDE8F0030620704754
:10ABC0002DE9F04186B01C4615460E468046FDF73D
:10ABD00027FD074646B33DB334B3306830B3296828
:10ABE00021B3216811B3FFF7A1FEF8B12868FFF780
:10ABF0009DFED8B12068FFF799FEB8B101A9404683
:10AC0000FFF7A2FF00280CD170680199884207D194
:10AC10006A680498824203D160680399884207D029
:10AC2000092006B0BDE8F0810E20FAE71020F8E711
:10AC300008F0FF00042801D00620F2E700972368FF
:10AC400029683068FDF7F0FC08B10020E9E70B2027
:10AC5000E7E70000F0B506461A48A1B01C004068BE
:10AC6000029004A817460D46019008D03DB1206817
:10AC700038B1F0B2052806D0062021B0F0BD0E2074
:10AC8000FBE71020F9E7694600F055F80028F4D1F9
:10AC900060680099884201D00920EEE701A930469A
:10ACA00000F035F80028E8D13A46294601A800F01E
:10ACB00059F80028E1D1224601A9304600F004F8F5
:10ACC000DBE7000094D70700F8B51446054621B12C
:10ACD0001CB1486870280DD101E00720F8BD0E684E
:10ACE000E8B2694600F027F80028F7D160680099BB
:10ACF000884201D00920F8BDC5F3072028B1002201
:10AD00003046216802F084F9F8BD0122F8E731B13C
:10AD10000A6832B14968702905D2092070470E20AF
:10AD2000704710207047C0B2052801D00620704738
:10AD3000104602F0F5B91422082811D2DFE800F01D
:10AD40001004100406080C0E0A6003E01C2000E04A
:10AD500020200860002070473020FAE74020F8E704
:10AD60000620704728B121B14368702B03D2092017
:10AD7000704707207047006802F092BA00283ED062
:10AD80001F49204A096800BF00BF00BF00BF00BFC5
:10AD900000BF00BF00BF91422FD000BF00BF00BF67
:10ADA00000BF00BF00BF00BF00BF00BF00BF00BFAB
:10ADB00000BF00BF00BF00BF00BF00BF00BF00BF9B
:10ADC00000BF00BF00BF00BF00BF00BF00BF00BF8B
:10ADD00000BF00BF00BF00BF00BF00BF00BF00BF7B
:10ADE00000BF00BF00BF00BF00BF00BF00BF00BF6B
:10ADF00000BF00BF00BF00BF00BF0138C3D1704714
:10AE0000002200200024F40000283ED01F49204AE0
:10AE1000096800BF00BF00BF00BF00BF00BF00BF88
:10AE200000BF91422FD000BF00BF00BF00BF00BFD6
:10AE300000BF00BF00BF00BF00BF00BF00BF00BF1A
:10AE400000BF00BF00BF00BF00BF00BF00BF00BF0A
:10AE500000BF00BF00BF00BF00BF00BF00BF00BFFA
:10AE600000BF00BF00BF00BF00BF00BF00BF00BFEA
:10AE700000BF00BF00BF00BF00BF00BF00BF00BFDA
:10AE800000BF00BF00BF0138C3D1704700220020BF
:10AE90000024F4002DE9F05F244C4FF440594FF4A6
:10AEA0008058216B666AD9F80830771A03EB010BDA
:10AEB00001EB000A4546AF4200D83D460022012181
:10AEC000584600F0D7FA00282ED100232A465146D2
:10AED000584600F0EDFA002826D12A465146584639
:10AEE00000F06EFB00281FD1206B28442063002057
:10AEF00000F0DAFDAB44AA447F1BDBD100223146CF
:10AF0000D9F80800FFF756F9A16A814203D101215F
:10AF1000A661C4E907010548243000F045FBBDE8FF
:10AF2000F05F002000F0C0BDBDE8F09F20290020A8
:10AF300010B50A4C206A01280BD1E06958B14FF4D2
:10AF40004050A16980680022FFF734F9E16981422D
:10AF500001D0002010BD012010BD000020290020DC
:10AF600070B50D460A680C49496B541A0E182246F2
:10AF700031460A4800F024FB28B121463046BDE89E
:10AF8000704000F02BBB284600F00EFBBDE870407F
:10AF9000034800F089BD0000202900200080070040
:10AFA000FDCC07004FF0A040D0F81005000C10F0C9
:10AFB000010F01D000207047012070472DE9F041BA
:10AFC000454C0B780F4616460125D4E90E102A028F
:10AFD000DFF80881072B7DD2DFE803F07C04213CF9
:10AFE0001D7C7700B86820B1904204D90420BDE8E8
:10AFF000F0810320FBE73A480068FEF783FE3648FD
:10B00000002688F8036020213830FDF767F92663B1
:10B01000B868A06355E07060206CB06053E0BA6817
:10B0200013188B4203D97060206CB060E1E72A4BA3
:10B0300079685C331844FDF738F9E06BB968264A43
:10B040000844E063D7E901014032FFF7B3F8206418
:10B05000E06BE0E7884201D00820C8E798F80300D9
:10B06000444608B10120C2E7FFF7C0F9012824D106
:10B070001C4890F87410B1B100F54B7190F87A202B
:10B080007830012A01D005200BE0144A10320CCA96
:10B09000FFF7E4F9012804D1002000F005FD70B1AC
:10B0A0000A2005460DE0007838B10320FFF790FB39
:10B0B0000546012803D004E00CE0052097E70120B5
:10B0C000E070FFF7E5FB284691E77060206C326086
:10B0D000B060F8E70225F6E7202900208021002053
:10B0E00090D707001822002030B40B4B02464FF4D3
:10B0F00040501C69816803F11800012C08D05C697C
:10B1000034B19B690C3003F6FF736FF30B031944E2
:10B1100030BC00F003B80000202900202DE9F041E8
:10B120000D46014616468A680020012A0CD00127E8
:10B13000A52A12D0AA2A1ED0AC2A1AD10C4628461B
:10B1400000F0ACFBA0B91BE010494969012910D1FE
:10B150002846BDE8F041FFF79DBE28460C4600F0AA
:10B160009DFB28B9204600F01FFA094800F09CFC1E
:10B170003760BDE8F0812846BDE8F041FFF7F0BE3A
:10B1800021462846FFF7ECFEF2E7000020290020C8
:10B19000FDCC07002DE9F05F894E91F800C0874F84
:10B1A0000C461546D6E91410FA78B36C4FF0010B33
:10B1B0004FF4805A4FF00009BCF1070F7ED2DFE850
:10B1C0000CF0FA0433D7D3FAF500A168B1B37B4B86
:10B1D0000D05DB6802D045189D4237D151452BD86B
:10B1E000002A6CD00144994269D8F16CB164A1681D
:10B1F000306571643063716909B9C6F82090B97817
:10B20000491C01F00301B970A7F80690A168BA685B
:10B2100001F6FF711044090B002200F02BF9002801
:10B220007ED00520BDE8F09F6960B06CA860002A60
:10B2300045D0A168802902D90420F3E706E0306DEB
:10B24000726D0844801A726C904201D90320E9E7BC
:10B250005B4A60684832FEF7ADFFB064306DA268AB
:10B26000B046104430656860B06CA860F888A26889
:10B27000DFF850A111183E46802905D2B7786168E1
:10B280000AEBC713184436E0C0F18001B3788FB2DF
:10B290000AEBC31210443A466168FDF706F8F088DD
:10B2A000384482B2F280A068C01BA0606068384455
:10B2B00060604746D8F83000B16801E07BE05BE0B1
:10B2C000B37808440AEBC311002300F0F1F840B34F
:10B2D000F86CB864786D38656860F86CA860B07810
:10B2E000401C00F00300B070A6F80690A26882B37C
:10B2F0000AEBC0106168FCF7D8FF2089F188084488
:10B300000204F080120C4ED0D8F85410D8F8300057
:10B31000D8F84430411A11444446994243D301E0DD
:10B320003FE017E0B168B37808440AEBC31100238B
:10B3300000F0BEF898B1E06CA064606D20656860B4
:10B34000E06CA860B078401C00F00300B070A6F874
:10B35000069028E0F188386B08443863BFE7F1882D
:10B36000206B08442063EDE76960B06CA8601AE0C8
:10B37000726C081A904201D0082053E7C6F8449036
:10B38000F3640020716500F08FFB08B10A2049E7E3
:10B39000306DF968884204D10A48B03800F048F9A5
:10B3A0008346FFF775FA58463CE7FFE7AB60306D20
:10B3B000C5E900A0F7E74FF0020BF4E78021002079
:10B3C000202900204423002010B5FFF7EBFD90B9A1
:10B3D0000A480068C0B2B1280DD00948816D012922
:10B3E00001D0002010BD00218165084600F05CFB03
:10B3F00008B1FEF77FFB012010BD00001C050040D6
:10B4000020290020F0B54FF010235C694FF4405321
:10B410009B68E61AA6F5405682B186421BD3144CAF
:10B420001360A4F1180300251F6A012F08D01D61C5
:10B430005D616560A56020600020F0BD0720F0BD63
:10B44000276807F6FF776FF30B07A6EB070C0126BB
:10B45000604505D909B10420F0BDC3E90465E8E7FA
:10B46000C3E904561168024C39440C341160E0E71A
:10B4700038290020054B30B41C68641C1C6013463E
:10B480000A46014630BC024800F004BCC42100203A
:10B490000422002008B1034900E0034900220348C8
:10B4A00000F01FBCC4D70700A4D707000422002067
:10B4B00038B5064C25686D1C2560009313460A4676
:10B4C0000146034800F098FC38BD0000C42100206C
:10B4D0000422002038B50020009000F0BBFA00F0F4
:10B4E00033FB08B1FEF706FB002000F069FB28489B
:10B4F0000168C1F300410029FAD0FEF795FB08B1BD
:10B50000FEF7F8FA234A00212348FEF77BFB08B137
:10B51000FEF7F0FA6846FFF7E7FD012400B100945A
:10B52000FFF752FF00B100941C490020086000980A
:10B5300090B9FFF7FDFC78B100F032FA00280AD18B
:10B54000FFF7F6FC30B100F06FFB4FF4405080681D
:10B55000FFF7BEFA002038BD114A10210820FEF77F
:10B560003BFB08B1FEF7C6FA0B4800224FF47011FE
:10B570000068FEF783FB0028EDD100F0CFFA002829
:10B58000E9D100F025F900BFFEF706FB3EDFFBE73F
:10B590001804004079B807004CD707001C0500408C
:10B5A0005826002000207047002101604160816022
:10B5B0000248016341630161416170472029002015
:10B5C0001FB5054B01AC92081B6A009384E8070085
:10B5D000684618DF04B010BD50D707001FB58908B2
:10B5E000002201AB009283E80700684618DF04B030
:10B5F00010BD00001FB59208930502D0092004B0C9
:10B6000010BD044B1B6800930392CDE901106846FE
:10B6100018DFF4E750D707001FB5044B0FCB8DE8B8
:10B620000F00684618DF04B010BD000060D70700A7
:10B630002DE9F047064690F83D000127DFF87C81B0
:10B64000032801D0092013E05D485C4BD8E90212C1
:10B6500000683033FFF7FEFA00B10A27574820226E
:10B66000303006F13F010068FCF743FE18B10C20B2
:10B67000FFF7AEF80746534D6A6922B1012A05D09B
:10B680000A20BDE8F0874F4C183401E04D4C2434BB
:10B6900096F825304FF0010A4FF00009ABB34A4944
:10B6A0004FF44050012B05D0022B38D0032B19D07A
:10B6B0000A2736E00278142A01D9406900E0002008
:10B6C000D8F80820B0FBF1F002F500521378142BE3
:10B6D00001D9526900E00022B2FBF1F188421ED08C
:10B6E00005271EE00378142B01D9406900E00020F3
:10B6F000D8F80830B0FBF1F003F5005393F800C020
:10B70000BCF1140F02D95B6901E008E00023B3FB30
:10B71000F1F1884203D0012A01D1C5F82090012F10
:10B7200005D0C4F808904846C4F804902FE096F875
:10B73000250088B1012817D0022817D0032818D077
:10B740000420FFF745F8074696F82500B0B1022817
:10B7500017D0032817D114E0C4F808A0686901289D
:10B76000F2D1C5F82090EFE7A52003E0AA20A06061
:10B77000EAE7AC20A060B06A6863E5E77068A8609B
:10B7800001E07068E860A86C6060D8F80C00206088
:10B790000C4820213830FCF7A1FD0A48FF22B221D5
:10B7A0005C30FCF794FDC5F8309088F805A0074898
:10B7B00000F07AF900B10A27384662E780210020BC
:10B7C000D0D607002029002040420F0051C20700B8
:10B7D00070B50120FFF75EFE00281DD10F4CA06B55
:10B7E00078B1FEF703FE60B10D4D206A68B9A0691B
:10B7F00058B10B4A00210832E860FFF703FE012030
:10B80000E8700020FEF7E4FF05E0E06A18B9A069DF
:10B8100008B1606AEDE7002070BD0000202900201B
:10B820008021002030B40C780D4B012C01D0062C67
:10B8300008D10C79012C04D0022C02D0072030BC96
:10B8400070475C705B78012B03D0022B04D005207D
:10B85000F5E730BCFFF7B2BB30BCFFF79BBC000084
:10B860008021002003484179002901D00121017184
:10B870007047000080210020BFF34F8F054801680A
:10B88000054A01F4E06111430160BFF34F8F00BF2F
:10B89000FDE700000CED00E00400FA052DE9F041A1
:10B8A000DFF880800246D8F83060D8F8341030468F
:10B8B0000B1A03F6FF731C0B240340F6FF7303EB14
:10B8C00094031D0B2D03B71806F5805621B188424D
:10B8D00002D10020BDE8F081A54203D904F6FF7033
:10B8E000050B2D032A4639463046FFF783FE002814
:10B8F000F0D12A4639463046FFF762FE0028E9D1EA
:10B900002E442F44A54201D9002400E0641BD8F83E
:10B9100034100020091BC8F8301000F0C5F8002CC6
:10B92000DAD1D7E72029002038B10549016005495F
:10B93000416001210172002070470E207047000015
:10B9400049B907007BB9070030B40246112039B16C
:10B950000B78052B05D2DFE803F00E060C0E0E0067
:10B960000E2030BC70470220087030BC104600F03A
:10B970004DB81120F5E70820F3E70246112041B148
:10B980000B78022B04D1022A05D0032A00D108200B
:10B9900070470E207047002003220A707047000095
:10B9A00070B50B480024D0F85C11491C03D1D0F8C5
:10B9B0009C01401C09D04FF4FE25284600F07CFA7B
:10B9C00057220349284600F08FFA204670BD000038
:10B9D0002029002010B528B11C220349FCF765FC82
:10B9E000002010BD0E2010BD9CF1070010B5064CC4
:10B9F00000221821201DFEF7DDFB2168814201D1C4
:10BA0000012010BD002010BD9CF1070070B50C4D49
:10BA10000400D5F89C0105F5CE7503D0401C03D079
:10BA2000082070BD0E2070BD00221821201DFEF7D9
:10BA3000C1FB206007222146284629DF70BD000097
:10BA400000F00700002258210148FEF7B3BB0000B8
:10BA50002429002070B5FFF71DFD08B1FEF74AF854
:10BA60004FF4DC752A460E490E48FCF71EFC0D4CBF
:10BA70002068401C04D0FFF7E5FF216881420ED00A
:10BA800029460848FCF72AFC01206060002000F0ED
:10BA90000BF8002803D0BDE87040FEF72BB870BD4E
:10BAA00000F007002029002070B504460022012183
:10BAB0000C48FFF7DFFC90B9FFF7C4FF0A494FF4C9
:10BAC000DC752A460860A1F5DC70FCF7EEFB234626
:10BAD0002A4606490348FFF7EBFC002800D0032064
:10BAE00070BD000000F0070020290020682700201A
:10BAF00070B50848084D401BC6080020044606E003
:10BB000005EBC40040688047002802D1641CB442A1
:10BB1000F6D370BD78DA070070DA070070B5084810
:10BB2000084D401BC6080020044605E055F83400C7
:10BB30008047002802D1641CB442F7D370BD0000D6
:10BB400078DA070070DA07002DE9F0410F4D002682
:10BB5000287808B1852616E00024AC606C602C6162
:10BB6000EC604FF0E020D0F80001012710F0010F49
:10BB700003D10721002000F071F800F065FA08B940
:10BB8000034804602F703046BDE8F081F82A002099
:10BB90001805004008B500208DF800006846FEF743
:10BBA000C1F80648C168491EC160C06808B9FEF7FF
:10BBB000E5FE9DF80000FEF7D9F808BDF82A002040
:10BBC000F8B5174D0446A878002648B114B161684D
:10BBD000012088478DF800606846FEF7A3F817E05B
:10BBE0008DF800606846FEF79DF824B10C482146A8
:10BBF0001030FEF7A1FEE86850B94FF48270FEF7EE
:10BC00008DFF02204107C1F80403064901200860A6
:10BC1000E868401CE8609DF80000FEF7A7F8F8BD52
:10BC2000F82A00200800004010B500F011F84FF08D
:10BC300080414FF0FF30C1F80803FEF79FFEFEF78A
:10BC400011FE02490020087010BD0000F82A0020F3
:10BC50004FF0E0210120C1F8800170474907090E2B
:10BC6000002806DA00F00F0202F1E02282F8141D2B
:10BC700003E000F1E02282F8001400F01F0201212D
:10BC800091404009800000F1E020C0F88012C0F827
:10BC9000001170472DE9F0411F46154604000E467D
:10BCA00016D02068B8B1C5B160680268501E304235
:10BCB00015D16A432046FDF7B9FE80B120683B46A6
:10BCC0002A46D0F810C031462046BDE8F041604712
:10BCD0000E20BDE8F0810820FBE70920F9E71020DD
:10BCE000F7E720B119B101600B68114618470E2023
:10BCF0007047000008B1012808D105480121817072
:10BD0000017809B9407808B10020704701207047D8
:10BD1000F4210020012801D0032808D10449002281
:10BD200001288A7000D00020C87000F03BBF704727
:10BD3000F4210020F0B52E4E074687B0307800255C
:10BD4000F0B32C4C022FD4F8E000C0EBC00004EBA1
:10BD50008001304602D0032F3DD115E045600879BF
:10BD600010B1012837D108E0D1E90502801A142862
:10BD700000D314201044886102E00869401C086167
:10BD80004A69904206D026E04268521C4260082A66
:10BD900021D945601C226846FCF787FAD4F8E400F4
:10BDA000401EC4F8E400D4F8E000401CC4F8E000F1
:10BDB000082801D1C4F8E0503570022F06D000E009
:10BDC00006E00D216846FEF7D3FC04E00021F9E708
:10BDD000707800B17570B07820B107B0BDE8F04060
:10BDE00000F038B907B0BDE8F04000F0DBBE00005D
:10BDF000F4210020242C00202DE9F8431D46089F43
:10BE00001646884604000DD066B1206860B135B191
:10BE100060684068B5FBF0F100FB115030B10920BB
:10BE2000BDE8F8830E20FBE70820F9E74046FDF760
:10BE3000F7FD90B13046FDF7F3FD70B12A4641465B
:10BE40002046FDF7F3FD40B1009720682B463246AF
:10BE5000C76841462046B847E2E71020E0E770B5E2
:10BE600041EA4201DDE904564FF0A04441EA830172
:10BE700041EA052104EB800041EA0641C0F80017C1
:10BE800070BD4FF0A04202EB80000321C0F8001704
:10BE900070474FF0A04201218140C2F80815704759
:10BEA00001224FF0A043824011B1C3F8082570472A
:10BEB000C3F80C2570470000094A022111600949A6
:10BEC0000B68002BFCD0064B1B1D1860086800286F
:10BED000FCD00020106008680028FCD070470000EB
:10BEE00004E5014000E4014070B50C4D01232B60D6
:10BEF0000B4C2368002BFCD0002307E051F8236093
:10BF000040F823602668002EFCD05B1C9342F5D3DA
:10BF10000020286020680028FCD070BD04E50140A6
:10BF200000E4014020B10349096801600020704726
:10BF30000E2070474CD9070060DF704730B593B0D2
:10BF40005FF03805ADF8445011A903A861DF30B1A6
:10BF5000052816D013B0BDE83040FDF7CBBD03ACCB
:10BF60000949684600F0A2F807E000BFD0E90021C7
:10BF700020469047684600F0B0F802980028E1D0CB
:10BF8000F4E713B030BD000054D9070010B50E4CD3
:10BF90002078B8B10120A07000F0F8FF11280FD070
:10BFA000022001F00BF811DF00280AD12070A070E8
:10BFB000162000F069FF002803D1032000F0FEFFE7
:10BFC000002010BD082010BDFC21002038B5124C07
:10BFD000207808B1082038BD0125A570002000F0A8
:10BFE000D5FF112815D0002000F0E8FF0B480C49C0
:10BFF00000680090684610DF0028ECD12570A07022
:10C000006070162000F060FF0028E4D1012000F0ED
:10C01000D5FF002038BD0000FC210020ECD807002F
:10C02000F19A07000EB50749684600F03FF805E0B1
:10C03000D0E900108847684600F04FF802980028C1
:10C04000F6D10EBD08D907000148007870470000FE
:10C05000FC2100200548817819B1007818B1FFF75C
:10C0600095BF08207047FFF7B1BF0000FC210020FA
:10C070001FB5684648DF30B1052814D004B0BDE8CC
:10C080001040FDF737BD084901A800F00FF806E0A1
:10C09000D0E900210098904701A800F01EF803980D
:10C0A0000028E6D0F4E71FBD70D9070001600968D9
:10C0B0004160AFF3008010B5D0E900215368994288
:10C0C00001D1002104E0D1E90034A34202D0194695
:10C0D000816010BD08314160F0E7816800290BD014
:10C0E000026892680A44826041684B689A4203D1B0
:10C0F00008314160FFF7DFBF704700002DE9F041D4
:10C1000004461348134BC01A0C21B0FBF1F6A0698A
:10C110004FF0FF3110F8022C02B92169002011E024
:10C1200000EB400503EB85052F68974209D14F1CB2
:10C1300002D06F688F4204D194E80F00AD68A84721
:10C1400003E0401CB042EBD301202060BDE8F08149
:10C15000C4DA0700B8DA070010B586B0044600203C
:10C160000090019002900390049005900B7B37485B
:10C17000072B67D2DFE803F0660429351E66490005
:10C180004A89062A01D0032212E042888280487B35
:10C1900004904A7CD1F80E0003A962F31F60059059
:10C1A00001208DF80C006A460020FFF73BFB024699
:10C1B00001213DE003208DF80C006A4603A9002010
:10C1C000FFF730FB0246042132E04A89032A01D0FE
:10C1D000032204E0B1F80D10418081800122022188
:10C1E00026E004208DF80C006A4603A90020FFF722
:10C1F00019FB0246012801D0032119E0DDE90112F3
:10C20000204600F09BFD06B010BD4889022801D0F1
:10C2100003220CE0487B049006208DF80C006A464F
:10C2200003A90020FFF7FEFA0246012804D00621E8
:10C23000204600F0E1FDE6E79DE80E00204600F014
:10C24000A9FDE0E703221946F2E70000B82100202B
:10C2500010B50D4C2078002814D10C4A01210C484F
:10C26000FDF7D0FC08B1FDF745FC0948002208386D
:10C2700040F266618068FDF701FD08B1FDF73AFC08
:10C280000120207010BD000080210020C5CC0700D7
:10C29000D8D6070030B587B00024019402940394E7
:10C2A00004948A1D8B790831022B35D153888589F6
:10C2B000AB4231D1127A042A2ED0062A2CD0052A7C
:10C2C0002AD0022201238DF804208DF80A300B8930
:10C2D000ADF80C304B890C31CDE90414ADF81420C5
:10C2E000104DADF80E30CDF818D0018A05AA288877
:10C2F000A5DF18B96846FDF781FE30B1ADF80840FA
:10C3000001A92888A8DF50B106E040F2FD10ADF881
:10C31000080001A92888A8DF002007B030BD01204F
:10C32000FBE70000B821002030B50546C888AA8880
:10C3300087B0904223D10020059003900490009094
:10C34000029002208DF8000001F112000190088A8D
:10C35000029003AA69460020FFF764FA094C60883E
:10C3600000280CD0A088401E0004000CA08006D13C
:10C37000DDE90412284600F0E1FC6088A08007B0E7
:10C3800030BD0000B8210020F8B50D461446064621
:10C39000694600F052FA00280ED0009AFF2A0AD807
:10C3A000501C824207D869780223B3EB911F02D058
:10C3B0002979814201D20020F8BD2270611C3046EB
:10C3C00000F066FBF8BD114600F0D6B8114600F04B
:10C3D000E3B8F8B50C4615460646694600F02DFA56
:10C3E00000280CD0009A501C904207D36178022399
:10C3F000B3EB911F02D02179814201D20020F8BD18
:10C400002946304600F044FB009A0021A954F8BDAB
:10C410002DE9FF410C468E6817460546694600F037
:10C4200009FB00280ED0A06800280BD060783A469F
:10C43000C0F3011002283146684606D000F0DAF851
:10C440000199696004B0BDE8F08100F086F8F7E773
:10C450007CB50D461446694600F08FF9002820D0BF
:10C460002879082806D0042809D002280AD00128F3
:10C470000CD015E0DDE90001C4E900010AE00098F4
:10C48000206006E0009800B2208002E0009840B2F0
:10C490002070C117DDE9002350405940084301D006
:10C4A00000207CBD01207CBD7CB50D46144669464C
:10C4B00000F09EF9002820D02879082807D0002114
:10C4C000042809D002280AD001280CD014E0DDE9A4
:10C4D0000001C4E9000109E00098206006E000982E
:10C4E00080B2208002E00098C0B22070DDE9002315
:10C4F00050405940084301D000207CBD01207CBD44
:10C500007CB50D461446694600F072F9002821D02A
:10C510002979082908D00098C21704290BD00229CC
:10C520000DD001290ED014E0DDE90002C4E90002BB
:10C530000146134609E0C3170146206005E001B239
:10C54000218001E041B22170CB1741405340194393
:10C5500001D000207CBD01207CBD70B50D46064693
:10C5600014461146284600F080FA224629463046F5
:10C57000BDE8704000F03EB838B50C46042269466C
:10C5800000F086FA002806D09DF80310009861F3A9
:10C590001F602060012038BD1CB50C46082269468A
:10C5A00000F076FA002824D09DF801109DF80020B4
:10C5B0009DF80230080E42EA012242EA034240EAB4
:10C5C00013409DF803309DF8041040EA13200843FF
:10C5D0009DF8051042EA036240EA01209DF806102A
:10C5E00040EA01409DF8071040EA0160C4E90020DC
:10C5F00001201CBD2DE9F04F04469DB000200090A5
:10C60000064601904FF0FF3A0AA800F04FF94FF0AC
:10C61000010BE94682E012AB05AA06A9204600F00C
:10C62000C9F850B10AA8059900F051F960B10B980A
:10C63000407810F0300F53D060E09DF8480000289B
:10C6400070D11DB0BDE8F08F0598B04242D30B9D6C
:10C650000AAE0B98407800F00F00082812D0304640
:10C6600000F04CF90B98A842F3D156460599B14217
:10C6700030D3D4F8088009919DF8181008910E99CC
:10C680000D6820E00B980678F0E729680F682FB155
:10C69000DDE9083229462046B84711E0119489683F
:10C6A000DDE90872097891420CD1294617A8FEF7F6
:10C6B0004EF985F80CB017AA39461198FDF7D7FD49
:10C6C0000028BED0AD6815B1A1684145DDD0A16894
:10C6D000414523D19DF81810204600F015FA1BE0C3
:10C6E0000C9840280AD200F01F010BFA01F00C99B7
:10C6F0004A0959F82230034349F82230E5682DB140
:10C700000AAB9DF8182020460599A8470AAA9DF86B
:10C7100018102046FDF7ABFD002892D0A068002835
:10C720007FF479AFDDE90B0445780AA800F0E6F85C
:10C730000028F7D115F0300F03D10B98007800B125
:10C74000641CC4B10020494605E000BF51F8202018
:10C75000521C0ED1401CB0EB541FF7D3600959F89E
:10C76000201004F01F00C0F120022AFA02F08142DA
:10C7700001D0002065E7012063E71CB50C4669463F
:10C7800000F036F8002814D0DDE90002C10709D016
:10C7900051084FEA30006FEA00026FEA0100C4E975
:10C7A000002004E051084FEA3000C4E900014FF0D6
:10C7B00001001CBDF8B507460020187008700E4631
:10C7C00010601C4615466946384600F036F80121CF
:10C7D00040B1009850B1C10800F0070029603070E6
:10C7E0000120F8BDB86808B10020F8BD2170FBE752
:10C7F0002DE9F8430026884681463446354604E054
:10C80000402E02D30020BDE8F8836946484600F078
:10C810006BF90028F7D09DF80070324607F07F00D2
:10C82000C10FFBF733FD29430443F61D0D463806BF
:10C83000E6D4C8E900410120E5E7F8B50E46074611
:10C84000694600F051F900280AD09DF80040200602
:10C8500016D5072504F07F0403E0202D01D3002026
:10C86000F8BD6946384600F03FF90028F8D09DF839
:10C87000001001F07F00A8400443ED1D0806ECD431
:10C8800001203460F8BD00005968064A8968914269
:10C8900006D1D0E90110044A401E491CC2E900102B
:10C8A00070470000BCD5070090210020C260002323
:10C8B0000160C0E901138B781A44026191F90330D9
:10C8C0001A4442610878002800D00120704770B5F2
:10C8D00045680E46044660680178B14206D140784A
:10C8E00000F00F00082801D0012070BD204600F0A4
:10C8F00005F86068A842EED1002070BD30B54168EF
:10C900000A785AB101F10C0343600A7B42B14C78BA
:10C910000A79C4F30115032D07D00BE0002030BDC8
:10C92000C2680168FFF7C2FFF8E75D78C5F301153B
:10C93000032D07D00225B5EB141F09D14C7914FB48
:10C9400002F209E08D7804690022641B046103E0AF
:10C95000B5EB941F00D10422497811F0300F02D1B9
:10C960008168491C81609C780169214411440161FE
:10C9700093F9032011444161012030BD30B5416875
:10C98000002487B0497801F00F02082A11D08A09E3
:10C990001ED00222B2EB911F09D10269C1F301112D
:10C9A0000229146001D0032901D14069047007B045
:10C9B00030BD0069056808E02C7329466846FDF71C
:10C9C000C6FF6846FFF7DAFFAD68002DF4D1EEE749
:10C9D000C1F30111012912D00229E6D00329E4D0C4
:10C9E0004268517801F00F0107290BD0916881B19D
:10C9F0001279006907B0BDE83040FBF756BC4169C9
:10CA00000C70EDE70169906807B0BDE8304000F0B8
:10CA10002CB81179006907B0BDE83040FBF75EBC67
:10CA200010B5034B002408C080E8160010BD0000BC
:10CA3000C3A0070038B50D4604466946FFF7FDFE62
:10CA400000280BD0D4E90002D4E90213C5E90002A2
:10CA5000C5E902130098814201D2002038BDA860C8
:10CA6000A168081AA060012038BD00B50A4687B049
:10CA700001466846FFF71AFF002807D06846FFF70F
:10CA80007DFF6846FFF73AFF0028F7D107B000BDE9
:10CA90007FB514460546A9B9124A2868904208D1C4
:10CAA00010E0102269462846FFF7F2FF002807D061
:10CAB000103C102CF5D8224669462846FFF7E8FFBF
:10CAC00004B070BDA868A04201D20020F8E72B682E
:10CAD0002246284698470028F2D0A868001BA86084
:10CAE0000120EDE7C3A0070010B5044680680028C8
:10CAF00009D02368012220469847002803D0A06867
:10CB0000401EA060012010BD38B5002439B10129B4
:10CB100012D0022912D005291DD0002038BD0546AB
:10CB2000012269462846FFF7B3FF90B19DF8000047
:10CB30000006F5D4012038BD08220DE005466946FF
:10CB4000FFF77BFE28B100212846009AFFF7A0FFDF
:10CB500038BD204638BD0422BDE838400021FFF72B
:10CB600097BF000070B50E490446D1F8E4000828CC
:10CB700013D0D1F8E0200244082A00D3083A401C20
:10CB8000C1F8E400C2EBC20001EB800005461C21A5
:10CB9000FBF7A4FB0120256070BD002070BD0000E4
:10CBA000242C0020F0B41F48D0F8E41000292ED027
:10CBB000D0F8E0101C4DC1EBC10100EB810401264F
:10CBC0002E70207910B1012819D111E0D4E90501A6
:10CBD000401A142800D31420B6EB900F01D282081B
:10CBE00000E001222069E3680844194429DF03E0DA
:10CBF000D4E90301084428DF58B1112804D02046A5
:10CC0000F0BC0321FDF7B4BD002028706E70F0BCAD
:10CC10007047E8780028FAD1F0BC00210220FFF725
:10CC200089B80000242C0020F42100200448017859
:10CC3000002904D14078002801D1FFF7B3BF704725
:10CC4000F421002010B510461A46FBF72EFB0020F9
:10CC500010BD10B510461A46FBF727FB002010BD8B
:10CC60002DE9F0411E681C461546074621B10129F1
:10CC700018D0052923D119E000202060401C206035
:10CC8000B0421CD8012229463846FFF701FF002890
:10CC900006D015F8010B000601D52068EEE701204B
:10CCA000BDE8F08108200246186002E00420024638
:10CCB000186029463846BDE8F041FFF7E9BE00207C
:10CCC000EEE700000A4810B5007900280ED0FEF704
:10CCD0000FFFBFF34F8F07480168074A01F4E06177
:10CCE00011430160BFF34F8F00BFFDE710BD00008F
:10CCF000802100200CED00E00400FA0510B5FEF7DD
:10CD000017F9002814D00B4A00210B48FCF77AFFD2
:10CD100008B1FCF7EFFE084800224FF4A02100689C
:10CD2000FCF7ACFF002803D0BDE81040FCF7E2BEE2
:10CD300010BD000079B8070090D707002DE9F04139
:10CD4000124D0646904628880A46A0F57F41FF39D5
:10CD500019D0287AC00716D00D4C60200121207010
:10CD600003206070A170E11C104600F0B5FBC71CE9
:10CD7000E119404600F0B0FBC219B1892888BDE82E
:10CD8000F04100F031B90820BDE8F081B821002061
:10CD9000082600202DE9F047154D064690462888C4
:10CDA0000A46A0F57F419946FF391ED0287AC00770
:10CDB0001BD0104C60200621207061700120A070F3
:10CDC000E11C104600F088FBC71CE119404600F04A
:10CDD00083FB0744E119484600F07EFBC219B18984
:10CDE0002888BDE8F04700F0FFB80820BDE8F087CC
:10CDF000B8210020082600202DE9F041114D0746FA
:10CE00002888A0F57F43FF3B0BD0287AC00708D0C5
:10CE10000D4C6020032620706170A2700B2A03D095
:10CE200009E00820BDE8F081FDF7CAFCE0700426A7
:10CE30000020FDF7CDFCB98932462888BDE8F041D5
:10CE400000F0D2B8B82100200826002070B50126D5
:10CE500070044FF0E0210025C1F88001084C40101B
:10CE6000C4F84803C4F8080366602F20FDF7CCFF20
:10CE7000A660044C2F20A560FDF7C6FFA57070BD0D
:10CE800000100140DC21002010B50446FCF7B6FD7F
:10CE900068B10C4A936804F01F00012181406009C9
:10CEA00043B152F820308B4342F8203007E042F281
:10CEB000010010BD800000F1E020C0F880110020CA
:10CEC00010BD0000182C002010B50446FCF796FD9C
:10CED00040B1002C09DA04F00F0000F1E02090F8D6
:10CEE000140D06E042F2010010BD04F1E02090F8BC
:10CEF00000044109082912D289B101290FD004295F
:10CF00000DD00C4A936804F01F010120884061098C
:10CF100043B152F82130034342F8213007E042F296
:10CF2000020010BD890001F1E021C1F800010020DC
:10CF300010BD0000182C002038B50021012558B183
:10CF400001280ED003280BD107210020FEF786FE12
:10CF5000BDE83840FEF71EBE4FF0E020C0F880511B
:10CF600038BD8DF800106846FCF7DCFE064C2078D2
:10CF700008B9FEF7E9FDE068401CE060A5709DF887
:10CF80000000FCF7F3FE38BDF82A00203EB5044649
:10CF900009496846FFF78AF808E000BFD0E9002198
:10CFA0002046904730B16846FFF797F8029800286E
:10CFB000F4D13EBD11203EBDF0D807003EB5044679
:10CFC00008496846FFF772F807E000BFD0E9002182
:10CFD000204690476846FFF780F802980028F5D170
:10CFE0003EBD0000FCD8070007B584B000220092C7
:10CFF000ADF8001001218DF8021006A90291034935
:10D00000039101926946A6DF07B000BD0826002003
:10D0100070B516460D46040007D035B1206C80224D
:10D0200000213828225403D307E00E2070BD21547C
:10D03000401C3828FBD30BE02154401C4028FBD374
:10D040002146084600F096F838212046FBF746F9BD
:10D05000216CD4E912304A0FC900383459185041B4
:10D06000C4E90410227CE2710A0A42EA0062A27159
:10D070000A0C42EA00426271020242EA1160207127
:10D080006069E070010AA170010C6170000E04F883
:10D0900038092146084600F06DF84FF00002EEB165
:10D0A000E06ED100C840A854A36ECB40A81803710D
:10D0B000636ECB400372236ECB400373E36DCB40B2
:10D0C0000374A36DCB400375636DCB400376236D72
:10D0D000CB40521C0377042AE2D31FE018235042AE
:10D0E000216D03EBC000C140A954666DC640A9186C
:10D0F0000E71A66DC6400E72E66DC6400E73266EAA
:10D10000C6400E74666EC6400E75A66EC6400E769C
:10D11000E66EC640521C0E77042AE0D3002070BD94
:10D12000A8B100210164C0E912110A4901650A4948
:10D1300041650A4981650A49C1650A4901660A498A
:10D1400041660A4981660A49C166002070470E207F
:10D150007047000067E6096A85AE67BB72F36E3CF4
:10D160003AF54FA57F520E518C68059BABD9831FB2
:10D1700019CDE05B2DE9F04FC8B0002213466F4691
:10D18000CC181B1D2568E4782DBA25F0FF05254332
:10D1900047F82250521C102AF2D31BE007EB820101
:10D1A00051F8083C4FEA734484EAF34484EA932438
:10D1B00051F83C3C4FEAF31585EAB34585EAD303C1
:10D1C000234451F81C4C51F8401C2144194447F8A1
:10D1D0002210521C402AE1D3036D4793416D4691C2
:10D1E000846D4594C26D44929246026E4392456EA0
:10D1F0004295A946856E4195C66E4096B346002677
:10D200004FEAB21787EAF22787EA726C02EA090747
:10D2100025EA020887EA0807BC44204F57F8268011
:10D2200008EB0B07BC445DF82670AB460CEB070E11
:10D230004FEAB30787EA733787EAB35C81EA0407EA
:10D240004D4601EA040891461F400AEB0E02A24631
:10D2500087EA08070C46BC441946761C0EEB0C0303
:10D26000402ECDD3479E33440365469B1944416508
:10D2700045992144816544995144C16543991144BC
:10D280000166429949444166419929448166409921
:10D290005944C16648B0BDE8F08F0000DCD70700F4
:10D2A0002DE9F04116460F46040004D006B317B12D
:10D2B0000025A8461AE00E20BDE8F081216C785DBB
:10D2C0006054206C401C206440280ED12146084642
:10D2D000FFF750FFD4E912014FF40072801841F1BA
:10D2E0000001C4F84080C4E912016D1CB542E5D3C9
:10D2F0000020E1E7002801D1FCF7F2BE70470000F2
:10D300002DE9F84F1D4C00256846D4E901A6FDF72C
:10D31000B3F9002738B30023009A61681CE0D1F804
:10D3200000C00846944503D9ACEB02020A6015E040
:10D33000A2EB0C0263440760D0F80CC0C1698146BF
:10D34000BCF1000F08D006EB030828F07F48C0E9C5
:10D35000018CC9F81C5005460029E0D128466160BF
:10D36000FDF720FB03E02846FDF71CFB10B15046FB
:10D37000FCF7CAFEE770BDE8F88F0000DC21002052
:10D380000D4B10B5596831B102680C68A24204D83F
:10D39000A21A0A60C161586010BD0B4603E00B463B
:10D3A000C969121B21B10C689442F8D3A41A0C600D
:10D3B0000260C161D86110BDDC2100202DE9F0417F
:10D3C000144E77683D462C4603E0844204D025463F
:10D3D000E469002CF9D11BE0D4B1A5420BD1F86966
:10D3E000706040B90C49012088600021B160F07084
:10D3F0002F20FDF709FD2168E069E86110B102689E
:10D40000114401607068874202D00120BDE8F081BC
:10D410000020FBE7DC210020001001407CB506461F
:10D4200000240D468DF800406846FCF77BFC01A8FF
:10D4300000F060F870B10570094946609DF804007D
:10D4400048709DF80000FCF791FC1420FCF7CAF826
:10D4500020467CBD04249DF80000FCF787FCF7E71C
:10D460000C2B00202DE9F041194D6C68002C2CD0BC
:10D47000184800270068A968B846401A20F07F467F
:10D480002068B0420CD82146361A0744E469087C6B
:10D4900020B181F81080886949698847002CEFD154
:10D4A00029786878814206D1401CC0B26870022891
:10D4B00001D185F80180064869780C3040F8217068
:10D4C000BDE8F0411420FCF78DB8BDE8F081000004
:10D4D000DC210020041501400870020A4A70020C89
:10D4E0008A70000EC870042070470020704700202A
:10D4F000704700000A494A788B78521CD2B2934296
:10D5000000D100220B78934201D1002070470270B5
:10D51000487800EB400001EBC000001D70470000A0
:10D520000C2B00202DE9F8430C4E1D468046134677
:10D530000C460120089F3070AA0819462046FEF7C5
:10D54000D3FC002030702B46224601214046009734
:10D55000FDF7F2F80020BDE8F8830000F02100207C
:10D560002DE9F84307461C4615460E466846DDF889
:10D570002080FFF7F7FA60B1009800210171076081
:10D58000C0E90464C0E90285FFF750FB0020BDE854
:10D59000F8830420FBE70000010100000100000007
:10D5A0000000000002050000210000000000000053
:10D5B000000000000000000000000000011104FC59
:10D5C0000400000000000000021104FC0400000040
:10D5D00000000000032104FC04040000000000001F
:10D5E000041101FF0100000000000000051102FE0F
:10D5F0000400000000000000061104FC040000000C
:10D6000000000000071104FC0400000000000000FE
:10D61000081701FF2200000098D50700091001FF3C
:10D620000100000096D50700000000000000000087
:10D6300000000000010100000400000000000000E4
:10D64000000000000000000000000000011101FFC8
:10D650000100000000000000021702FE640000004C
:10D66000BCD50700031704FC0400000034D60700F3
:10D6700000000000000000000000000001070000A2
:10D68000700000004CD607000201000001000000FD
:10D690000000000003050000410000000000000041
:10D6A000000000000000000000000000011704FC62
:10D6B000700000004CD60700021704FCB400000004
:10D6C0007CD6070000000000000000000000000001
:10D6D000050004050000000054250020334AB6CDA3
:10D6E000DD2B3480AAEFED9E3DCD9E255D52A4D961
:10D6F000C974C54C57CC4C8366AD90B47DC15B6595
:10D7000095DFAD343E2ED2125C0401758D1A485956
:10D71000100A685D58F95F7BD31809FB1C0C1314C1
:10D720000D0E0F10020000000000000000000000BD
:10D7300000000000000028000000000050EADA307D
:10D740008883B89F604F15F30000C98E38260020EB
:10D7500001000000000000000000000000000000C8
:10D7600002000000000000000000000000000000B7
:10D7700003000000000000000000000000000000A6
:10D780000400000000000000000000000000000095
:10D79000D82A0020000000007000000000100000E7
:10D7A00004000000C1A80700EBD4070045CC070027
:10D7B00025D50700B9A607000DA907000010000035
:10D7C00004000000D9A80700EFD4070053CC0700DD
:10D7D00061D50700FDA6070019A90700982F8A4206
:10D7E00091443771CFFBC0B5A5DBB5E95BC25639B3
:10D7F000F111F159A4823F92D55E1CAB98AA07D8CB
:10D80000015B8312BE853124C37D0C55745DBE72ED
:10D81000FEB1DE80A706DC9B74F19BC1C1699BE46D
:10D820008647BEEFC69DC10FCCA10C246F2CE92DFD
:10D83000AA84744ADCA9B05CDA88F97652513E9821
:10D840006DC631A8C82703B0C77F59BFF30BE0C628
:10D850004791A7D55163CA0667292914850AB727B6
:10D8600038211B2EFC6D2C4D130D385354730A6553
:10D87000BB0A6A762EC9C281852C7292A1E8BFA22A
:10D880004B661AA8708B4BC2A3516CC719E892D192
:10D89000240699D685350EF470A06A1016C1A41915
:10D8A000086C371E4C774827B5BCB034B30C1C3914
:10D8B0004AAAD84E4FCA9C5BF36F2E68EE828F74D3
:10D8C0006F63A5781478C8840802C78CFAFFBE90ED
:10D8D000EB6C50A4F7A3F9BEF27871C680DA0700AA
:10D8E00088DA0700000000000000000000100007B8
:10D8F000DCD80700ECD807000800000014D90700A6
:10D9000024D907000800000024D9070034D90700F3
:10D9100008000000A8DA0700B8DA070000000000DD
:10D920000000000098DA0700A8DA070000000000F5
:10D9300000000000000000000000000000000000E7
:10D940000000000078DA070080DA0700802100205C
:10D950008005000034D907004CD9070008000000FA
:10D9600088DA070098DA07000000000000000000D5
:10D9700060D9070070D907000800000001C5070042
:10D98000A9C4070051C40700C7C30700CDC30700DF
:10D9900089C30700D3C3070011C4070000000000BB
:10D9A00008200001FFFFFFFFFFFFFFFFFFFFFFFF5A
:10D9B0000000000000000000000000000100000066
:10D9C000FFFFFFFF512563FCC2CAB9F3849E17A76E
:10D9D000ADFAE6BCFFFFFFFFFFFFFFFF0000000006
:10D9E000FFFFFFFF96C298D84539A1F4A033EB2D75
:10D9F000817D0377F240A463E5E6BCF847422CE161
:10DA0000F2D1176BF551BF376840B6CBCE5E316BA4
:10DA10005733CE2B169E0F7C4AEBE78E9B7F1AFE68
:10DA2000E242E34F4B60D2273E3CCE3BF6B053CCB4
:10DA3000B0061D65BC86987655BDEBB3E7933AAA50
:10DA4000D835C65ACD8407005F9507007593070047
:10DA5000C4DA07008021002098000000DC9907004C
:10DA60005CDB070018220020F82A0000EC99070070
:10DA7000499E0700099E0700A99E070000000000BC
:10DA8000F5BC070000000000F5D207000000000010
:10DA900035BD0700000000003DBF0700000000008A
:10DAA00071C007000000000039CF0700000000002F
:10DAB00015BD07000000000000000000030000008A
:10DAC00029B907000001000000000000000000006C
:10DAD000000000000000000000000000DCD607008D
