:020000040002F8
:10300000F0560020E9330200F1330200F3330200EE
:10301000F5330200F7330200F9330200000000002C
:10302000000000000000000000000000FB33020070
:10303000FD33020000000000FF33020001340200F3
:103040008D37020003340200013D02000334020008
:103050000334020003340200B535020009380200CF
:10306000033402000334020003340200033402007C
:10307000033402000334020003340200033402006C
:1030800003340200E5370200033402000334020077
:10309000B139020003340200B539020003340200E2
:1030A0000334020003340200B53C02000334020082
:1030B000033402000334020000000000000000009E
:1030C000033402000334020003340200033402001C
:1030D0000334020003340200033402000000000045
:1030E00000000000000000000000000000000000E0
:1030F00000000000000000000000000000000000D0
:1031000000000000000000000000000000000000BF
:1031100000000000000000000000000000000000AF
:10312000000000000000000000000000000000009F
:10313000000000000000000000000000000000008F
:10314000000000000000000000000000000000007F
:10315000000000000000000000000000000000006F
:10316000000000000000000000000000000000005F
:10317000000000000000000000000000000000004F
:10318000000000000000000000000000000000003F
:10319000000000000000000000000000000000002F
:1031A000000000000000000000000000000000001F
:1031B000000000000000000000000000000000000F
:1031C00000000000000000000000000000000000FF
:1031D00000000000000000000000000000000000EF
:1031E00000000000000000000000000000000000DF
:1031F00000000000000000000000000000000000CF
:10320000DFF80CD000F098F900480047557902002B
:10321000F056002030B4044654E8000F0D4644E850
:103220000053002BF8D1156030BC704730B4044611
:1032300054E8000F40EA010544E80053002BF7D1A1
:10324000156030BC704730B4044654E8000F00EA03
:10325000010544E80053002BF7D1156030BC7047DE
:1032600030B4044654E8000F80EA010544E80053F6
:10327000002BF7D1156030BC704730B4044654E8D9
:10328000000F00EB010544E80053002BF7D1156057
:1032900030BC704730B4044654E8000FA0EB010581
:1032A00044E80053002BF7D1156030BC7047000094
:1032B00030B4044654E8000F0D4644E80053002B98
:1032C000F8D1156030BC704730B4044654E8000FA4
:1032D00040EA010544E80053002BF7D1156030BCEB
:1032E000704730B4044654E8000F00EA010544E892
:1032F0000053002BF7D1156030BC704730B4044642
:1033000054E8000F80EA010544E80053002BF7D190
:10331000156030BC704730B4044654E8000F00EB31
:10332000010544E80053002BF7D1156030BC70470D
:1033300030B4044654E8000FA0EB010544E8005304
:10334000002BF7D1156030BC7047000030B4044644
:1033500054E8000F0D4644E80053002BF8D11560E7
:1033600030BC704730B4044654E8000F40EA010511
:1033700044E80053002BF7D1156030BC704730B4DF
:10338000044654E8000F00EA010544E80053002B0E
:10339000F7D1156030BC704730B4044654E8000FD4
:1033A00080EA010544E80053002BF7D1156030BCDA
:1033B000704730B4044654E8000F00EB010544E8C0
:1033C0000053002BF7D1156030BC704730B4044671
:1033D00054E8000FA0EB010544E80053002BF7D19F
:1033E000156030BC7047000006488047064800471B
:1033F000FEE7FEE7FEE7FEE7FEE7FEE7FEE7FEE7A5
:10340000FEE7FEE7B9390200013202002DE9F05F64
:103410000546002092469B46884606468146402443
:103420001BE0284641464746224600F075F85346C1
:103430005A46C01A914110D311461846224600F050
:103440005CF82D1A67EB01084F4622460120002147
:1034500000F053F817EB00094E41201EA4F10104BF
:10346000DFDC484631462A464346BDE8F09F00006F
:1034700000487047ECD3020040EA01039B0703D0E9
:1034800009E008C9121F08C0042AFAD203E011F8A3
:10349000013B00F8013B521EF9D27047D2B201E065
:1034A00000F8012B491EFBD270470022F6E710B549
:1034B00013460A4604461946FFF7F0FF204610BDA2
:1034C000421C10F8011B0029FBD1801A704730B54F
:1034D00004460020034600E05B1C934203D2E05CFC
:1034E000CD5C401BF8D030BD034611F8012B00F82D
:1034F000012B002AF9D118467047202A04DB203A14
:1035000000FA02F1002070479140C2F1200320FA36
:1035100003F3194390407047202A04DB203A21FA34
:1035200002F00021704721FA02F3D040C2F12002DC
:103530009140084319467047064C074D06E0E06885
:1035400040F0010394E8070098471034AC42F6D3EA
:10355000FFF75AFECCDA0200ECDA020070B58C18E4
:1035600010F8015B15F0070301D110F8013B2A1197
:1035700006D110F8012B03E010F8016B01F8016B84
:103580005B1EF9D12B0705D40023521E0DD401F880
:10359000013BFAE710F8013BCB1A921C03E013F849
:1035A000015B01F8015B521EF9D5A142D8D300207E
:1035B00070BD00002DE9F04700268CB0DFF8609167
:1035C000B0464FF48075012437460696284605F02C
:1035D00041FB38B1D9F80403204203D0284605F056
:1035E0002FFB26432D1D64007F1CADB2082FEDD3A9
:1035F0004FF4BE74204605F02DFB48B1204605F07F
:103600001FFB46F0004606AA0121002005F004FB3E
:10361000444D16F0FF0F15D00127002437420DD07E
:1036200009EB8401D1F81005D1F81015C0F304207E
:1036300055F82420C1F3014102B190477F00641C7A
:10364000082CEBD3002E67DA4FF0FF30CDE908806D
:1036500000263446281910F8507F90F9000027F012
:10366000C008401C44D009A9404604F064FC58B38B
:103670004FEA9719404602F0A9FA55F820701FB199
:10368000B9F1030F03D00FE0B9F1030F30D108A84F
:103690004FEAD80208F00703815C4FF0010C0CFAE6
:1036A00003FC41EA0C0181544FF0A04101EB88007A
:1036B000D0F8000706A9C0F3014A404604F03BFCDD
:1036C00018B1BAF1020F03D012E0BAF1030F0FD113
:1036D000B9F1030F08D1BAF1020F1BD00221404605
:1036E00005F070FA761CF6B217B149464046B84765
:1036F000641C042CAED3002E0ED06A46012100209B
:1037000005F08AFA06990098884205D00690089834
:1037100009909DE70321E2E70CB0BDE8F0870000C7
:1037200000600040842B002000F01F020121914026
:103730004009800000F1E020C0F88012704700F0DE
:103740001F02012191404009800000F1E020C0F8F3
:103750000011704700F01F020121914040098000D4
:1037600000F1E020C0F8001270474907090E002858
:1037700006DA00F00F0000F1E02080F8141D704719
:1037800000F1E02080F80014704700002DE9F041BE
:103790004FF48077384604F08BFC0124104EA507C7
:1037A00048B1384604F08BFC0120C5F8080374705A
:1037B000002002F02FFA4FF48277384604F078FCAC
:1037C00000280BD0384604F07AFC0220C5F8080324
:1037D000B470BDE8F041012002F01CBABDE8F081F0
:1037E000702B002007480021C0F84011C0F8441198
:1037F000C0F84811C0F84C11C0F80011C0F804110D
:1038000008F060BF001001402DE9FE434FF48278BC
:10381000404605F035FE4C4F00254C4C012600B3C8
:10382000404605F035FE94F82E0010B194F82F10A4
:10383000D1B18DF80050616801912189ADF808106F
:10384000E26832B1218B618362602181E56010B151
:1038500002E0257400E03E6021686846884784F8ED
:103860002F5094F82E0060B34FF48077384605F05F
:1038700007FE30B3384605F00BFE628B94F82D102E
:103880008A420AD9A2EB010080B260832289A2EBAE
:103890000000626802EB400005E007D1E06828B153
:1038A00084F82F60658305F0A5FD04E08A4202D10B
:1038B00084F82F606583404605F0EAFD2248001D2C
:1038C00006604FF48877384605F0DAFD48B138468F
:1038D00005F0DEFD257402208DF8000021686846A1
:1038E00088474FF48A77384605F0CAFD28B1384634
:1038F00005F0CEFD2574BDE8FE834FF000484FF47F
:103900008C7967691DE000BFB7FA87F028FA00F1EB
:1039100009EB80058F43284605F0B2FD88B12846A3
:1039200005F0B6FDA5F58C75E8088DF8040045F3A3
:103930008000401C8DF800608DF805002168684605
:103940008847002FE0D1D6E700700040FC2B002014
:1039500000F0E4B970B50E46144900EB400001EBED
:10396000C0051446E86A183520B101280FD0022896
:1039700005D113E0284600F005FAA04201D2002448
:1039800011E022463146284600F034FA0BE0284682
:1039900000F0F8F9A042F4D20446F2E73146284696
:1039A00000F0FBF90446204670BD0000683400209A
:1039B00008F0D6BD05F0E8BEF0B5AE480023021D04
:1039C00001780125101D4FF0805406290BD116787F
:1039D000360708D10678C6F30316032E06D0042E48
:1039E00004D0052E02D0062907D00EE0B4F82463D7
:1039F000A14FC6F304263E6002E01678360704D1D4
:103A00000678C6F30316032E02D0062904D00FE071
:103A10009B4F9A4E7E670EE01678360708D10678DF
:103A2000C6F30316032E06D0042E04D0052E02D0B2
:103A3000062907D00EE0D4F84462924FC6F342360E
:103A40003E6002E01678360704D10678C6F3031606
:103A5000032E02D0062906D011E08B4E376827F0DE
:103A6000807737600EE01678360708D10678C6F3FF
:103A70000316032E06D0042E04D0052E02D00629EC
:103A80000AD011E04FF08046C6F80C31C6F810316C
:103A90007C4E361F336002E01678360704D1067874
:103AA000C6F30316032E02D0062905D00CE0754F8D
:103AB000032664373E600AE01678360704D106789C
:103AC000C6F30316032E02D006290DD014E06F4F63
:103AD00005263E606D4E783635606C4E0836336094
:103AE0003F263F1D3E6002E01678360704D1067877
:103AF000C6F30316052E02D0062957D062E0644EA5
:103B00003668644F3E60624E361D36683F1D3E602B
:103B10005F4E083636683F1D3E605D4E0C36366897
:103B20003F1D3E605A4E103636683F1D3E60584E6F
:103B3000143636683F1D3E60554E18363668554F70
:103B400020373E60524E1C3636683F1D3E60504E58
:103B5000203636683F1D3E604D4E243636683F1D88
:103B60003E604B4E283636683F1D3E60484E2C3630
:103B700036683F1D3E60464E30363668454F40370A
:103B80003E60434E343636683F1D3E60404E383608
:103B900036683F1D3E603E4E3C3636683F1D3E60F7
:103BA0003B4E403636683F1D3E6002E016783607D1
:103BB00008D10678C6F30316032E06D0042E04D0CF
:103BC000052E02D0062907D019E0D4F85812324A3F
:103BD00001F04F01116002E0117809070FD1007860
:103BE000C0F30310032803D0042801D0052806D110
:103BF0002A480168C90702D06FF00101016022481C
:103C00007438016841F470010160BFF34F8FBFF356
:103C10006F8F4FF01021D1F80002002803DBD1F89C
:103C20000402002822DA1E4A15601E480468002C8F
:103C3000FCD01524C1F800420568002DFCD0C1F865
:103C4000044201680029FCD0136001680029FCD0FF
:103C5000BFF34F8F0C48F0380168134A01F4E0615C
:103C600011430160BFF34F8F00BFFDE710490F48BC
:103C70000860F0BDE00F00F0403501400DF0ADBA36
:103C800000C007403C050040FCED00E0105600403D
:103C90000404001020C50040E40E00400004004071
:103CA00004E5014000E401400400FA050090D0035F
:103CB000882200202DE9F84306270F4C00254FF4F9
:103CC000A0784FF48036A94608EB850006FA05F186
:103CD00022585AB1D4F804230A4207D044F800907D
:103CE0002158064A00915168126890476D1CEDB248
:103CF000BD42E9D3BDE8F88300A001402C2C002090
:103D00000448017F04480029024901D008F006BE9A
:103D100008F075BDDC2B00200020004010B5124CCF
:103D200002202061606111A0A06104F17800E061CF
:103D30004FF4007020620020A06260620BA1A164B9
:103D4000E06204F51E71E1641021A065C4E914105D
:103D5000E06509A1E01DFFF7C7FB08A12046FFF7BA
:103D6000C3FB2020A07110BD683400205465726D23
:103D7000696E616C0000000052545400534547477F
:103D8000455200000269C1688A4203D88068401A1F
:103D9000104400E0501A401E70472DE9F047C468F7
:103DA0001746894606464FF000083069A04201D9FF
:103DB000051B02E0B168201A0D1AB0686D1E001BC9
:103DC000A84200D80546BD4200D33D4670682A4649
:103DD00020444946FFF750FBB0687F1B2C44A844A1
:103DE000A944A04200D10024F460002FDDD1404658
:103DF000BDE8F0872DE9F04104468846D4E9020782
:103E0000C51BE168606816460844B54206D94146BC
:103E1000FFF732FBB819E060BDE8F0812A46414661
:103E2000FFF72AFB761B08EB050132466068FFF7B7
:103E300023FBE660F0E702E008C8121F08C1002A71
:103E4000FAD170477047002001E001C1121F002A1B
:103E5000FBD170470121202803DA81400548014049
:103E600003E0402802DA2038814009B10120704780
:103E700000207047FC06FFBD10B560B159B1027853
:103E80000B785208B2EB530F05D10622401C491C97
:103E9000FFF71DFB08B1002010BD012010BD8007F9
:103EA00001D00020704701207047C3688B4206D8BC
:103EB00011440069491E814201D801207047002049
:103EC000704770B58EB00E4605461C216846FFF758
:103ED000ECFA00249DF80000019420F0100040F05E
:103EE0000A008DF8000003940494059406940C9441
:103EF000B0798DF83000F0798DF831009DF83200FE
:103F0000142120F00600801C20F019008DF83200EA
:103F100095F850008DF8360041F20640ADF83400B7
:103F200007A8FFF7C2FA0DA807900CA80890012077
:103F3000ADF824000620ADF82640ADF82800A8888A
:103F400005F12E0307AA6946A2DF0EB070BD10B5B9
:103F500001220221002001F045FC08B1072810D100
:103F600007220221012001F03DFC08B1072808D1F9
:103F700000210A22084601F035FC08B1072800D1CB
:103F8000002010BD00B5ABB04C20ADF8A000174824
:103F90002A901720ADF8A400A0216846FFF785FA03
:103FA00002208DF8000001208DF8020006218DF816
:103FB00003100E49ADF810002E39059128A918916B
:103FC0008DF87C00642022900020239008482690E1
:103FD0006946084800F04EFB08B100F0E3F8012103
:103FE000044800F044FB2BB000BD00004821002035
:103FF000E59802009C23002010B550B10A48032127
:10400000008801EB004009A104F0D2FF07F066F838
:1040100003E00321094800F033FC002803D0BDE889
:10402000104000F0BFB810BD20230020457261731E
:104030006520626F6E647321000000009C230020E5
:1040400070B58CB015460E4600236C46C3F10F01C7
:10405000415CE1545B1C102BF8D30D2104F11000DE
:10406000FFF723FA0020C0F10F02315C2244401C0C
:1040700011740328F7D3684643DF0020C0F10F0115
:10408000214491F820102954401C0328F6D30CB089
:1040900070BD022001F096BA70B50024064D06E00E
:1040A0006868012110F8340004F062F9641C287873
:1040B0008442F5D3002070BDE0210020F8B51546FC
:1040C0000C460646052A01D20720F8BD04F036FA50
:1040D00018B904F005FA0028F7D1104900204E6005
:1040E0000C70C1E902500E4D08610DE006EBC400F2
:1040F0006968009181788DF801100078094A694655
:1041000004F088F90028E0D1641EE4B2EED2BDE8E4
:10411000F840054A0021024800F096B8E02100204E
:104120002CD10200216B02003D5E0200134C0121E4
:10413000208801EB004012A104F03AFF05F00CF8D2
:1041400004F060FE0028FBD10F480068C00700D0D3
:1041500000BE2088032101EB00400CA104F028FFE1
:10416000BFF34F8F0848E43801680D4A01F4E0615D
:1041700011430160BFF34F8F00BFFDE720230020F4
:10418000466174616C000000F0ED00E04869742045
:104190007765616B2068616E646C65720000000079
:1041A0000400FA050EB500210091CDE901106A4620
:1041B00044F20100FFF7BAFF0EBD000070B50228FF
:1041C0000DD1084C032508A1208805EB004004F020
:1041D000EFFE208810A105EB004004F0E9FE01206D
:1041E00070BD000020230020506F776572206D6144
:1041F0006E6167656D656E742077616E747320748F
:104200006F20726573657420746F20444655206D6D
:104210006F64652E00000000506F776572206D613D
:104220006E6167656D656E7420616C6C6F77656437
:1042300020746F20726573657420746F2044465536
:10424000206D6F64652E0000074B9B7823B12AB167
:1042500020B10068037C1BB108207047072070471D
:104260004174426100207047582C002070B507F05F
:10427000F5FA104800240B21047044700E4D817033
:1042800014206C602C706C70FFF74EFA072114201C
:10429000FFF76BFA1420FFF752FA08480460072171
:1042A0001120FFF762FA0548001F0068A86000208F
:1042B00070BD0000582C0020F4210020081501409A
:1042C0002DE9FC47DFF8789099F8023073B368B3B2
:1042D000052902D20720BDE8FC87436933B3437C3C
:1042E000012B25D0002704460025884616468DF868
:1042F0000050684600F038F801A808F029FCC8B161
:10430000012101700F4944600968C0E90218C0E941
:1043100004769DF8040089F801009DF8000000F083
:1043200047F81420FFF716FA2846D4E70820D2E70A
:104330000F46D8E704259DF8000000F039F8F3E7B0
:10434000582C0020041501400649897839B130B154
:10435000416921B100210174022108F08FB90820C0
:1043600070470000582C002030B5EFF3108172B672
:104370000D4A9468012324B10370002900D162B66C
:1043800030BD93604FF0E023D3F88051074C2540B7
:104390001560C3F88041D3F8844154605A17C3F8BC
:1043A000842100220270E8E7642D0020FC06FFBD96
:1043B0000B498A68002A11D000280FD1EFF3108032
:1043C00072B60B684FF0E022C2F800314B68C2F8B9
:1043D000043100228A60002800D162B670470000D4
:1043E000642D00202DE9F043044687B0008800F0DA
:1043F000E5FB8146208802F007FE214F8046667A61
:10440000208800223978A56800F02AFCB9F1000F55
:1044100033D06079400711D50721404606F0B6F841
:10442000A0B108218DF80C1021880590ADF80E1070
:10443000ADF8108003A801F03DFE07E02088B978B0
:1044400000F0F8FB10B1404602F0CAFD03208DF8E1
:1044500000002088ADF802006079C0F380008DF87C
:104460000400A079C0F380008DF805008DF8065097
:104470008DF80760684601F01DFE07B0BDE8F083C7
:10448000C02100202DE9FC4700251788064615802D
:1044900090F82D001446894630B13A4621464846E8
:1044A00000F0F6FB050009D1B0784FF00C0A18B304
:1044B0002088C846001DB84202D95046BDE8FC8796
:1044C000684679DF0028F9D12088032108F8001018
:1044D00020881921401C80B2208008F80010208814
:1044E000401C80B2208000EB0801BDF8000008F0FD
:1044F0008DFA218808442080F0780222C8B12188F2
:1045000096F9033001F1030C4846BC45D5D8425416
:1045100021884FF0010C491C89B2218000F801C0AC
:104520002188491C89B2218009F801302088401C6B
:1045300020807068B8B1218890F9003001F1030C37
:104540004846BC45B9D8425421880A22491C89B240
:10455000218042542188491C89B2218009F8013008
:104560002088401C2080308950B1CDE900474B465F
:104570000622022106F1080008F047FB05009DD144
:10458000308A50B1CDE900474B460722032106F19E
:10459000100008F03AFB050090D1308B50B1CDE906
:1045A00000474B461522142106F1180008F02DFB98
:1045B000050083D1306A30B13B462246494601F0BE
:1045C00093FB0500DBD1706A30B13B462246494679
:1045D00003F0F0FA0500D2D196F82C0038B13B4632
:1045E00022464946304607F057FC0500C7D13078CF
:1045F00038B13B4622464946304603F0ABFB050046
:10460000BDD128465AE7F0B50C4693B01F210726C6
:10461000ADF80010ADF80410002750B1C17849077B
:104620000DD56A4602A9FFF72DFF002808D102AD7B
:1046300002E00025ADF800706CB1E07810B13046B2
:1046400013B0F0BD01AA0AA92046FFF71BFF0028FE
:10465000F6D10AAA02E00022ADF80470BDF8040009
:10466000C3B2BDF80000C1B2284672DFE8E780F8A7
:104670002410704770B50D00044653D0F4B30120E8
:1046800020700026E670202205F17801201DFEF73B
:10469000F3FE84F82460D5F89800C4F8CC00D5F86F
:1046A0009C00C4F8D0004FF6FF70A4F8C800C4F80E
:1046B0002560A4F8296084F82B6004F130003C21C7
:1046C0000646FEF7F2FE287884F83000A87884F8D1
:1046D0003200E87884F83300687884F83100D5E94E
:1046E0000401C4E91001D5E90201C4E90E01D5E9CC
:1046F0000601C4E9120195F82D0000E012E084F8EB
:104700005D00686AD8B104F1780104F16C0061675A
:104710006065696A09880180686A616D808888803F
:10472000002008E00E2070BD696A22188968095CC3
:1047300082F87810401C616D89888142F4D8A86A9B
:10474000E8B104F1A400C4F8A0000C38A065A96A7F
:1047500089888180A86AA16D00880880002006E011
:10476000A96A22188968095C82F8A410401CA16D0E
:1047700089888142F4D895F82C0084F85C00286A76
:1047800048B104F1C4002065296A49884180286A3B
:10479000216D00880880686800B1606305F13C0104
:1047A0003046BDE87040FFF72EBF10B50288102AD2
:1047B0001AD0112A1FD01B2A1CD1007A0C460028BF
:1047C00018D1E0780521401CB0FBF1F201FB120189
:1047D000204600F055F800280CD0D4F8D01000295D
:1047E00008D0BDE810400847C27B012A02D180886A
:1047F000A1F8C80010BD0C46002184F8D4108088B0
:10480000B4F8C8108842F5D120790028F2D10121EE
:10481000DEE710B50C46022801D0032811D16078DC
:1048200000280ED000206070E178204600F028F8C3
:10483000002806D0D4F8D010002902D0BDE81040DE
:10484000084710BD10B5044674DF012084F8D40079
:10485000002084F8D600062084F83300002104F1FB
:104860003000FFF7D0FE002809D1E178204600F0A3
:1048700007F818B1D4F8D01001B18847002010BD56
:104880002DE9FF47044600780F4638B1E770002055
:1048900004F05CF8012628B16670D2E0082004B06C
:1048A000BDE8F0870025C4F82550A4F8295084F805
:1048B0002B50A07910B1E078012806D0E07970B1D2
:1048C000E078012801D0022809D1D4F8CC1021B118
:1048D00084F82C600820884701E084F82C5004F10B
:1048E000260100200A5C0AB1304603E0401C06287D
:1048F000F8D300204FF002084FF0030A4FF00409EC
:10490000012F06D0022F09D0032F0CD0042F12D173
:104910000DE0A17911B108B130460DE0E17911B196
:1049200008B1404608E0207A08B1504604E0607AB9
:1049300008B1484600E02846E070D4F8CC1041B1F8
:10494000032801D0042804D1607910B194F8D40070
:10495000A8B184F8D55000950295019503958DF87E
:1049600000508DF80850E17804F1250004F1300280
:10497000052958D2DFE801F0670A131F3B0084F8CD
:10498000D65084F8D56007208847E4E7A6700190E8
:104990008DF80060ADF80C50ADF80A5043E084F893
:1049A000028001908DF80060208AADF80C00A0898B
:1049B000ADF80A0037E0A08AADF80A00208BADF808
:1049C0000C00607980B194F8D40068B994F8D600EE
:1049D00050B18DF8088084F8339000211046FFF71D
:1049E00012FE00BB05211AE084F802A01BE0A08B98
:1049F000ADF80A00208CADF80C00607988B194F80D
:104A0000D40070B994F8D60058B18DF8088084F8B5
:104A1000339000211046FFF7F6FD20B90621A17062
:104A200001E084F80290E07830B194F824106846F0
:104A300073DF00287FF433AFD4F8CC1009B1A0782D
:104A4000884700202BE7A570F6E7000030B585B059
:104A50000D4604003DD0DDB3286820601E4B4FF6A4
:104A6000FF70A4F84E000FCB8DE80F0004F1500149
:104A7000684662DF002829D194F850008DF81200B2
:104A80004FF4A050ADF81000221D04A90120A0DFB2
:104A900000281BD12946204608F072F8002815D1BD
:104AA0002946204606F094FE00280FD129462046CC
:104AB00003F03AF8002809D12946204603F0E7F828
:104AC000002803D129462046FFF7FBF905B030BD89
:104AD000FFE70E20FAE7000004D102001FB50A46E6
:104AE000014610001CD000291AD00A88102A08D0CC
:104AF000112A0BD0502A13D104B0BDE8104005F0A4
:104B000001BA8988A0F84E100A2104E04FF6FF711F
:104B1000A0F84E1009218DF80010026869469047F0
:104B20001FBD000070B5040012D001461C221448BD
:104B3000FEF7A2FC1248134D0560206850B17ADFE1
:104B4000002806D12068016829604068686005E097
:104B50000E2070BD0B487BDF0028FAD108484FF6C5
:104B6000FF711438084A20F8041B054934390160E4
:104B70000021FFF769FB0028EBD0032070BD000087
:104B80009C25002078210020D1CA020002494A6CED
:104B9000091D06F0D1BF0000B825002002460248DA
:104BA000016D001D06F0B5BFB82500200246024881
:104BB000416D001D06F0ADBFB825002070B50A4E4E
:104BC000054600242A46301D716C06F0A2FF40B154
:104BD0002A46301DF16C06F09CFF08B1022400E06B
:104BE0000124204670BD0000B825002010B5002427
:104BF000204607F0A1FF28B1641CE4B2182CF7D3BB
:104C0000182010BD03480122A24001681143016031
:104C1000204610BDB825002010B5044607F08CFFD3
:104C2000002803D0024800EB8400806D10BD000016
:104C3000B825002070B505460C46084607F07CFFF5
:104C4000002809D005482A4600EB8401001D896D23
:104C5000BDE8704006F05DBF70BD0000B8250020C3
:104C600070B5064615460C46084607F065FF002855
:104C70000AD006482B4600EB84013246BDE870405E
:104C8000001D583106F07DBF70BD0000B825002022
:104C90007CB5054608880C460930904201D90C20A5
:104CA0007CBD68466DDF0028FAD121880820685451
:104CB00020881B21401C80B2208029542088401C61
:104CC00080B220802844DDF801100160BDF8051095
:104CD00081802088801D80B220809DF800104908C6
:104CE00000D0012129542088401C208000207CBD58
:104CF00010B503F033FA002809D105484FF0030C32
:104D000000DF002803D1BDE8104003F08BBA10BDCE
:104D1000482B002018B103490860002070470E207E
:104D200070470000DC21002010B54FF0FF3100205B
:104D30003BDF00280BD1B1213ADF002807D104481E
:104D4000416901208847022004F02EFB002010BD9D
:104D50002C2B0020044810B50068416900208847CA
:104D6000BDE81040FFF7E0BFDC21002030B58FB078
:104D700005461C2101A8FEF798FB0024142109A870
:104D80000894FEF792FB9DF82000009420F00F009D
:104D9000401C20F0F00010308DF820009DF821001C
:104DA000029420F00F00401C20F0F00010308DF82D
:104DB00021009DF82200049420F00600801C8DF84C
:104DC00022009DF8040009AA40F028008DF8040094
:104DD00008A8CDE90540079428788DF83A0003200B
:104DE000ADF838009DF80000ADF82C4020F00F0021
:104DF000401C20F0F00010308DF800009DF80100FC
:104E0000ADF82E4020F00F00401C20F0F0001030D4
:104E10008DF801009DF802000D9420F00600801C22
:104E200020F0080040F011008DF802000EA8099053
:104E30001720CDF828D0ADF830006888AB1D01A947
:104E4000A2DF0FB030BD000010B5164C86B01ECCEE
:104E50008DE81E0020B3144C4FF6FF71A18000684E
:104E600060610020607620762046FFF753FF00281F
:104E700014D101208DF812004FF65960ADF81000E2
:104E8000A21C04A90120A0DF002807D12146684602
:104E900062DF002802D12046FFF768FF06B010BD90
:104EA0000E20FBE714D102002C2B002010B50028A7
:104EB0000FD00188204C502926D00BDC10291DD0A2
:104EC000112906D1A1888088814202D14FF6FF7056
:104ED000A08010BD512913D05329FAD1C088E18890
:104EE0008842F6D1607E0028F3D0FFF733FF002818
:104EF000EFD06169BDE81040022008478088E7E7ED
:104F0000BDE8104004F0C6BF30F8061F6289914228
:104F1000DFD141890229DCD10C3000F019FB0749AF
:104F2000207603220988BDE8104002EB01430246C7
:104F300003A1184604F040B82C2B002020230020A9
:104F4000526563656976656420696E64696361743E
:104F5000696F6E2073746174652025640000000021
:104F60002DE9F0410546007B0426234C4FF0010853
:104F700001280FD002281FD00226287B4FEA060105
:104F800000F064F8002832D020684169BDE8F041A3
:104F90000320084720680027817E11B106210120E7
:104FA000EEE780F819800121084600F04FF800284C
:104FB0001DD020684776E0E76A7B142A19D8C2B171
:104FC0000E4F05F10E01381DFEF756FA687BB861E9
:104FD00021683846897E0029CFD1A0F10C010A68EA
:104FE000011F90470028C8D1216881F81A80BDE8C8
:104FF000F0810526C1E70000DC210020542B0020B1
:1050000070B5104900250A68002A19D04A68002A9C
:1050100016D008319047112812D00B4C0028206878
:1050200085760BD00421022000F010F8002807D06C
:1050300020684169BDE87040032008470121F2E77C
:1050400070BD0000482B0020DC21002086B0032327
:10505000ADF8003020238DF814308DF815000022B3
:105060000E48019202928DF81610C188ADF8041016
:1050700002218DF8061005A90491ADF80820CDF89D
:105080000CD0808801A9A6DF002804D1BDF800104B
:10509000032900D00C2006B0704700002C2B002004
:1050A0000F4A0321128801EB024268B101280ED099
:1050B0000B4A01210228128801EB02420AD0032880
:1050C00010460AD007A109E0104610A106E01046DC
:1050D0001AA103E0104622A100E030A103F068BF4E
:1050E00020230020556E6B6E6F776E206576656E9F
:1050F000742066726F6D20626C655F6466755F62B6
:105100007574746F6E6C6573732E000044657669F8
:10511000636520697320707265706172696E6720C3
:10512000746F20656E74657220626F6F746C6F614E
:10513000646572206D6F64652E00000044657669B9
:1051400063652077696C6C20656E74657220626F90
:105150006F746C6F61646572206D6F64652E000002
:105160005265717565737420746F20656E74657215
:1051700020626F6F746C6F61646572206D6F64651F
:10518000206661696C6564206173796E6368726F13
:105190006E656F75736C792E000000005265717535
:1051A00065737420746F2073656E6420612072656E
:1051B00073706F6E736520746F20636C69656E74B5
:1051C000206661696C65642E0000000030B50446FD
:1051D000008889B0212833D01EDC01283DD0324D13
:1051E000102823D0112829D14FF6FF7068800020A5
:1051F00000F01AFB08B1FEF7D5FF00F099FCFEF7AE
:10520000C1FE03212948FFF73BFB002816D009B057
:10521000BDE83040FEF7C6BF3B281AD0512820D049
:1052200056280BD1A088132176DFEEE7072000F087
:10523000FBFA08B1FEF7B6FFA088688009B030BD60
:1052400000200090A08869468FDF28E0FEF7AAFFC3
:10525000F4E7A088132176DFD7E7A088002166DF76
:10526000D3E71022A11D04A8FEF706F99DF810103F
:105270000029E3D09DF81800042803D0062801D0A7
:105280000528DBD102290DD05FF001008DF8000068
:105290004FF4C170ADF80400A0886946A8DF00286B
:1052A000D4D1CBE70220F1E7102100209C2300207D
:1052B00010B51A4C0188606810290ED011292BD125
:1052C000401E606028D1FEF742FE002824D02168ED
:1052D000002921D0BDE810400847D0B900210122A3
:1052E000084600F07FFA08B107280FD107220221F3
:1052F000012000F077FA08B1072807D10422022123
:10530000002000F06FFA20B1072802D0216801B117
:1053100088476068401C606010BD0000702100205C
:105320002DE9F04701883B4E40F2F3194FF6FF7527
:1053300010291BD011293ED0122954D0502946D112
:10534000C188F289841D914241D1618902293ED1EF
:105350008688304601F000FF050038D004F10C00CB
:1053600000F0FAF8A8B3294630464EE0C17B8788A2
:10537000044601292BD1A846284601F0EDFE050080
:1053800017D02F8000202872234843464A460168E0
:10539000C5F80A104068C5F80E0004F1100105F1C7
:1053A0000A0001F041FF6872F08900280FD12946F8
:1053B0002AE0042013E0808801F0CEFE040006D02D
:1053C0006068FEF7C1FF08B106F0B0FC2580BDE8BB
:1053D000F087FFE76868FEF7B7FF0028F7D0BDE861
:1053E000F04706F0A3BC87880646384601F0B4FEB5
:1053F0000400ECD02B464A4606F1080104F10A00ED
:1054000001F012FF607221463846BDE8F04700F017
:10541000B1BC00009C250020782100202DE9F04738
:10542000044603883F480122A4B000F1480A102B2B
:1054300009D0112B54D01A2B70D1217AB2EB111F45
:1054400053D2012352E0D0E911218A430546011DC0
:1054500012A806F071FB442212A901A8FEF70CF86D
:10546000DFF8C0900026374609F144090DF1040821
:105470000AE000BF08EB46001D2283884946281D2C
:10548000009706F00BFB761C0198B042F2D8686CCE
:10549000A688C04306F024FBA0F57F41FF3917D052
:1054A00005EB40000123868032465146281D06F058
:1054B00068FB012332464946281D06F062FBE07B6B
:1054C00002280BD000231749A2884C31281D20E068
:1054D00024B00420BDE8F047FEF764BE0123F2E7E4
:1054E0000023A2885146001D13E000230D49054604
:1054F000A2885031001D06F044FB207A0221B1EB56
:10550000101F01D2012300E000230649A288543174
:10551000281D24B0BDE8F04706F033BB24B0BDE839
:10552000F0870000B825002010B504460748007831
:1055300000280AD0204601F04FFC204606F07AFDF4
:105540002046BDE8104001F09DB910BDB0210020FB
:105550000078C0F340007047007800F00100704709
:1055600038B5044601208DF8020041F604000D46CE
:10557000ADF80000224669460120A0DF002803D1D3
:105580002946204607F0F6F838BD0288102A01D1D6
:1055900080884881704700000149085C704700001E
:1055A00039D002000649095C4FF0A040D0F8100540
:1055B000C84010F0010000D0012080F001007047C9
:1055C00039D0020007490B5C4FF0A041D1F8042507
:1055D0000120984020EA0203C1F808351040C1F8C4
:1055E0000C05704735D002000249085C012103F028
:1055F00008BB000035D002000249085C002103F01E
:1056000000BB000035D002000649095C4FF0A04005
:10561000D0F80405C84010F0010000D0012080F04F
:105620000100704735D002007CB50024084E2546A5
:105630000122305D009500231146019503F08DFA9B
:10564000641C042CF4D3BDE87C4000F003B80000D7
:1056500035D0020010B500242046FFF7C5FF641CBA
:10566000042CF9D310BD10B500242046FFF7C4FF69
:10567000641C042CF9D310BD10B50246064B4FF044
:10568000FF3000215C5C944201D1084610BD491CEA
:105690000429F7D310BD000039D0020070B50C4EBC
:1056A0000C004FF0000530600BD0012000F06AF8CC
:1056B00008B1022004E0002000F064F800B10B20E3
:1056C0002070706810B9FEF742FC0546284670BD90
:1056D0007021002010B5002000F0D8F908B106288C
:1056E00006D1012000F0D2F908B1062800D100202F
:1056F00010BD00002DE9F0470D468146FFF7BCFFC5
:105700000446042836D2DFF874801B481C4EA8F1EA
:105710000C0725B3012D0ED0022D2BD104EB440034
:1057200030444578002D25D0B968002922D028467C
:10573000BDE8F047084704EB4401755C0E447178FE
:1057400049B10E4A4FF40041093A8068FEF7B8FDAE
:1057500008B987F80390B17808F80410E2E7806888
:10576000FEF7F2FD04EB4401314418F804008D7893
:10577000A842D7D0BDE8F08740D002006C210020BD
:105780003C250020FFF70EBF0146144810B54088A5
:10579000042910D0072917D00A291ED1002000F0B3
:1057A00043F808B1FEF7FEFCFFF794FF08B1FEF7DF
:1057B000F9FC32DF02E0132176DF0CE000280CD088
:1057C000BDE81040FEF7EEBCA0F57F41FF3904D1E3
:1057D0000348FFF737F80828F0D110BD102100204A
:1057E0009C23002070B50023042810D20D4D00EB3F
:1057F0004004012A02D101290CD00022094E00EBFD
:105800004000304461B1012906D0022906D00723A7
:10581000184670BD0E30C2B22A55F9E74270F7E75C
:105820008270F5E73C250020044A014600201279E9
:10583000D20702D0084600F04DB870476021002022
:1058400070B506461E480024C0E90161B00720D5A6
:105850000025012211462846FFF7C4FF6D1C0446AF
:10586000042D02D2002CF4D013E094B940F2666209
:1058700004211448FEF722FC04000AD1FEF70CFCB8
:10588000040006D10F48104A0021001FFEF7DCFC7F
:105890000446F00701D0FFF7C7FE74B909480B4A68
:1058A00000210C38FEF7D0FC040006D10548084A58
:1058B00001210838FEF7C8FC0446204670BD0000F0
:1058C000602100204CD00200295B0200BD72020062
:1058D000934002002DE9F05F6A4C0546002660788F
:1058E000B34618B184F801B001F0D0FC664F4FF414
:1058F0007A694FF4C87A4FF00108182D62D2DFE8B8
:1059000005F0AC0C0C31404D62676B746B74BE7D5E
:105910007D7D7D7DACAFB2B5BEBE0020FFF774FECD
:1059200000284FF0000008D0FFF75EFE022D02D1E4
:105930004FF4E16008E0484606E0FFF75DFE022D07
:1059400001D1C82000E05046410CC0034FF4FA7268
:10595000801841F10001257052000023FDF756FD2B
:1059600001462AE00020FFF74FFE00284FF000001C
:1059700004D0FFF739FE4FF44870E5E7FFF73CFE2F
:10598000DFE70020FFF740FE00284FF0000002D0C4
:10599000FFF72AFECFE7FFF72FFED4E70020FFF73F
:1059A00033FE00284FF0000002D0FFF71DFE01E09B
:1059B000FFF722FE257041F69A1100223868FEF7A3
:1059C0007FFC064646E00020FFF7FCFD257008E05E
:1059D000002051E025703DE084F801800120FFF7B0
:1059E000F1FD002240F6CD41E8E784F80180012076
:1059F000FFF7E8FD00224FF48041DFE77868FEF70B
:105A0000A3FC0646D5F1110000D02EB10220FFF70D
:105A1000EBFD84F802B01DE0012816D980B2C82140
:105A20004843C117C90341EA5041C0034FF4FA7219
:105A3000801841F1000152000023FDF7E7FC014608
:105A400000227868FEF73CFC06460220FFF7D4FDF2
:105A500084F802803046BDE8F09F01F017FCB9E7FA
:105A600001F014FCB4E701F011FC04E001F00EFCBD
:105A70000020FFF7C1FD0120FFF7BEFDAAE7FFF7F9
:105A8000F2FDA7E76021002040D0020010B5FFF72B
:105A900083FD032103F085F8002010BDF8B5861CB6
:105AA00000208DF800000C4601276846FEF75CFCDC
:105AB0000F4801682160D0E90012891A8268044603
:105AC000511AB51C07E000BF01F0FCFED4E900014B
:105AD000401AA168091A491C8D42F5D82068304443
:105AE00020609DF80000FEF763FC3846F8BD00001A
:105AF0004830002030B482680468531C8360A1548D
:105B0000D0E901128A4202D330BC02F0F6BD30BCAB
:105B100070470000034803C8814201D1012070474B
:105B2000002070474830002000780221FFF7E2BDD6
:105B30000C4930B4087820F0FE00087000208A1F5D
:105B4000C0F105030C18401CD35CC0B2637006287A
:105B5000F6D304486CDF002802D030BCFEF722BB2D
:105B600030BC70473321002005494FF0FF32082830
:105B700041F8202002D3084480F8482070470000F4
:105B8000842B0020F0B54FF0FF3512B1002308261A
:105B900001E008230C260C4C05E000BF54F82370EC
:105BA0007F1C04D05B1CB342F8D32846F0BD2618F6
:105BB0005DB286F8305044F82310002AF5D1E11880
:105BC00081F84800F1E70000842B002002490844D6
:105BD00090F9300070470000842B002070B5044617
:105BE0004FF6FF750A462846AC4208D14FF4807440
:105BF0002146104605F078F9A04209D070BDFF2C6F
:105C0000FCD82146104605F062F908B1204670BD67
:105C1000284670BD70B5084C050009D010342168C5
:105C2000002907D008682060496828468847F6E7B9
:105C30000834F4E770BD0000702B00202DE9F05F00
:105C400026484168F1B3DFF898B00E688146DBF86A
:105C5000004087688078E11B21F07F45ED1CB0B9DA
:105C6000DFF880804FF48030C8F84403C8F804039C
:105C70001120FDF759FD1120FDF761FD4FF0010ADC
:105C8000C8F800A02F2002F023FA89F802A0B5423C
:105C900000D23546124BE8193C3320F07F401860A3
:105CA000DBF800105A46091B21F07F41001B20F051
:105CB0007F40C91C81420FD9106818602F2002F064
:105CC00007FA00E004E0BDE8F05F1120FDF742BDF7
:105CD000BDE8F05F05F0C2BDBDE8F09FF4210020F3
:105CE00004150140001001402DE9F04117880646D7
:105CF000B81D14460D46984202D90C20BDE8F0812B
:105D00003188072206290AD34FF4486C4FF6FF73F7
:105D1000614501D9994202D17088062801D2104606
:105D2000ECE7604501D99842F9D1994203D09842F5
:105D300001D08142F3D80520E85520881221401C6B
:105D400080B2208029542088401C80B220804119D4
:105D5000308806F05BFE2188084480B2208041191B
:105D6000708806F053FE2188084420800020C5E793
:105D7000FEF718BA38B54A7A0F4B62B100220A72A0
:105D80005969002906D001228DF80020ADF80200E3
:105D90006846884738BD0A7A62B19B684C680246FB
:105DA00019462046FEF78CFA0028F3D0BDE83840AB
:105DB00005F0BCBF5B68F1E79C2500207FB50C4671
:105DC00010B1012004B070BD2079002638B141F631
:105DD0001D5501281BD0022826D00F20F2E702967D
:105DE0000396E0680190694601A805F051FC50B1A6
:105DF00002988188E18000882081BDF80010029817
:105E000005F0BAFC00E00A2002212171DAE70A4B12
:105E10006A460021A01D05F0F7FB38B10649083994
:105E20008E60CE600A28CDD12846CBE70248818813
:105E3000019805F0A1FCF5E7102200202DE9F041C2
:105E400000260125144C22E06068226900EBC60799
:105E5000387805FA00F1114217D08A43226102F026
:105E600035FB02463878E36805FA00F1194002FA7A
:105E700000F3994209D17978012901D0012100E08C
:105E8000002151407A6802B19047761CF6B2207822
:105E90008642D9D3BDE8F081E02100200E4910B53B
:105EA0000A784C780023A24212D0521CD2B20A7057
:105EB000022A00D10B70084A0B780C3252F82320CA
:105EC00002608868104420F07F408860012010BD87
:105ED0000360002010BD0000F42100203EB5094DF4
:105EE00038CD8DE83800ADF8041007498DF806204C
:105EF000ADF8020000220978FEF7B2FE684600F015
:105F0000D9F83EBDF4D00200C0210020F8B5074604
:105F10000C481C46154680780E4608B10820F8BD8E
:105F2000684605F097FA58B10098012101710760A1
:105F3000310B4561C0E9024105F052FB0020F8BD7C
:105F40000420F8BD2022002010B503780022072B82
:105F500006D2DFE803F005040610202930000A709D
:105F600010BD01230B7003898B818388CB81C068AE
:105F700088600A7410BD02220A7002898A818288B0
:105F8000CA81C2688A60807D062802D00020087419
:105F900010BD0120FBE703220A70C2888A810289B2
:105FA000CA81C068886010BD04230B70C0888881D6
:105FB000CA818A6010BD0520087010BD70B5064DFD
:105FC0000646002455F8241009B130468847641C61
:105FD000042CF7D370BD00007C2D002030B50446A2
:105FE000006885B00D46806800281CD014216846E2
:105FF000FDF75BFA0195A0680490207910B10128A3
:106000000DD104E001208DF80000206904E0022099
:106010008DF80000E068000302906069039020683A
:1060200081686846884705B030BD0EB5002911D09B
:1060300011290FD0002200920292ADF802000191C6
:106040000D2908D0862908D009208DF8000068465F
:1060500000F03EF80EBD0B20F7E70A20F5E7000040
:1060600001490968084700008821002070B5054DE6
:1060700006460024304655F824108847641C022C3C
:10608000F8D370BD84D002002DE9F041074600240A
:10609000064E074D05E000BF56F8241038468847E5
:1060A000641CE8788442F7DBBDE8F081E02A002038
:1060B000B021002070B5054D06460024304655F845
:1060C00024108847641C022CF8D370BDBCD0020099
:1060D000014909680847000000D102007FB5044665
:1060E000406858B10020039020780026384D0628DB
:1060F0005DD2DFE800F05C05052641690120F2E78A
:10610000A08900F0C3F918B9E08905F04FFB80B30E
:10611000A089A0F54040ADF80200A07B8DF80400F6
:1061200020780128606806D048B104208DF800006E
:10613000606803901AE00028F8D00320F6E70120F9
:10614000F4E7A08900F0A2F918B9E08905F02EFB68
:1061500078B1A089A0F54040ADF80200A07B8DF891
:106160000400606830B105208DF80000A06802903E
:106170001AE01CE00220F7E7A08900F087F9B0B12F
:10618000E089A0B9A089FF21A0F5404080B2ADF818
:1061900002008DF80410616881B107208DF80000BD
:1061A0006E70AE7004F0AAFB684604F085FA687859
:1061B000002802D06E7004F0A1FB7FBD06218DF88F
:1061C000001004F029FCEBE708208DF80000EBE755
:1061D0009C21002000B5104987B00978890702D4B6
:1061E000022007B000BDA0F57F41FF390FD0052187
:1061F0008DF8001001218DF80410ADF806006846F6
:1062000003F0E8FE28B105F0DBF90020E9E70420FF
:10621000E7E70820E5E700000822002000B50D4868
:1062200087B00078800702D4022007B000BD0620A6
:106230008DF80000684603F0CDFE40B106480178B5
:1062400009B10121017305F0BBF90020EDE7082039
:10625000EBE7000008220020242E002010B58CB0AF
:1062600014216846FDF721F926480078810703D5F7
:106270006846FFF7A3FE43E0C00741D1012000F0CC
:1062800029F94FF010204269000401694069531C4C
:1062900001D0104600E048431B4900220861A0F5E8
:1062A0004050C8601949184802F047FB00280FD138
:1062B00001248DF8144003F003FF0C281BD2DFE803
:1062C00000F0061006101A1809181A1216120B20E0
:1062D0000CB010BD022000F0FDF8012000F0E0F845
:1062E000C6E7002000E003208DF8180003E002203C
:1062F000FAE78DF8184005A803F06CFE05F060F988
:106300000020E5E708220020A022002060D1020042
:1063100038B5040011D0694605F0BAF988B10A48C9
:10632000BDF8001000EB0110818941B1A27A32B1B1
:10633000491E81810020A07238BD052038BD06208D
:1063400038BD0A2038BD0000042E00201FB501A969
:10635000684605F059F904B010BD07B513460A4662
:106360006946002005F050F90EBD07B513460A46F0
:106370000021684605F048F90EBD20B119B100684A
:1063800008600020704705207047000038B50D46B2
:10639000040015D0A5B1694605F07AF990B10A4913
:1063A000BDF80020606801EB02129189491C9181BF
:1063B000286060680C3068600120A072002038BD41
:1063C000052038BD0A2038BD042E002018B1032353
:1063D000002206F0FDBC052070470223002206F0D3
:1063E000F7BC12B1022306F0F3BC05207047000091
:1063F000064A5178042906D0054B43F82100491C70
:106400005170002070470C207047000008220020C7
:106410007C2D002038B504460A480D4600788007D8
:1064200001D4022038BD54B16946284606F0C8FDA3
:106430000028F7D1BDF800102180658038BD052007
:1064400038BD00000822002010B504460D48007831
:10645000800701D4022010BD84B1218802290FD801
:10646000094800EB011042896088121A032A07D4F8
:1064700006F09CFD00202080608010BD052010BD2E
:10648000042010BD08220020042E002043F6FE71D7
:10649000A0F54040884201D8012070470020704795
:1064A00002490A7882430A707047000008220020DF
:1064B00010B504460078182802D1FEF797FB20702B
:1064C00010BD10B504460078182802D1FEF78EFBE7
:1064D000207010BD02490A7802430A70704700001C
:1064E0000822002070B5134600220646154686296C
:1064F00005D0112901D019B170BD012500E001229C
:106500000D4C73B16179FEF7ABFB2A462179304619
:10651000FEF7A6FB002261783046FEF7A1FB0022C1
:1065200003E06178FEF79CFB2A4621783046BDE8FF
:106530007040FEF795BB0000C4210020406804F0C5
:10654000A9BF0000014643680C480322008802EB03
:10655000004013B10A4902F02BBD0A78012A07D086
:10656000022A09D1D1E9023206A100BF02F02BBDF7
:10657000D1E9023211A1F9E7704700002023002081
:10658000F0D302002D2D3E204576656E7420726595
:106590006365697665643A20657261736564202578
:1065A0006420706167652066726F6D20616464723B
:1065B00065737320307825782E0000002D2D3E2045
:1065C0004576656E742072656365697665643A2008
:1065D00077726F7465202564206279746573206119
:1065E00074206164647265737320307825782E009E
:1065F00000220249024802F0A0B9000060D1020066
:106600008C220020234924488A69130E0370130C3E
:106610004370130A8370C2708A8B130A037142712C
:106620000A681B30130E8370130CC370130A0371B6
:1066300042714A68130E8371130CC371130A0372FB
:1066400042728A68130E8372130CC372130A0373A7
:106650004273CA68130E8373130CC373130A037453
:1066600042740A7C82758A8A130A8374C2740A6A25
:106670000E38130E4370130C8370130AC37002712B
:106680004B6A437105480321008801EB004004A1D7
:1066900002F099BC502300202D210020202300204F
:1066A000307825782D25780070B508B1012070BDAF
:1066B000184C0025207B08B1257301E000F0A2F8FA
:1066C0002078082824D2DFE800F02304080C1023E7
:1066D000141EBDE8704000F01FB8BDE8704000F027
:1066E0007FB8BDE8704000F061B8BDE8704000F0D0
:1066F00037B808496088203901EB00104068BDE8D0
:10670000704003F0BDBC6560BDE8704003F0C6BCDE
:106710000F2070BD242E00201049F0B48A1C0020E8
:106720000346A1F120050C18A67A3EB1A37205EB31
:106730000014A68916B9A47B012C0AD0401C80B293
:106740000228F0D30B704B804B60F0BC41F61D501B
:1067500070471080F0BC00F043B80000242E0020E9
:1067600010B50F4CA4F12001608801EB0010818965
:1067700061B1052020700B4802210023818001684F
:10678000BDE810400122084802F0B0B8416800237B
:106790000122054802F0AAF80421217010BD000072
:1067A000242E002018220020A022002038B50A49FB
:1067B000084803240B684268898803EB81015388E9
:1067C0000470DB1C00201B0400909B0B034802F0AC
:1067D00091F938BD242E002018220020A02200208C
:1067E000074910B54888091D04F0A0FF18B1BDE89D
:1067F0001040FFF7DBBFBDE81040FFF7B1BF00005E
:10680000242E0020F0B51D481D49012506780224DC
:106810008B88A0F12002082E18D2DFE806F00417BA
:10682000171A212C2C160189491C01810021418055
:1068300080F80C1002EB01131B7843B100234418BD
:10684000491C89B2A3720229F4D30570F0BD01235B
:10685000F5E742685288D21C1A448A800470F0BD61
:1068600046880D6802EB061256680E60556013816B
:106870008C80062100E007210170F0BD242E00204D
:1068800018220020F0B504460088384DA5B05028E5
:106890001ED0522802D0542828D103E0A08800F04E
:1068A00081FF23E006208DF84400A08800F0ACFBB7
:1068B000ADF84600A188ADF8481000F05DF9A08859
:1068C0000022E978FEF7CCF911A8FFF7C9FB0DE02B
:1068D000207B01280AD1A07A012807D12089A0F5C0
:1068E0002451023902D1A08800F096FFA878FEF763
:1068F00093F9C8B114A8FEF749F9442214A96846CF
:10690000FCF7BAFD00246E460BE000BF06EB44071F
:10691000A978B888FEF78EF910B1B88800F042FF68
:10692000641C0098A042F1D86878FEF775F9C8B1E8
:1069300014A8FEF72BF9442214A96846FCF79CFD25
:1069400000246E460BE000BF06EB44076978B88868
:10695000FEF770F910B1B88800F05EFF641C009873
:10696000A042F1D805F000FA25B0F0BD802100204A
:106970003EB504464088ADF802002078A8B1012851
:106980001FD0022810D1207900280DD0608800F097
:106990007BFAA0F57F41FF3906D00F490122C97863
:1069A000FEF75EF905F0E0F93EBD00208DF800002D
:1069B0006846FFF755FB608800F066FA00F0F2FECB
:1069C0003EBD01208DF80000A088ADF804006846A7
:1069D000FFF746FB3EBD00008021002010B50446B5
:1069E000007801280FD1608800F0DCFE608800F09C
:1069F00089F9002807D0044960880122C978BDE8D8
:106A00001040FEF72DB910BD8021002010B5104CAC
:106A100000202070FEF7EAF86070FEF7E7F8A0703B
:106A2000FEF7E4F8E070FEF7E1F8207161781829CC
:106A30000BD0A178182908D0E178182905D018289A
:106A400003D001202070002010BD032010BD0000E5
:106A5000802100202DE9F04192B000F0A5F86846B1
:106A6000FEF794F800246D464FF6FF77DFF8348088
:106A70000FE000BF05EB4406B08800F0C5FAB8424D
:106A800005D1B088012298F80310FEF7E9F8641CDC
:106A9000A4B20098A042EDD805F066F912B0BDE8A6
:106AA000F0810000802100200178072902D1408870
:106AB00000F0B2BE7047000010B504460A484178A5
:106AC0002046FEF7B7F868B10848002101EB410203
:106AD00000EB82025288A24201D1C8B210BD491C0B
:106AE0001429F3D3FF2010BD982100207026002028
:106AF00070B5094D094E002404EB440005EB8000FD
:106B000071784088FEF796F820B1641C142CF3D3FA
:106B1000FF2070BDE0B270BD7026002098210020DB
:106B20002DE9F041124E07460125BD403068FDF7C2
:106B30000BFC00280DD10F4C2069284207D13846A4
:106B400001F0C4FC0028E06805D0284304E0A84315
:106B50002061BDE8F081A843E060206928432061FE
:106B6000A1683068BDE8F0410022FDF7A9BB000034
:106B70002CD10200E02100201CB5054AD2E9021206
:106B8000CDE900120022694603F063FC1CBD000041
:106B900070D0020003484FF6FF718180012101701F
:106BA000002070478C21002010B54FF6FF7003F0D5
:106BB0008FFB03498880BDE8104005F001B9000053
:106BC0008C2100202DE9FC41804600F01DFA0024B4
:106BD00003250127A0F57F412646FF3908D06A46E4
:106BE000082103F011FC18B90198841D86880568F6
:106BF00032462B4621464046A9DF042804D0082807
:106C000004D00B2808D002E0112000E00020002F63
:106C100000D10B20BDE8FC810027A80701D5012584
:106C2000E6E73443F5D0002426460325E0E72DE9C6
:106C3000FC41804600F0E8F90746A0F57F40FF38A8
:106C40000ED001252A466D1C0026ADB26B460821E8
:106C5000384603F003FC040006D0072C24D024E0BF
:106C600043F20200BDE8FC81019903230A1D0B6079
:106C70004046891DAADF040004D00C2C08D0052C46
:106C800008D008E00821384603F080FC04460CE0F8
:106C9000012600E000240821384603F063FC00B11F
:106CA0000324002ECED100E00C242046DAE70000B9
:106CB0001FB504460078012815D12079012812D18A
:106CC000608802AA012103F09FFB60B902208DF8C1
:106CD00000006088ADF80200094901208DF8040029
:106CE000096868468847064808388088A0F57F41CB
:106CF000FF3903D0BDE81F4005F062B81FBD00009A
:106D0000942100201CB500F07FF96A46012103F0B0
:106D10007BFB08B100201CBD019800781CBD000061
:106D20002DE9F041084C07464FF6FF7643F2030584
:106D3000324661883846A7DFA84203D16088401CEC
:106D40006080F5E7BDE8F0818C2100208188A1F505
:106D50007F42FF3A03D0008808B10120704700202D
:106D600070473EB5027802230C46B3EB520F17D1A1
:106D7000B0F80110ADF80010C1788DF802108188CC
:106D8000ADF8041080798DF8060002AA01A920460A
:106D9000FDF756F9032202A96846FCF798FB08B1F3
:106DA00000203EBD01203EBD10B50C46FFF784FE1D
:106DB000FF280CD0074900EB400001EB8000416840
:106DC00021600189A180807AA071002010BD05207A
:106DD00010BD00007026002070B5018890B0102909
:106DE0004FD1011D34226846FCF746FB9DF8040094
:106DF0004FF6FF76032134466D46B1EB500F2AD093
:106E000003F0C2FC9DF8040040080ED001280CD00D
:106E1000022820D118E00F99281D1131FDF72CF818
:106E200018B100BFBDF8344015E00EAA0DA9072027
:106E300003F082FC0028EED10DE00F99281D491CBB
:106E4000FFF78FFF0028EDD10EAA0DA9072003F050
:106E500073FC0028F1D1BDF80000291D00F0C8FF27
:106E6000B4420ED0BDF80000214600F07EF8BDF817
:106E70000000ADF8360001208DF834000DA8FFF7B2
:106E8000F5F810B070BD0000094A002101EB410384
:106E900032F82330834205D101EB410002EB800040
:106EA00040887047491C1429F0D34FF6FF70704793
:106EB0007026002010B50D4C18200D4A607000207F
:106EC0004FF6FF7100EB400302EB8303401C598037
:106ED0001428F7D3FDF78AFE6070182803D001202C
:106EE0002070002010BD032010BD0000982100205C
:106EF0007026002070B504460D46401C00F0B6F91F
:106F000000280ED01022691C601CFCF7E0FA48B182
:106F10005FF0000605F1110104F11100FCF7ACFF70
:106F2000304370BD0126F5E7018811B94218927807
:106F30000AB101207047491C0829F7D30020704787
:106F400010B50C460346FFF7EFFF00280AD018885B
:106F50002188884205D10822A11C981CFCF7B7FAA9
:106F600008B1002010BD012010BD03F0A9BD10B56F
:106F70000446007888B0002828D12079072825D138
:106F8000608801AA072103F03FFA00281ED103F010
:106F9000FBFB1DE06088BDF80010884218D0049902
:106FA0000298FFF7A7FF98B16088FFF76DFFADF873
:106FB000160000208DF814006088ADF81800BDF8A8
:106FC0000000ADF81A0005A8FFF750F808B010BD92
:106FD00003AA6946072003F0AFFB0028DAD1F5E7E2
:106FE00070B50446FFF750FF0546204603F00FFA40
:106FF0004FF6FF7104468D4203D014B9284603F0C2
:107000005FFD204670BD000010B5FFF755FDFF285D
:1070100005D0044900EB400031F8200010BD4FF6C8
:10702000FF7010BD702600203EB5044603F0ACFB97
:107030000EE0019920464631FFF782FF28B90199F9
:1070400020462A31FFF77CFF10B1BDF808003EBD95
:107050006A4602A9072003F06FFB0028E9D14FF62A
:10706000FF703EBD70B50A4D0849002441602C6098
:1070700002F09CFB2946C870064804604460C0F8D2
:10708000E040C0F8E44000206C6070BD58D10200C0
:1070900020220020342E00202DE9F0410F4628B197
:1070A0000120FFF7FDF90120BDE8F081397961B1D8
:1070B0000026264D01290DD0254C4FF0020802294B
:1070C000206822D003293CD128E002F0E7FF01210B
:1070D000397134E05FF0000005EB001109780229F6
:1070E0000CD0401C80B20228F6D30220FFF7F2F940
:1070F0000120FFF7D5F941F61D50D5E705EB001447
:10710000606802F0BDFF267019E0014600230122ED
:10711000104801F0EBFBA4F804800FE002F0B0FF90
:107120000A4922682031498805EB01114B68236028
:107130004A60A2880A81A4F804800E703E7100287B
:10714000B2D00120FFF7ACF90E20ADE7042E0020ED
:1071500018220020A02200200146034802888A420B
:1071600000D0002070470000882500202DE9FC5F3A
:107170000E008346DDE90C47C6F1000098469246B2
:10718000814600D40846012503E000BF90FBFAF0D9
:107190006D1C5045FADAA84500D9454624B1002EA9
:1071A00001DB780700D5641EB80702D5B8F1000FDF
:1071B0000AD0F80708D13CB1A54205D22021584693
:1071C000641EFEF797FCF6E7002E02DA4E462D21EC
:1071D00002E0780703D52B215846FEF78BFC07F019
:1071E000030002280BD1B8F1000F08D13CB1A54231
:1071F00005D230215846641EFEF77CFCF6E7CDE947
:107200000047434652463146584605F007FCBDE864
:10721000FC9F00000348D0F8E400002800D00120C3
:1072200070470000342E0020F0B58488A5189442E1
:1072300000D82246A41AC288D6189A4200D813460B
:10724000D21A4B880788BB420CD34088834209D8A6
:107250008888A04206D3A84204D8C888904201D3A7
:10726000B04201D90020F0BD0120F0BD0021425CF8
:107270000AB101207047491C1029F8D3002070473B
:10728000800701D000207047012070470A4810B5E0
:10729000807860B1002401E0022C06D02046FEF781
:1072A000A3F9641C042CF7D310BD0324F6E7BDE852
:1072B0001040FEF7CFB9000060210020034801799B
:1072C000C90702D00078FEF705BB70476021002097
:1072D00006490120086006480168C1F30041002901
:1072E000FAD1044900208870704700000C0000406B
:1072F00018040040702B002070B592B01D4811900A
:107300000E20ADF840004FF66F60ADF83C003C2118
:107310006846FCF7CAF800258DF8005006208DF865
:10732000030014490120243905910FA9ADF810007C
:107330000A918DF82C0029466846FDF764F9044649
:107340000D480326224600880CA106EB004001F000
:1073500033FE200001D0FCF725FF0C488562C56292
:10736000056345632830A02106700572418185813F
:1073700012B070BD3A210020202300206572725F98
:10738000636F64652069732025640000502300202A
:107390001721018041800021017141711B21817100
:1073A000C17170472DE9F047234D81461F46287A69
:1073B0000E469046084302D026B1002104E0052085
:1073C000BDE8F0871C491031484604F075FF0446BB
:1073D000014600224846FFF785F81FB1214648467E
:1073E000FEF723FE112C0FD005DC5CB1082C09D070
:1073F0000D2C06D106E0862C12D0A4F540500238A0
:1074000000D003242046DBE73246E9784846FDF702
:1074100027FC4246A9784846FDF722FC0024F1E704
:107420003246E9784846FDF71BFC4246A9784846B3
:10743000FDF716FCE6E70000C42100202DE9FC4121
:1074400017460C00064604D02078C00705D001205E
:1074500004E000217EDFBDE8FC8102208DF80400FD
:107460003046FFF7D1FD0546A0F57F40FF3808D034
:1074700001A800902B463A462146304600F021F8FC
:1074800006E020782146C007304603D000F07DF8A2
:1074900004460BE07EDF04004FF00000009007D0B0
:1074A000002201232946304604F006FC14B106E010
:1074B0000122F6E79DF80410304604F027FC204630
:1074C000C9E72DE9F04F85B09046894683460025EF
:1074D0009A462E4601AA072118460E9F02F094FFF5
:1074E000040008D1029D95F84400183510F00106FB
:1074F00001D0029D343558EA04004FF000080FD146
:1075000075B126B905F11200FFF70EFD40B12A460C
:1075100005F11201584685DF044687F8008021E016
:107520000CB1052C1ED199F80000C0070DD003AB9B
:1075300001220721504602F091FF04000AD10721E1
:10754000504603F085F8040004D1494658467EDFD2
:10755000040007D00721504603F004F810B10528B5
:1075600000D00324CDF80080387808B1012300E072
:10757000002344B100225146584604F09DFB05B05B
:107580002046BDE8F08F0122F5E7FEB50F4606461E
:1075900002F038FF0546A0F57F40FF381ED001AB52
:1075A00001220721284602F059FF04000AD10721D1
:1075B000284603F04DF8040004D1394630467EDFFA
:1075C000040007D00721284602F0CCFF10B105289F
:1075D00000D00324012000905CB102E003240020CD
:1075E0000090002201232946304604F065FB204626
:1075F000FEBD0122F6E700002DE9F041134D0F46D4
:10760000164680462978FDF715FB00281BD040461A
:10761000FFF7FAFC0446A0F57F40FF3813D06978E5
:107620004046FDF707FB38B133463A46214640460F
:10763000BDE8F04102F0C0BD324639464046BDE8E3
:10764000F041FEF74BBCBDE8F0810000C0210020F6
:107650002DE9F04391B08146FDF7DEFA002820D0F5
:107660006846FDF793FA00246E4617E006EB4405E2
:107670004946A888FDF7DEFA78B10B4FA888B9789B
:10768000FDF7D8FA8046A888F978FDF7D3FA0146C5
:10769000A88801234246FFF785FE641C0098A0429B
:1076A000E4D811B0BDE8F083C42100202DE9F047F3
:1076B000394E002780463D46DFF8E090D6F804A01A
:1076C00057E003D00446D0F81C8035E099F800203C
:1076D00002EB4201521CD2B289F8002009EBC10131
:1076E00099F80230091D9A4201D189F80050486882
:1076F0000A780446012A12D0022A02D0032A3BD17A
:1077000008E004F08BFF00B10127257434E0057414
:10771000C06900E070680028F9D170602CE0207C1E
:1077200050BB88686060C868A0600869E06048690C
:10773000A061F07800B165606268B168184B501ABA
:1077400020F07F40984202D2A168084406E0881ADF
:10775000A16820F07F40814202D9081A206000E031
:10776000256065600120A56020742046E56104F075
:1077700037FFB8F10000A4D199F8001099F8010082
:107780008142A3D117B97168514502D00120BDE8EB
:10779000F0870020FBE70000F4210020582C002097
:1077A000FFFF7F00FEB504460026A0F57F40FF38AE
:1077B0002FD02046FFF706FA050013D00B2D15D069
:1077C000112D11D0A5F5405002381CD009208DF89C
:1077D00000002046FFF718FCADF80200ADF80440A9
:1077E00002950DE0022002E001260CE003208DF856
:1077F00000002046FFF708FCADF80200ADF8044099
:107800006846FEF72DFC0348324681782046FDF796
:1078100027FAFEBD80210020FEB504460026FFF7B2
:1078200006FA0546112818D003DCA5B10C2D06D1A7
:1078300015E0862D27D0A5F5405002381CD0092030
:107840008DF800002046FFF7DFFBADF80200ADF831
:10785000044002950DE0012002E001260CE0072023
:107860008DF80000ADF804402046FFF7CDFBADF8E1
:1078700002006846FEF7F4FB044832464178204691
:10788000FDF7EEF9FEBD0820EAE7000080210020A8
:10789000F8B5054600780C46002620420FD100209E
:1078A0008DF800006846FCF75FFD2878204202D181
:1078B0002043287001269DF80000FCF779FD304632
:1078C000F8BD00002DE9FE43214DD5E9014704EA4A
:1078D000070005EB800605F583600C3600F0D2FA50
:1078E00005F21440804600F0CDFA0AE0C0F3891199
:1078F00001EB9050641C044404EA070005EB800689
:107900000C3630688107F1D00020694604EA07028E
:1079100005EB8202641CD26841F82020401C02283A
:10792000F4D3009800F00300022800980AD0C0F3B6
:1079300083100444404600F09FFA002800D06C6099
:10794000BDE8FE83032101EB905004EB9004F1E7C6
:107950004830002088B0002001F0A6FB08B1FCF7F9
:1079600021FC01F041FA03F0CFFFFCF77FFC08B1E6
:10797000FCF718FC5A4A01215A48FCF765FC08B18B
:10798000FCF710FC01F0C6FC08B1FCF70BFC5649F3
:107990000320FDF755FF08B1FCF704FC6946002001
:1079A000FDF77CFE08B1FCF7FDFB9DF80000022806
:1079B0007ED0002501F0BCFE08B1FCF7F3FB0024EB
:1079C00069460120009401F077FD08B1FCF7EAFB5D
:1079D000684601F0FDFD08B1FCF7E4FB03F07EF81A
:1079E0009DF8080041A120F00F00401C20F0F0009D
:1079F00010308DF808000E2202A87CDF08B1FCF7D9
:107A0000D1FB00945020ADF80000A0200194ADF807
:107A10000200ADF804404FF4C870ADF806006846A7
:107A20007ADF08B1FCF7BEFB0021344800F08BFA86
:107A300008B1FCF7B7FBFEF7DBFD08B1FCF7B2FBC2
:107A40002E4A2823383A4FF4C6212D4800F0A6FFCD
:107A500008B1FCF7A7FBFEF7D5FDFEF769F8FCF7C8
:107A600091FA04F05DFA1C216846FBF71EFD4FF405
:107A70002030CDE900404FF470200290214805905D
:107A8000032621488DF80C600690ADF80E408DF865
:107A900010406846FDF746F808B1FCF783FB114833
:107AA00000224FF480310068FCF70AFC18B100E0B6
:107AB00013E0FCF777FB2846FCF79EFA134814A165
:107AC000008806EB004001F073FA00BF01F09AF95C
:107AD0000028FBD101F046FCF8E701256AE7000029
:107AE00021B3020014D00200895702004E4B4655C4
:107AF00053545F55424541434F4E000088230020B8
:107B00008C220020699D0200715D0200202300206C
:107B10004170706C69636174696F6E207374617217
:107B20007465640A0000000070B58EB00E4605460C
:107B30001C216846FBF7B9FC00249DF80000019465
:107B400020F0100040F00A008DF800000394049427
:107B5000059406940C94B0798DF83000F0798DF886
:107B600031009DF83200142120F00600801C20F026
:107B700019008DF8320095F850008DF8360041F26A
:107B80000340ADF8340007A8FBF78FFC0DA8079061
:107B90000CA808900120ADF824000220ADF8264082
:107BA000ADF82800A88805F1160307AA6946A2DFE8
:107BB0000EB070BD70B5144682880E46054620880A
:107BC000111D0144921C994201D8FE2A01D90C20B2
:107BD00070BD521C32542088FF21401C80B220808E
:107BE00031542088401C80B220808119288804F0FC
:107BF0000DFF2188084480B22080AA8842B1A9687C
:107C000041B13044FBF738FC2088A9880844208023
:107C1000002070BD072070BD2DE9F047C7880446DD
:107C2000181D16468946B0FBF7F1B0FBF7F207FBCB
:107C300012009A193A44D21CB2FBF7F2DDF820A0E8
:107C400001E02468491E0029FBD13D1A8846B5424F
:107C500016D818E0BAF1000F05D0211809EB08007A
:107C60002A46091D04E0204409EB08012A46001DAC
:107C7000FBF702FC00202468761BA844B74201D918
:107C8000354600E03D46002EE4D1BDE8F08770B5F2
:107C90008EB00E4605461C216846FBF706FC002404
:107CA0009DF80000019420F0100040F00A008DF8CB
:107CB000000003940494059406940C94B0798DF814
:107CC0003000F0798DF831009DF83200142120F059
:107CD0000600801C20F019008DF8320095F8500045
:107CE0008DF8360041F20440ADF8340007A8FBF7E8
:107CF000DCFB0DA807900CA808900120ADF824002B
:107D00000520ADF82640ADF82800A88805F11E032F
:107D100007AA6946A2DF0EB070BD000030B50B4661
:107D2000024601F0EFF963B10021094C0CE000BFFD
:107D300001EB410304EB830315685B88AB4202D17E
:107D40001160002030BD491C8142F1D3052030BDB7
:107D5000B4220020F8B50E460178144605460129E4
:107D600001D1687830B12088821C9A422DD801292F
:107D700002D006E00720F8BD69780144891C9942C9
:107D800023D8181A801E87B2ADF800702188B01C65
:107D9000084469467DDF0028EDD12878022805D106
:107DA000BDF80010B94201D809210AE008210128D4
:107DB00005D16878B84202D8ADF8000001E0ADF80E
:107DC0000070BDF80000FE2801D90C20F8BD228803
:107DD000401CB0542088401C80B220803154208840
:107DE000401C2080BDF80010084420800020F8BD11
:107DF00070B505460C004FF0FF0020D04FF6FF761F
:107E0000B5421CD00E48012241782846FCF728FFD5
:107E10002846FEF751FEFF2803D1FEF769FEFF2832
:107E20000DD0084B00EB400203EB82014D8023F89C
:107E3000226022684A60A2880A81A2798A7270BD93
:107E4000982100207026002070B54FF6FF750E4671
:107E5000A84201D1002000E0401C84B208E0214685
:107E6000304603F05CF808B1204670BD641CA4B233
:107E7000FF2CF4D9284670BD08B500216A46FBF7EF
:107E80007EFA08BD08B501216A46FBF76BFA009837
:107E900008BD38B5044600258DF800506846FCF74B
:107EA00063FA21686268086890420ED9401E086033
:107EB0000178238AE26801FB0325227A2168101ADF
:107EC000C0B20A79824200D208719DF80000FCF726
:107ED0006FFA284638BD38B5054600208DF80000F9
:107EE0000C466846FCF740FAE868298A201AB0FB7D
:107EF000F1F12A681068431C136001709DF80000BE
:107F0000FCF756FA38BD10B530B1017A4268036803
:107F1000891AC9B21A6006E00E2010BD03681A68FB
:107F2000541C1C601170491EC9B2F7D200680021B0
:107F30000171084610BDC20800F007030120895CEA
:107F400098400840704710B560B10161172120F8D2
:107F5000021B20F8021B1B2100F8021BFFF718FA76
:107F6000002010BD0E2010BD2DE9F043858895B08E
:107F70000C46002D3DD10188DFF824810026DFF872
:107F80002491012724293CD006DC102909D011298D
:107F90000CD023296DD150E03A290BD0552968D156
:107FA0002AE00146204601F0EDFE62E0A01DFFF749
:107FB000EFF95EE02246408934F8061F814200D87E
:107FC00008466080172800D217206080106970B1C1
:107FD000607960B1D8E90010CDE90310ADF80E501A
:107FE0006088ADF81000136903A9104698476671C0
:107FF000267115B0BDE8F0830146204601F010FF60
:1080000037E0011D342206A8FBF736FABDF8180048
:10801000BDF81C2004EBC0014A7322694AB3D8E9B9
:108020000432CDE90432ADF81200487B8DF814001B
:108030002269204604A990471BE00496059630F873
:10804000041F04EBC1020179127B8A4200D211465F
:10805000ADF81010ADF812100088002204A990DFCE
:10806000020006D0B9F800000F4907EB004000F00D
:10807000A3FFA07A0028BCD0E18828469EDF02003A
:108080000BD0112AB5D0B9F8000015B007EB0040AD
:10809000BDE8F043054900F08FBFA672E772A8E77C
:1080A0008CD00200B4220020BCD4020034D40200E0
:1080B00000F180400068002800D00120704708B51A
:1080C00000F18040002101600068009008BD0000C0
:1080D00000283ED01F49204A096800BF00BF00BFEA
:1080E00000BF00BF00BF00BF00BF91422FD000BF44
:1080F00000BF00BF00BF00BF00BF00BF00BF00BF88
:1081000000BF00BF00BF00BF00BF00BF00BF00BF77
:1081100000BF00BF00BF00BF00BF00BF00BF00BF67
:1081200000BF00BF00BF00BF00BF00BF00BF00BF57
:1081300000BF00BF00BF00BF00BF00BF00BF00BF47
:1081400000BF00BF00BF00BF00BF00BF00BF0138BD
:10815000C3D17047882200200024F40070B54FF08E
:1081600010246169104D0126491C288814D06269C9
:10817000032101EB00400DA100F01EFF606913DF39
:10818000040007D0288814A106EB004000F010FF7F
:10819000204670BD002070BD06EB00401BA100F022
:1081A00007FF042070BD0000202300205365747475
:1081B000696E6720766563746F72207461626C65A6
:1081C00020746F20626F6F746C6F616465723A2007
:1081D00030782530387800004661696C656420721B
:1081E000756E6E696E672073645F736F6674646525
:1081F000766963655F766563746F725F7461626CE4
:10820000655F626173655F73657400004E6F206225
:108210006F6F746C6F616465722077617320666F35
:10822000756E640070B50C4D03210C4A288801EB73
:1082300000400BA100F0C0FE084813DF040008D086
:108240002888012101EB004010A100F0B1FE20467A
:1082500070BD002070BD000020230020003002000F
:1082600053657474696E6720766563746F722074E9
:1082700061626C6520746F206D61696E2061707041
:108280003A20307825303878000000004661696C6B
:1082900065642072756E6E696E672073645F736FBC
:1082A00066746465766963655F766563746F725F33
:1082B0007461626C655F626173655F736574000011
:1082C0002DE9F0410F4D0026287808B1852616E0EB
:1082D0000024AC606C602C61EC604FF0E020D0F8C2
:1082E0000001012710F0010F03D10721002000F049
:1082F00023F801F05BFA08B9034804602F70304698
:10830000BDE8F081702B00201805004008B5002062
:108310008DF800006846FCF727F80648C168491E3A
:10832000C160C06808B9FEF7D3FF9DF80000FCF7F4
:108330003FF808BD702B00204907090E002806DA17
:1083400000F00F0202F1E02282F8141D03E000F1B8
:10835000E02282F8001400F01F0201219140400940
:10836000800000F1E020C0F88012C0F800117047D2
:108370002DE9F0418846054602F0E6FB234E002831
:1083800028461AD0FDF722FC304490F848008009B6
:10839000032802D001280ED007E04FF0A040D0F80B
:1083A0001005E84010F0010F05D003212846BDE874
:1083B000F04100F007BC0221F8E702F0D1FB0028F1
:1083C00022D02846FDF702FC04464FF4807000EBF3
:1083D00084000F4F81B207EB8400D0F8102542F0E3
:1083E0000102C0F81025084600F02AFCB8F1000F81
:1083F0000AD02846FDF7EAFB56F82000002803D0F3
:108400000120A040C7F80403BDE8F081842B0020C0
:10841000006000402DE9FC41DFF8A480044608EB31
:108420000400002790F930001346C0170E46401C88
:1084300001D0082741E0F27819462046FDF7A2FB5B
:108440000546401C38D0B07850B14FF0A04000EB4A
:108450008400D0F8001721F00201C0F8001707E0EF
:1084600000217378204600910A46019100F087FBB5
:10847000F078C0B11348317800EB8500D0F81025B2
:10848000114B1A40C0F810254FF4F8524FF4403306
:1084900002EA042203EA01410A43D0F810150A4314
:1084A000C0F8102509E008EB0500327810F8481FE5
:1084B00041EA8211017000E004273846BDE8FC81E2
:1084C000842B002000600040FFE0FCFF4FF0A04143
:1084D000D1F81015C14011F0010000D00120704703
:1084E00070B5144D95F8540008B1082070BD0020F7
:1084F000411E2A18401CC0B282F830102028F8D340
:1085000000242046FDF730FB641CE4B20C2CF8D3A9
:1085100007210620FFF710FF4FF4BE7000F090FB1C
:1085200005494FF00040C1F80403012085F85400CC
:10853000002070BD842B002000600040034890F8AC
:108540005400002800D0012070470000842B002038
:108550002DE9F041254C064612200D46C4F80803CB
:108560002348017C022918D0027C01464FF4807810
:1085700091F82E10012A12D00222C4F804230127F8
:108580000774466005810022C26021B3458390F8DC
:108590002D10304600F02EFF25E0122002E0C268C8
:1085A0002AB10220C4F804031120BDE8F081C6609E
:1085B000058361B94746384600F062FF0028FAD0CB
:1085C000384600F065FF2946304600F013FF0220D0
:1085D000C4F8040307E02946304600F00BFF40468C
:1085E00000F056FF27600020DFE700000070004029
:1085F000FC2B002070B50C4614490546087C08B1D8
:10860000112070BD2079124E08B1012801D100203F
:10861000306001EB4500027F1AB911F82D2F521C72
:108620000A70E1790177217A41772146284600F0E6
:10863000E9FE227AE179284600F018FF207908B196
:10864000012801D101203060002070BDFC2B0020EA
:10865000007500402DE9F0411D4C054694F82C00B2
:1086600010B10820BDE8F08109B115B102E0072082
:10867000F8E7184D44F8101B174928780860091DC1
:1086800068780860E878A0770127277700202070B5
:1086900060776060114EE0776FF00040C6F8080325
:1086A0004FF4827000F0F4FEB01500F0F1FEA978EE
:1086B0000720FFF741FE0220C6F80403A07F10B197
:1086C0000120C6F804030448F03807600020C9E719
:1086D000FC2B002028D10200F07500400070004003
:1086E0000FB408B50399002904D004AA00926A4681
:1086F00000F00FF801B05DF814FB10B58268044675
:10870000002A05D0D4E90403216898470020A0601E
:1087100010BD2DE9FC4791460C00804676D014F838
:10872000011B39B125290ED04046FDF7E3F9207829
:108730000028F4D198F80C00002867D04046BDE826
:10874000FC47FFF7DABF0020012221782B291BD03C
:108750002D2902D0302908D102E040F0010001E0CB
:1087600040F00200641C002AEFD100252A290ED017
:108770002178A1F130020A2A11D205EB850201EB22
:108780004205641C303DF1E740F00400EAE7D9F807
:1087900000100B1DC9F800300968641C0D442178D5
:1087A00000232E290BD114F8011FA1F130020A2A4F
:1087B00005D203EB830201EB4203303BF3E76C2964
:1087C0000DD068290BD0692921D00BDC252918D0C0
:1087D000582931D063290ED0642915D117E014F837
:1087E000011FECE7702969D0732932D075291BD09D
:1087F000782909D120E0D9F80000011DC9F800103E
:1088000001784046FDF776F9641C90E76CE0D9F8F2
:1088100000100A1DC9F800200968CDE900500A229D
:108820004046FEF7A3FCEFE7D9F800100A1DC9F88F
:10883000002009680A2206E0D9F800100A1DC9F8CC
:10884000002009681022CDE90050404604F0E6F807
:10885000DAE7D9F8001000270A1DC9F800200E68D1
:10886000C00705D112E04046761C7F1CFDF742F997
:1088700031780029F7D104E0202140466D1EFDF734
:1088800039F9BD42C0D9002DF6D1BDE74EB1304611
:10889000FAF716FE074604E0202140466D1EFDF75C
:1088A00029F9BD4206D9002DF6D103E04046761CD9
:1088B000FDF720F931780029F8D1A5E7D9F80000B3
:1088C000011DC9F80010056830214046FDF712F976
:1088D00078214046FDF70EF908200021CDE900017E
:1088E000034610222946B0E7BDE8FC872DE9F04198
:1088F0001F46154604000E4616D02068B8B1C5B113
:1089000060680268501E304215D16A432046FBF76A
:10891000CCFA80B120683B462A46D0F810C03146D8
:108920002046BDE8F04160470E20BDE8F0810820F8
:10893000FBE70920F9E71020F7E720B119B1016042
:108940000B68114618470E20704700002DE9F041D2
:1089500028B1016819B14969BDE8F04108470D4DDA
:108960000D480024461B14270DE000BF04EB8400D3
:1089700005EB8000016829B14969884710B10120E1
:10898000BDE8F081641CB6FBF7F0A042EED80020F1
:10899000F6E700008C220020B42200202DE9F041EF
:1089A0001D46164604000F4617D0B6B12068B8B170
:1089B000C5B10846FBF773FAB0B12A4639462046DE
:1089C000FBF773FA80B120682B463246D0F808C016
:1089D00039462046BDE8F04160470E20BDE8F081F1
:1089E0000820FBE70920F9E71020F7E708B1012884
:1089F00008D1054801218170017809B9407808B192
:108A0000002070470120704720220020012801D05B
:108A1000032808D10449002201288A7000D00020D0
:108A2000C87002F087BD704720220020F0B52F4E9D
:108A3000074687B030780025F0B32D4C022FD4F8CC
:108A4000E000C0EBC00004EB8001304602D0032FF1
:108A50003FD117E04560087910B1012839D10AE00B
:108A6000D1E90502801A4FF48053984200D318468A
:108A70001044886102E00869401C08614A6990421C
:108A800006D026E04268521C4260082A21D945607F
:108A90001C226846FAF7F0FCD4F8E400401EC4F843
:108AA000E400D4F8E000401CC4F8E000082801D13C
:108AB000C4F8E050357000E008E0022F04D00D212A
:108AC0006846FDF78BFA04E00021F9E7707800B101
:108AD0007570B07820B107B0BDE8F04000F06CBE12
