:020000040007F3
:1030000080630020A1330700A9330700AB3307001A
:10301000AD330700AF330700B133070000000000F5
:103020000000000000000000000000008D330700D9
:10303000B533070000000000B7330700B9330700BD
:1030400001480700BB330700BB330700BB33070051
:10305000BB330700BB330700BB330700BB3307009C
:10306000BB330700BB330700BB330700BB3307008C
:10307000BB330700BB330700BB330700BB3307007C
:10308000BB33070059480700BB330700BB330700B9
:10309000DD480700BB330700E1480700BB330700EA
:1030A000BB330700BB330700BB330700BB3307004C
:1030B000BB330700BB330700000000000000000026
:1030C000BB330700BB330700BB330700BB3307002C
:1030D000BB330700BB330700BB3307000000000011
:1030E00000000000000000000000000000000000E0
:1030F00000000000000000000000000000000000D0
:1031000000000000000000000000000000000000BF
:1031100000000000000000000000000000000000AF
:10312000000000000000000000000000000000009F
:10313000000000000000000000000000000000008F
:10314000000000000000000000000000000000007F
:10315000000000000000000000000000000000006F
:10316000000000000000000000000000000000005F
:10317000000000000000000000000000000000004F
:10318000000000000000000000000000000000003F
:10319000000000000000000000000000000000002F
:1031A000000000000000000000000000000000001F
:1031B000000000000000000000000000000000000F
:1031C00000000000000000000000000000000000FF
:1031D00000000000000000000000000000000000EF
:1031E00000000000000000000000000000000000DF
:1031F00000000000000000000000000000000000CF
:10320000DFF80CD000F034F900480047F16A0700FD
:1032100080630020056885F308884068FF2464B255
:10322000EFF30585002D07D1EFF3148102229143BE
:1032300081F31488A64600472546064621273FBA53
:10324000F0B40024002500260027F0B4F92040B295
:103250000047000030B4044654E8000F0D4644E82F
:103260000053002BF8D1156030BC704730B40446D1
:1032700054E8000F40EA010544E80053002BF7D161
:10328000156030BC704730B4044654E8000F00EAC3
:10329000010544E80053002BF7D1156030BC70479E
:1032A00030B4044654E8000F80EA010544E80053B6
:1032B000002BF7D1156030BC704730B4044654E899
:1032C000000F00EB010544E80053002BF7D1156017
:1032D00030BC704730B4044654E8000FA0EB010541
:1032E00044E80053002BF7D1156030BC7047000054
:1032F00030B4044654E8000F0D4644E80053002B58
:10330000F8D1156030BC704730B4044654E8000F63
:1033100040EA010544E80053002BF7D1156030BCAA
:10332000704730B4044654E8000F00EA010544E851
:103330000053002BF7D1156030BC704730B4044601
:1033400054E8000F80EA010544E80053002BF7D150
:10335000156030BC704730B4044654E8000F00EBF1
:10336000010544E80053002BF7D1156030BC7047CD
:1033700030B4044654E8000FA0EB010544E80053C4
:10338000002BF7D1156030BC704700001EF0040F11
:103390000CBFEFF30880EFF3098007F011BA0000CB
:1033A0000648804706480047FEE7FEE7FEE7FEE7DF
:1033B000FEE7FEE7FEE7FEE7FEE7FEE7014907005E
:1033C00001320700202A04DB203A00FA02F1002033
:1033D00070479140C2F1200320FA03F31943904053
:1033E000704700000048704730C7070040EA0103FB
:1033F0009B0703D009E008C9121F08C0042AFAD2AB
:1034000003E011F8013B00F8013B521EF9D270476E
:10341000D2B201E000F8012B491EFBD27047002216
:10342000F6E710B513460A4604461946FFF7F0FFC3
:10343000204610BD421C10F8011B0029FBD1801A48
:10344000704730B504460020034600E05B1C934201
:1034500003D2E05CCD5C401BF8D030BD034611F8D0
:10346000012B00F8012B002AF9D118467047000003
:10347000064C074D06E0E06840F0010394E80700C1
:1034800098471034AC42F6D3FFF7BEFEFCCD0700E0
:103490001CCE070070B58C1810F8015B15F00703FF
:1034A00001D110F8013B2A1106D110F8012B03E0DD
:1034B00010F8016B01F8016B5B1EF9D12B0705D4E5
:1034C0000023521E0DD401F8013BFAE710F8013B2E
:1034D000CB1A921C03E013F8015B01F8015B521E4A
:1034E000F9D5A142D8D3002070BD2DE9F0438BB0AF
:1034F0008046129D15F9046B009614461F468946B6
:103500002B4602A81146424600F0BBFC02A8014629
:10351000129A00F0A6FC4046414602AA129B00F017
:1035200090FC2046214602AA129B00F08AFC2B4602
:10353000384639464A46009600F0A3FC02A83946B0
:10354000129A00F08EFC02A8014642462B460096D5
:1035500000F097FC02A8014622462B46009600F098
:1035600090FC2046214642462B46009600F089FCFE
:10357000484649462246129B00F063FC20464146DD
:1035800002AA2B46009600F07CFC384639462246BB
:10359000129B00F056FC384639464A462B460096A8
:1035A00000F06FFC204602A9324600F034FE0BB05A
:1035B000BDE8F083F0B589B01C4607460E461546B7
:1035C000684611461A4600F04CFC384639466A46B1
:1035D000234600F036FC684669462A46234600F03A
:1035E00030FC304631466A46234600F02AFC09B0DA
:1035F000F0BD1AB1013A8B5C8354FAE770472DE9AC
:10360000F0478846B3F902101F460825CB1D202439
:1036100093FBF5F51F31954291FBF4F44FFA84F9D1
:1036200028BF15460646494600F076FA2A46304637
:103630004146FFF7DEFFB7F90230ED009D4220D989
:10364000ED1A06EB840100228E420AD251F8040DD5
:1036500020FA05F313430B60C5F1200300FA03F2CF
:10366000F2E72437384631464A4600F061FA01282D
:1036700007D0304631463A464B46BDE8F04700F0A9
:103680001FBFBDE8F0872DE9F04793F9006092B0C5
:1036900004468946104631461546984600F072FAAF
:1036A000002840F0978002A84946424600F0D9FB26
:1036B00043460AA8214602AA00F0C3FB02A801461D
:1036C000424600F0CEFB4346484649462A4600F0B3
:1036D000B8FB08F1040728462946424600F0C1FB22
:1036E000204621462A463B46009600F0F9FA284635
:1036F00029462A463B46009600F0F2FA2846214623
:103700002A463B46009600F0BCFB204621462A464E
:10371000434600F096FB2846214622463B4600964B
:1037200000F0DEFA20463B46009621462A4600F08D
:10373000D7FA2368DB07204613D5334621463A469D
:1037400000F0BEF931468246204600F057FD06F1F2
:103750008043013B54F8230040EACA7044F8230038
:1037600002E0314600F04AFD28462146424600F07C
:1037700078FB284629460AAA3B46009600F081FBC2
:10378000284629460AAA3B46009600F07AFB0AA87A
:1037900001462A463B46009600F073FB2046214630
:1037A0000AAA434600F04DFB02A802463B462146CA
:1037B000009600F066FB20462946324600F02BFDBD
:1037C00028464946324600F026FD484602A93246C0
:1037D00000F021FD12B0BDE8F087000000487047FE
:1037E0004CCD07002DE9F04FEFB01E46789C0590B8
:1037F00023780493B4F9023092461F33202293FBBE
:10380000F2F3DBB206939DF9187094F9012007F1E9
:10381000FF3926AB002543F829506EAB03EB890333
:103820004EA88B46314643F8805C43F8605CFFF756
:10383000E0FE94F9012056A8B118FFF7DAFE9DF9D1
:1038400010604EA8314600F09DF98046002840F0F7
:103850002F8156A8314600F095F90546002840F022
:10386000258104F1240840464EA93A4600F060F94B
:10387000012840F01D81404656A93A4600F058F90B
:103880000128089040F014813B461EA856A94246E4
:1038900000F03FFA0DF1380C604659465246234677
:1038A0004CF82950CDF80CC0FFF7A9FEDDF80CC08C
:1038B0000097604661461EAA4346CDF824C00DF528
:1038C000BC7900F0ACFA4346009716A84EA91EAA90
:1038D00000F0A5FA48463246059900F09CFCB3007A
:1038E000039309EB030B039A059B5846991832463C
:1038F00000F091FC04F144031946324636A80793C0
:1039000000F089FC04EB860132463EA8443104F104
:10391000040A00F080FC494600961EA836AA5346C9
:1039200000F0AFFA4A465B4636A83EA90094FFF77E
:10393000DCFD1EA801463346524600F0EAF91EAAF5
:10394000484659462346FFF735FEDDF824C0079B5D
:103950000B936046059B0C933946CDF814C00A952D
:10396000CDF8349000F028FC3946054616A800F042
:1039700023FCA842B8BF284685B2DDF814C06F1EEC
:103980003FB26046394600F0CBFD394610F10009E0
:1039900016A818BF4FF0010900F0C2FD002814BF9F
:1039A0000223002343EA09090DF1280B32465BF894
:1039B000297026A8394600F02EFC039B3246F918E0
:1039C0002EA800F028FC31461EA800F0A5F8023D04
:1039D000089B1E93AEB237B2002F44DB23461EAACB
:1039E000D4F8A45026A82EA9A84739460EA800F05E
:1039F00097FD3946051C16A818BF012500F090FD5B
:103A0000002814BF022300231D430AAB53F825707E
:103A100037B39DF9105036A839462A4600F0FBFB13
:103A2000039B3EA8F9182A4600F0F5FB36A83EA9EC
:103A30001EAA2346FFF7BEFD46A826A936AA53466E
:103A4000009500F01EFA36A83EA926AA2EAB0094D7
:103A5000FFF74BFD1EA8014646AA234600F0F1F9E8
:103A6000013EB6B2B7E79DF910501EA80146524676
:103A70002B4600F04EF9234626A82EA91EAAFFF7D2
:103A800099FD9DF91840404626A9224600F050F8BD
:103A9000012805D026A801464246234600F010FD25
:103AA00026A84EA92A4600F058F802E0404600E059
:103AB00028466FB0BDE8F08F000000000000000055
:103AC000C3F10803DB0070B501330446002003A5F1
:103AD0005B1920C940CAAD1920C4184720C940CA83
:103AE000754120C420C940CA754120C420C940CABC
:103AF000754120C420C940CA754120C420C940CAAC
:103B0000754120C420C940CA754120C420C940CA9B
:103B1000754120C4404170BD10B5002253B28B42A4
:103B200005DA1BB2002440F823400132F6E710BD4D
:103B300010B5013AD2B253B2002B09DB1BB250F8D8
:103B4000234051F823309C4204D8F2D2FF2002E0F7
:103B5000002000E0012040B210BD013A30B5D2B2E1
:103B6000002453B2002B09DB1BB2013A51F8235059
:103B700050F823306B401C43D2B2F2E7B4FA84F021
:103B8000400930BD10B500231A465CB28C4204DAFD
:103B900050F8244001332243F7E7B2FA82F040099B
:103BA00010BD00002DE9F043A3B09846019112AB7F
:103BB0004146074610469146009300F0FDFAC0EBDF
:103BC000881086B2454C33B21C40002CBEBF04F1B5
:103BD000FF3464F01F040134202593FBF5F5EDB2AA
:103BE0006DB2A4B202A8294624B2FFF795FF28B20D
:103BF00002AB002C03EB800010DD0022134643458E
:103C000010D259F8235005FA04F10A4340F8232052
:103C1000C4F1200225FA02F20133F0E74946424698
:103C200000F0F9FA0FFA88F502AB4FEA45090124D2
:103C300003EB8505330444D40022114653B24B45AF
:103C400022DA0DF1880E0EEB840E0DF1880C18B2FD
:103C50005EF888EC0CEB83035EF820E053F8803CC0
:103C6000C3EB0E035B1A734502D08CBF0121002108
:103C7000C4F1010E0DF1880C0CEB8E0E01325EF8D2
:103C800088EC4EF82030D9E7621A544202A8414627
:103C9000544100F0B3FA22AA08F1FF3302EB830388
:103CA00002EB8802284652F8801C53F8802C013E13
:103CB00042EAC172414643F8802CB6B200F09EFA47
:103CC000B8E722AB03EB8404384654F8881C42461C
:103CD00000F0A1FA23B0BDE8F08300BF1F00008010
:103CE00070B59DF910401D4623460646FFF7E8FED5
:103CF00030B9284631462246FFF71AFF012807D07F
:103D0000304631462A462346BDE8704000F0D8BB15
:103D100070BDF0B50646A1B00F46084619461546D7
:103D20001C46FFF72FFF20B130462146FFF7F4FE77
:103D300073E068463946224600F06DFA08A8294625
:103D4000224600F068FA10A82146FFF7E5FE01239D
:103D500018A821461093FFF7DFFE684608A92246FF
:103D6000FFF7E6FE002853D0009BDA0704D468462C
:103D7000214600F043FA26E0089BDB0704D408A89C
:103D8000214600F03BFA3DE000281EDD08AA23464C
:103D90006946684600F094FB6846214600F02EFA1A
:103DA00010A818A92246FFF7C3FE002805DA10A8BC
:103DB00001462A462346FFF783FE10A8014618AAAB
:103DC000234600F07DFB10A81DE008A86A462346A4
:103DD000014600F075FB08A8214600F00FFA18A86C
:103DE00010A92246FFF7A4FE002805DA18A801460C
:103DF0002A462346FFF764FE18A8014610AA234668
:103E000000F05EFB18A82946224600F06BFCA4E7F0
:103E1000304610A9224600F0FEF921B0F0BD70B581
:103E200090B006469DF950401D466846234600F076
:103E30003AF8304669462A462346FFF7B3FE10B0EB
:103E400070BD30B51C4691B0054693F90030684608
:103E500000F029F8D4F8AC3028466946984711B0EC
:103E600030BD30B5144691B0054692F90020684641
:103E700000F0DEF9D4F8AC3028466946984711B016
:103E800030BD70B59DF910401D462346064600F032
:103E900017FB38B1304631462A462346BDE870400C
:103EA000FFF70EBE70BD2DE9F04F08B4F8CA04B498
:103EB00051F8042BA3FB028940F8048B4FF0000A51
:103EC000E4FB629A4FF0000BE5FB62AB4FF0000C95
:103ED000E6FB62BC4FF0000EE7FB62CE51F8042B0C
:103EE0004FF00008E3FB628940F8048BE4FB629A20
:103EF000E5FB62ABE6FB62BCE7FB62CE51F8042B4C
:103F00004FF00008E3FB628940F8048BE4FB629AFF
:103F1000E5FB62ABE6FB62BCE7FB62CE51F8042B2B
:103F20004FF00008E3FB628940F8048BE4FB629ADF
:103F3000E5FB62ABE6FB62BCE7FB62CE51F8042B0B
:103F40004FF00008E3FB628940F8048BE4FB629ABF
:103F5000E5FB62ABE6FB62BCE7FB62CE40F8049B8C
:103F600040F804AB40F804BB40F804CB40F804EB45
:103F70000CBC052B00F01E810C68A0F11400A1F10F
:103F80001401A2F1140252F804EB4FF0000550F8AE
:103F9000046BE4FB6E5652F804EB50F8047BE4FB30
:103FA0006E6752F804EB50F8048BE4FB6E7852F81D
:103FB00004EB50F8049BE4FB6E8952F804EB50F8D4
:103FC00004ABE4FB6E9AA0F1140052F8044B51F8D4
:103FD00004EB4FF0000CE4FB6EC540F804CB51F845
:103FE00004EBE4FB6E5640F8045B51F804EBE4FB91
:103FF0006E6740F8046B51F804EBE4FB6E7840F810
:10400000047B51F804EBE4FB6E8940F8048B51F813
:1040100004EBE4FB6E9AA0E80006062B00F0CA80D1
:104020000C68A0F11800A1F11801A2F1180252F8D1
:1040300004EB4FF0000550F8046BE4FB6E5652F8A9
:1040400004EB50F8047BE4FB6E6752F804EB50F885
:10405000048BE4FB6E7852F804EB50F8049BE4FB0D
:104060006E8952F804EB50F804ABE4FB6E9A52F8F8
:1040700004EB50F804BBE4FB6EABA0F1180052F85F
:10408000044B51F804EB4FF0000CE4FB6EC540F814
:1040900004CB51F804EBE4FB6E5640F8045B51F896
:1040A00004EBE4FB6E6740F8046B51F804EBE4FBAF
:1040B0006E7840F8047B51F804EBE4FB6E8940F81D
:1040C000048B51F804EBE4FB6E9A40F8049B51F822
:1040D00004EBE4FB6EABA0E8000C072B6AD008B43D
:1040E0000C68A0F11C00A1F11C01A2F11C0252F805
:1040F00004EB4FF0000550F8046BE4FB6E5652F8E9
:1041000004EB50F8047BE4FB6E6752F804EB50F8C4
:10411000048BE4FB6E7852F804EB50F8049BE4FB4C
:104120006E8952F804EB50F804ABE4FB6E9A52F837
:1041300004EB50F804BBE4FB6EAB52F804EB50F810
:1041400004CBE4FB6EBCA0F11C0052F8044B51F808
:1041500004EB4FF00003E4FB6E3540F8043B51F8EC
:1041600004EBE4FB6E5640F8045B51F804EBE4FB0F
:104170006E6740F8046B51F804EBE4FB6E7840F88E
:10418000047B51F804EBE4FB6E8940F8048B51F892
:1041900004EBE4FB6E9A40F8049B51F804EBE4FB5B
:1041A0006EAB40F804AB51F804EBE4FB6EBCA0E846
:1041B000001808BCBDE8F08F0139C9B24BB2002B22
:1041C0000BDA013111F0FF0315D059B201F1804330
:1041D000013B50F82320002304E050F82330002B4B
:1041E000EAD0EEE712B152080133FBE7481E03EBB9
:1041F000401080B200E0184600B2704700EB810129
:104200000023884206D251F8042D43EA52030B6082
:10421000D307F6E7704730B5002463B2934206DA5D
:104220001BB2013451F8235040F82350F5E730BD5C
:104230002DE9F04FB1E8005E06B4AAFB09124FF079
:104240000003EBFB69234FF00004ECFB69344FF0F3
:104250000005EEFB69454FF00006EBFB6A63ECFBE3
:104260006A344918524176415B41A9FB09784FF005
:10427000000949F1000918EB0108A0E88001AAFB38
:104280000A78574158EB0608A0E88001EEFB6A4522
:104290004FF0000A4AF1000A4FF00001ECFB6B14EA
:1042A000EEFB6B454FF00002EEFB6C255FEA59090F
:1042B0004941644152416D4149F10009EBFB6B3AC0
:1042C0001AEB010AA0E80804ACFB0C6A66415AEB41
:1042D000020AA0E84004AEFB0E6A6E415AEB090ADE
:1042E000A0E8400406BC052A00F0E680A0F1140016
:1042F000A1F11401B1E8E043A5FB0E344FF0000535
:10430000E6FB6E454FF00006E7FB6E564FF00007E8
:10431000E8FB6E674FF00008E9FB6E784FF000098C
:10432000DB1864416D4176417F4158EB080859F133
:10433000000950F804CB13EB0C0350F804CB54EBFA
:104340000C0450F804CB55EB0C0550F804CB56EB9D
:104350000C0650F804CB57EB0C0758F1000859F144
:104360000009A0F11400EEFB0E89A0E8F803062A6C
:1043700000F0A280A0F11800A1F11801B1E8E04717
:10438000A5FB0E344FF00005E6FB6E454FF000062E
:10439000E7FB6E564FF00007E8FB6E674FF0000832
:1043A000E9FB6E784FF00009EAFB6E894FF0000AD6
:1043B000DB1864416D4176417F4158EB080859EBA9
:1043C00009095AF1000A50F804CB13EB0C0350F81A
:1043D00004CB54EB0C0450F804CB55EB0C0550F80F
:1043E00004CB56EB0C0650F804CB57EB0C0750F8F7
:1043F00004CB58EB0C0859F100095AF1000AA0F15E
:104400001800EEFB0E9AA0E8F807072A54D0A0F196
:104410001C00A1F11C01B1E8E04FA5FB0E344FF0E8
:104420000005E6FB6E454FF00006E7FB6E564FF0C9
:104430000007E8FB6E674FF00008E9FB6E784FF06D
:104440000009EAFB6E894FF0000AEBFB6E9A4FF011
:10445000000BDB1864416D4176417F4158EB080841
:1044600059EB09095AEB0A0A5BF1000B50F804CB2F
:1044700013EB0C0350F804CB54EB0C0450F804CBB2
:1044800055EB0C0550F804CB56EB0C0650F804CB5A
:1044900057EB0C0750F804CB58EB0C0850F804CB42
:1044A00059EB0C095AF1000A5BF1000BA0F11C005A
:1044B000EEFB0EABA0E8F80FBDE8F08F00000000A7
:1044C000C3F10803DB0070B50133002403A500BF6E
:1044D0005B1920C940CAAD1B20C0184720C940CA7B
:1044E000B54120C020C940CAB54120C020C940CA3A
:1044F000B54120C020C940CAB54120C020C940CA2A
:10450000B54120C020C940CAB54120C020C940CA19
:10451000B54120C06441B4FA84F0400970BD00BFC9
:104520004A11012301F01F0150F822008B4018406E
:1045300070470000F0B50C4689B008220646FFF728
:104540006AFEE36A0393236B0493636B0593A36B87
:104550000693E36B0793002769466A46082368467B
:10456000029701970097FFF7ABFA314605466A4676
:1045700008233046FFF7A4FA236B0393636B04937D
:10458000A36B0593E36B0693054469466A460823CB
:1045900068460797FFF794FA314605446A460823B0
:1045A0003046FFF78DFA236A0093636A0193A36A8A
:1045B0000293A36B0693E36B0793054431466A4667
:1045C00008233046059704970397FFF779FA636A43
:1045D0000093A36A0193E36AA26B0293636B039354
:1045E00004920693E26B236A0592054407933146D1
:1045F0006A4608233046FFF763FAE36A0093236BA9
:104600000193636B0293236A0693A36A079305449D
:1046100031466A4608233046059704970397FFF70B
:104620004FFF236B0093636B0193A36B0293E36BC8
:104630000393636A0693E36A07932D1A31466A4629
:104640000823304605970497FFF73AFF636B009302
:10465000A36B0193E36B0293236A0393636A04934E
:10466000A36A0593236B07932D1A31466A460823E4
:1046700030460697FFF724FFA36B0093E36B01938B
:10468000636A0393A36A0493E36A0593636B0793D6
:104690002D1A314630466A46082302970697FFF7DF
:1046A0000FFF2D1A16D5304631460D4A0823FFF765
:1046B00007FA4519F7D410E0094831460822FFF7F8
:1046C00037FA012809D030463146054A0823FFF75A
:1046D000F7FE2D1A002DEFD0F5E709B0F0BD00BFB1
:1046E00050CD0700F8B5036813F0010506460F46E4
:1046F000144605D001463A462346FFF7E1F9054640
:1047000030462146FFF77AFD45B104F18042013A77
:1047100056F8223043F0004346F82230F8BD2DE928
:10472000F04115468AB00446884602A8002120229E
:10473000FEF777FE2E780323204641462A462F1D9A
:1047400076B20293FFF78DFB2046214602AA3B4634
:104750000096FFF796FB2046214642462B46FFF780
:1047600070FB00962046214605F184023B46FFF788
:10477000B7FA0AB0BDE8F08100F01F0201219140B4
:104780004009800000F1E020C0F88012704700F07E
:104790001F02012191404009800000F1E020C0F893
:1047A0000011704700F01F02012191404009800074
:1047B00000F1E020C0F8001270474907090E0028F8
:1047C00006DA00F00F0000F1E02080F8141D7047B9
:1047D00000F1E02080F8001470470000BFF34F8F15
:1047E00005480168054A01F4E06111430160BFF327
:1047F0004F8F00BFFDE700000CED00E00400FA055C
:104800002DE9F0414FF48077384602F03FFB012458
:10481000104EA50748B1384602F03FFB0120C5F80D
:1048200008037470002001F029F94FF482773846AC
:1048300002F02CFB00280BD0384602F02EFB0220A1
:10484000C5F80803B470BDE8F041012001F016B9C5
:10485000BDE8F081C42B002007480021C0F84011BA
:10486000C0F84411C0F84811C0F84C11C0F800114C
:10487000C0F8041107F088BB0010014000F0BEB979
:1048800070B50E46144900EB400001EBC00514461C
:10489000E86A183520B101280FD0022805D113E0AD
:1048A000284600F0E1F9A04201D2002411E022469E
:1048B0003146284600F010FA0BE0284600F0D4F903
:1048C000A042F4D20446F2E73146284600F0D7F978
:1048D0000446204670BD0000F832002007F0A2BA5E
:1048E00010B50021054A084600F008FB002803D057
:1048F000BDE8104000F0E6BA10BD0000A551070069
:10490000F0B5AE480023021D01780125101D4FF0BF
:10491000805406290BD11678360708D10678C6F3DD
:104920000316032E06D0042E04D0052E02D006292D
:1049300007D00EE0B4F82463A14FC6F304263E600E
:1049400002E01678360704D10678C6F30316032E64
:1049500002D0062904D00FE09B4F9A4E7E670EE0EE
:104960001678360708D10678C6F30316032E06D04C
:10497000042E04D0052E02D0062907D00EE0D4F86C
:104980004462924FC6F342363E6002E01678360724
:1049900004D10678C6F30316032E02D0062906D0EA
:1049A00011E08B4E376827F0807737600EE016787D
:1049B000360708D10678C6F30316032E06D0042E58
:1049C00004D0052E02D006290AD011E04FF080460F
:1049D000C6F80C31C6F810317C4E361F336002E049
:1049E0001678360704D10678C6F30316032E02D0D4
:1049F000062905D00CE0754F032664373E600AE0B7
:104A00001678360704D10678C6F30316032E02D0B3
:104A100006290DD014E06F4F05263E606D4E7836A6
:104A200035606C4E083633603F263F1D3E6002E025
:104A30001678360704D10678C6F30316052E02D081
:104A4000062957D062E0644E3668644F3E60624E7D
:104A5000361D36683F1D3E605F4E083636683F1D86
:104A60003E605D4E0C3636683F1D3E605A4E103635
:104A700036683F1D3E60584E143636683F1D3E6016
:104A8000554E18363668554F20373E60524E1C360C
:104A900036683F1D3E60504E203636683F1D3E60F2
:104AA0004D4E243636683F1D3E604B4E28363668E4
:104AB0003F1D3E60484E2C3636683F1D3E60464ED8
:104AC00030363668454F40373E60434E34363668A0
:104AD0003F1D3E60404E383636683F1D3E603E4EBC
:104AE0003C3636683F1D3E603B4E403636683F1DC3
:104AF0003E6002E01678360708D10678C6F3031642
:104B0000032E06D0042E04D0052E02D0062907D08D
:104B100019E0D4F85812324A01F04F01116002E056
:104B2000117809070FD10078C0F30310032803D0D0
:104B3000042801D0052806D12A480168C90702D0F7
:104B40006FF00101016022487438016841F470017E
:104B50000160BFF34F8FBFF36F8F4FF01021D1F87B
:104B60000002002803DBD1F80402002822DA1E4AE2
:104B700015601E480468002CFCD01524C1F80042C2
:104B80000568002DFCD0C1F8044201680029FCD062
:104B9000136001680029FCD0BFF34F8F0C48F03838
:104BA0000168134A01F4E06111430160BFF34F8FC4
:104BB00000BFFDE710490F480860F0BDE00F00F0AE
:104BC000403501400DF0ADBA00C007403C05004043
:104BD000FCED00E0105600400404001020C5004029
:104BE000E40E00400004004004E5014000E4014000
:104BF0000400FA050090D0035422002010B5124C96
:104C000002202061606111A0A06104F17800E061E0
:104C10004FF4805020620020A06260620BA1A1646A
:104C2000E0620D49E1641021A065C4E91410E0655B
:104C30000AA1E01DFEF712FC09A12046FEF70EFCBA
:104C40002020A07110BD0000F83200205465726D64
:104C5000696E616C000000007043002052545400E3
:104C600053454747455200000269C1688A4203D84C
:104C70008068401A104400E0501A401E70472DE929
:104C8000F047C4681746894606464FF00008306969
:104C9000A04201D9051B02E0B168201A0D1AB068C4
:104CA0006D1E001BA84200D80546BD4200D33D46FC
:104CB00070682A4620444946FEF798FBB0687F1B7F
:104CC0002C44A844A944A04200D10024F460002F41
:104CD000DDD14046BDE8F0872DE9F0410446884625
:104CE000D4E90207C51BE168606816460844B5426E
:104CF00006D94146FEF77AFBB819E060BDE8F081BD
:104D00002A464146FEF772FB761B08EB0501324648
:104D10006068FEF76BFBE660F0E702E008C8121F70
:104D200008C1002AFAD170477047002001E001C194
:104D3000121F002AFBD170470121202803DA81408D
:104D40000548014003E0402802DA2038814009B1DB
:104D50000120704700207047FC06FFBD800701D08E
:104D60000020704701207047C3688B4206D8114469
:104D70000069491E814201D8012070470020704718
:104D800086B00B21ADF8141002218DF8001001221D
:104D90008DF801208DF8020003208DF803008DF8B6
:104DA000041059208DF80500FE208DF8060005A995
:104DB0000DF109007DDF002818D1BDF814000B2883
:104DC00008D8411C8DF80710092109308DF808100A
:104DD00080B206E00C208DF8070008208DF808004E
:104DE0001420C1B200231A46684672DF06B070472D
:104DF0001FB5124B06240FCB8DE80F00104804217D
:104E0000008801EB00400FA105F080F92046FFF774
:104E1000B7FF00280FD174DF0021684673DF002838
:104E200009D14FF0A0414FF08050C1F80C050C2083
:104E300004F0B3FF002004B010BD000004C307005D
:104E4000B4220020232323232041647665727469F1
:104E500073696E67204E4F20424F4E44494E4720A3
:104E6000232323230000000008B51346024606480A
:104E700000930123008803EB00400B4603A105F0DB
:104E800058F9FFF7ABFC0000B422002052656365BF
:104E9000697665642061206661756C74212069649F
:104EA0003A203078253038782C2070633A203078DA
:104EB000253038782C20696E666F3A20307825309E
:104EC00038780000024605480121008801EB0040C7
:104ED00003A105F01FF9FFF781FC0000B4220020B8
:104EE000526563656976656420616E206572726FD4
:104EF000723A203078253038782100002DE9F84FBB
:104F0000254C8146924660880E46814241D8002752
:104F10004FF6FF788DF80070684600F005F92278AA
:104F20006078A188884201DA401C00E00020C0B20D
:104F3000904204D19DF8000000F01AF927E065784E
:104F40006078884201DA401C00E0002060709DF823
:104F5000000000F00DF9454519D0A068B9F1000F27
:104F600040F835A00DD066B16188E068324605FB97
:104F700001004946FEF73AFAA06800EBC5008680BA
:104F800002E000EBC50087800020BDE8F88F042018
:104F9000FBE70920F9E70000CC21002010B50E4CFA
:104FA00003E0401C00E000202070207861788142FE
:104FB00010D022786188E068A36802FB010003EB4F
:104FC000C20153F83220898890472078A18888420E
:104FD000E9DAE6E710BD0000CC21002030B5CB00B7
:104FE00008339DB293074FF0000401D0072030BD75
:104FF000044B9A602A44DA605C701C705880998077
:10500000002030BDCC210020074B9B7823B12AB172
:1050100020B10068037C1BB108207047072070474F
:105020004174426100207047D82B002070B506F013
:105030003BFC104800240B21047044700E4D81701D
:1050400014206C602C706C70FFF796FB0721142005
:10505000FFF7B3FB1420FFF79AFB08480460072111
:105060001120FFF7AAFB0548001F0068A860002078
:1050700070BD0000D82B0020DC2100200815014065
:105080002DE9FC47DFF8789099F8023073B368B3E4
:10509000052902D20720BDE8FC87436933B3437C6E
:1050A000012B25D0002704460025884616468DF89A
:1050B0000050684600F038F801A807F007F8C8B1BA
:1050C000012101700F4944600968C0E90218C0E974
:1050D00004769DF8040089F801009DF8000000F0B6
:1050E00047F81420FFF75EFB2846D4E70820D2E7F4
:1050F0000F46D8E704259DF8000000F039F8F3E7E3
:10510000D82B0020041501400649897839B130B107
:10511000416921B100210174022106F011BF08206C
:1051200070470000D82B002030B5EFF3108172B625
:105130000D4A9468012324B10370002900D162B69E
:1051400030BD93604FF0E023D3F88051074C2540E9
:105150001560C3F88041D3F8844154605A17C3F8EE
:10516000842100220270E8E7E42C0020FC06FFBD49
:105170000B498A68002A11D000280FD1EFF3108064
:1051800072B60B684FF0E022C2F800314B68C2F8EB
:10519000043100228A60002800D162B67047000006
:1051A000E42C002005F07ABA30B50546154C85B0E0
:1051B0004FF6FF70208001208DF812004FF65960E5
:1051C000ADF810002A4604A90120A0DF002817D15D
:1051D0000D4B0FCB8DE80F00A91C684662DF00283D
:1051E0000ED1284601F066F9002809D1284600F0C2
:1051F00089FD002804D1A06840F00100A0600020D3
:1052000005B030BDB821002014C307002DE9F041DE
:10521000174E04270025308816A107EB004004F044
:1052200075FF1C4C2088A0F57F41FF3912D03088D3
:1052300019A107EB004004F069FFA068132140F0BA
:105240000400A060208876DF05000ED1164801F02A
:105250009BFF03E074DF1C2004F09FFD308813A146
:1052600007EB004004F052FF2846BDE8F081000043
:10527000B42200205368757474696E6720646F7778
:105280006E20424C45207472616E73706F72742E82
:1052900000000000B8210020446973636F6E6E65E2
:1052A0006374696E672E0000400D0300424C452078
:1052B0007472616E73706F72742073687574206499
:1052C0006F776E2E0000000070B5224C042522A1DD
:1052D000208805EB004004F019FF1C2004F055FD68
:1052E0000C2004F052FD1C2004F057FD0C2004F0AB
:1052F00054FD012000F074FA00282AD104F07AF855
:1053000060B11D4804F06AF81C48816841F0020150
:10531000816020881AA105EB004003E0208822A1CB
:1053200005EB004004F0F2FE01F0B8F9002810D1BE
:1053300011482838FFF738FF00280AD1FFF758FD39
:10534000002806D1208823A105EB004004F0DEFEF2
:10535000002070BDB4220020496E697469616C69D7
:105360007A696E6720424C4520444655207472612C
:105370006E73706F72740000E8260020B821002060
:105380006E72665F6466755F73657474696E677369
:105390005F6164765F6E616D655F69735F76616C96
:1053A00069642054525545006E72665F6466755F8D
:1053B00073657474696E67735F6164765F6E616D47
:1053C000655F69735F76616C69642046414C534543
:1053D0000000000046696E697368656420696E6943
:1053E0007469616C697A696E6720424C4520444655
:1053F00055207472616E73706F7274002DE9FE4FE8
:1054000004467F4D30F8081B7C4E804628880427D0
:1054100032884FF000094FF0010B42F6052A07EBE6
:105420000040232975D02CDC132951D018DC012928
:1054300070D010292ED0112937D012290ED171A188
:1054400004F064FEA1892089CDE9000128886389E0
:10545000E28907EB0040754904F074FEBDE8FE8F59
:10546000142979D01A2978D01F2954D02129F5D1AF
:105470006FA104F04BFECDF80090A08869468FDF45
:1054800042E050390829E9D2DFE801F0926885A6A8
:10549000B599561E4FF0A0414FF48050C1F80C054D
:1054A0001C2004F07AFCA0880CE00C2004F075FCB1
:1054B000307A400704D4FFF79BFC08B1FFF702FDE8
:1054C0004FF6FF703080C9E7BDE8FE4F03F0A6BC81
:1054D0005CA104F01BFE664801AA514600680190D9
:1054E000CDF808D03088A5DF08B1FFF7EBFC28889D
:1054F000BDF8002007EB00405EA104F00BFE002386
:105500001A46852130887FDF0028A7D0FFF7DAFC14
:10551000A4E758E01CE061A104F0F8FD41463088A2
:1055200075DF04009AD0298822460BEB014067A161
:1055300004F0F0FD204607E0A07900288ED1132169
:10554000104676DF002889D0BDE8FE4FFFF7BABCD1
:105550000021104666DFF5E714E01CE0A079002882
:10556000B1D02146674805F08DFA0028ABD04146FE
:10557000644805F053F90200A5D029880BEB0140DF
:1055800061A133E06DA104F0C1FD00210A46A088AD
:105590000B4686DFD6E70023A0881A461946A9DF06
:1055A00008B1FFF78FFC28886BA107EB004017E0DC
:1055B00003B02146BDE8F04F524805F0ADBAA088CF
:1055C0001721ADDFBEE7CDF80090CDF80490A0889C
:1055D0000022694690DF97E7E288524505D169A12C
:1055E00003B0BDE8F04F04F091BD6EA103B0BDE87B
:1055F000F04F04F08FBD71A1F2E70000B821002048
:10560000B422002052656365697665643A20424C95
:10561000455F4741505F4556545F434F4E4E5F5084
:105620004152414D5F5550444154450080C80700E8
:105630005048592075706461746520726571756594
:1056400073742E0052656365697665643A20424C36
:10565000455F4741505F4556545F5345435F504156
:1056600052414D535F52455155455354000000007F
:10567000FCC207004343434420666F722074686590
:105680002073657276696365206368616E6765641F
:1056900020697320307825303478000052656365C6
:1056A000697665643A20424C455F4741505F4556F4
:1056B000545F434F4E4E5F504152414D5F555044F1
:1056C0004154455F52455155455354004661696CFC
:1056D00075726520746F2075706461746520636FE6
:1056E0006E6E656374696F6E20706172616D657452
:1056F000657220726571756573743A20307825780B
:1057000000000000C0260020436F756C64206E6F9F
:10571000742068616E646C65206F6E5F6374726C78
:105720005F70745F77726974652E206572725F6353
:105730006F64653A20307825303478003D3D206331
:105740006F6E6E207365632075706461746520727E
:1057500065717565737400003D3D20576520617269
:10576000652066696E69736865642068616E646C43
:10577000696E6720636F6E6E207365632075706459
:10578000617465006F6E5F6876783A207365727633
:105790006963655F6368616E6765642068616E64F4
:1057A0006C6500006F6E5F6876783A2048616E64C1
:1057B0006C653A2030782530347800005365727675
:1057C000696365204368616E676564207761732053
:1057D00068616E646C656400007800F001007047D9
:1057E0002DE9FF410027009701970297039718B111
:1057F00003F00EF9002852D12A4C04252A4A2088A9
:105800002AA105EB004004F085FC274813DF0600C1
:1058100045D12088244A05EB004024A104F07AFCFD
:105820002088324605EB004026A104F073FC04F00A
:1058300009FF08B1FFF746FB684604F049FE00285F
:105840002DD1012601978DF804608DF8057002971F
:1058500003978DF8067001A94020009A69DF0700C0
:10586000208804D006EB00403A4625A10EE005EB67
:1058700000402CA104F04AFC684604F033FE070007
:10588000208806D006EB00403A462CA104F042FCEA
:1058900004E005EB004032A104F038FC384604B0C7
:1058A000BDE8F081B4220020003007007665637403
:1058B0006F72207461626C653A20307825303878D8
:1058C000000000004572726F7220636F6465202DC6
:1058D0002073645F736F66746465766963655F7671
:1058E0006563746F725F7461626C655F626173653A
:1058F0005F7365743A2030782530387800000000F6
:105900004572726F7220636F6465202D2073645F2F
:10591000626C655F6366675F7365743A20307825F3
:1059200030387800456E61626C696E6720536F662F
:10593000744465766963652E000000004661696CF9
:10594000656420736F66746465766963655F656E10
:1059500061626C653A2030782530387800000000AC
:10596000536F667444657669636520656E61626C29
:1059700065642E000249085C012104F015BA00009C
:10598000F4C207000249085C002104F00DBA0000CF
:10599000F4C207007CB50024084E25460122305D84
:1059A000009500231146019504F0DDF9641C042CD8
:1059B000F4D3BDE87C4000F003B80000F4C2070057
:1059C00010B500242046FFF7D5FF641C042CF9D342
:1059D00010BD0000F8B5861C00208DF800000C46B4
:1059E00001276846FFF7A0FB0F4801682160D0E956
:1059F0000012891A82680446511AB51C07E000BFDC
:105A000001F02EF8D4E90001401AA168091A491CD6
:105A10008D42F5D82068304420609DF80000FFF7E3
:105A2000A7FB3846F8BD0000D82E002010B543680B
:105A30009C18446021B905E013F8010B01F8010B33
:105A4000521EF9D2012010BD30B482680468531C84
:105A50008360A154D0E901128A4202D330BC03F022
:105A6000A4BF30BC70470000034803C8814201D185
:105A70000120704700207047D82E002070B5084CD8
:105A8000050009D010342168002907D0086820607B
:105A9000496828468847F6E70834F4E770BD0000F7
:105AA000C42B00202DE9F05F26484168F1B3DFF8F0
:105AB00098B00E688146DBF8004087688078E11B6B
:105AC00021F07F45ED1CB0B9DFF880804FF48030C5
:105AD000C8F84403C8F804031120FEF74DFE112056
:105AE000FEF755FE4FF0010AC8F800A02F2001F084
:105AF000D7FB89F802A0B54200D23546124BE8190F
:105B00003C3320F07F401860DBF800105A46091B38
:105B100021F07F41001B20F07F40C91C81420FD93A
:105B2000106818602F2001F0BBFB00E004E0BDE826
:105B3000F05F1120FEF736BEBDE8F05F05F0B4BEA1
:105B4000BDE8F09FDC210020041501400010014059
:105B5000F0B54FF0FF3622B11268D24300230A4D50
:105B60000DE03246FAE7C45C62400824D70700D053
:105B700037462F4087EA5202641EF7D15B1C8B42E6
:105B8000F1D3D043F0BD00002083B8EDF0B5146927
:105B900006468DB020681546271DE0B1022920D0A9
:105BA0000A2000906B4609AA304605F0D1FC002877
:105BB0000FD009A901A8009A05F05EFB01AE96E896
:105BC0000F0005AE86E80F00236869683A4605A80D
:105BD00098470DB0F0BD0DB03046BDE8F04005F07F
:105BE000BFBB6946304605F051FB0028F1D0236861
:105BF00069683A46684698470028EAD00298002823
:105C0000F5D1019870600120E3E753685B7813F0E9
:105C1000C00303D0402B03D00020704700F002B82F
:105C2000FFF7B4BF2DE9FF410B4651680646144605
:105C30004878334D00F00F0210F0300055F8225034
:105C400006D0102806D0202808D0302856D13EE0B3
:105C500022694DE061690120087047E0022B28D1DC
:105C6000042A26D84FF0010869463046676905F0D6
:105C70000DFB00281AD009E00B79226913FB0022E2
:105C80006846A84770B13878401C3870029820B137
:105C9000616838784A799042EED301987060029832
:105CA00060BB02E04FF00008F7E7404604B0BDE8F3
:105CB000F081D4E904300F79027817FB0233497977
:105CC0008A421BD2521C02701A46616810E00878A2
:105CD0006169072A087009D1606801792069FDF7B8
:105CE0009EFB60682169806805F0EBFA22696168B3
:105CF00004B03046AC46BDE8F04160470020D5E72F
:105D000088C6070010B58EB004461C216846FDF712
:105D100086FB142108A8FDF782FB9DF800100020E7
:105D200041F0180107908DF80010A1788DF8361019
:105D30000121ADF834109DF81C1004F10C0321F082
:105D4000FF018DF81C109DF81D1008AA21F00F010D
:105D5000491C21F0F00110318DF81D109DF81E1026
:105D600021F00601891C41F011018DF81E100DA9CA
:105D7000089107A909911721ADF82C100C902088E3
:105D80006946A2DF0EB010BD1FB5134800F15C01DB
:105D9000826B684605F070FA10489DE80E0080E8B6
:105DA0000E000E490E48104AC8600E4900200860D7
:105DB00048600E49094804F0E2FF10B1012004B028
:105DC00010BD0B480121008801EB004009A104F03F
:105DD0009DF90020F3E70000EC29002010260020A8
:105DE000ADB0070090210020E422002084C207000B
:105DF0006C22002048616E646C65723A20496E76B0
:105E0000616C69642070726F746F636F6C2062756F
:105E1000666665722073747265616D00FEB51E4919
:105E20000446086810B10868401E08601B4DD4E99C
:105E3000017328880426227806EB0040002F1CD02E
:105E4000D1F800C0E168CDF808C0CDE900313B468B
:105E5000012A1DD012A214A104F07EF92269002AA1
:105E600018D028881FA106EB004004F053F92169DF
:105E700003B02046BDE8F040084709680091012AB8
:105E800004D007A224A104F054F9E7E72CA2F9E713
:105E90002BA2E0E7FEBD0000C421002078220020F4
:105EA0006572617365000000466C6173682025733C
:105EB000206661696C6564202830782578293A204D
:105EC000616464723D25702C206C656E3D307825D0
:105ED000782062797465732C2070656E64696E67D2
:105EE0002025640054686973206F7065726174695D
:105EF0006F6E2068616420612063616C6C62616315
:105F00006B2C2063616C6C696E67206261636B202F
:105F1000746F2025702E0000466C61736820257315
:105F200020737563636573733A20616464723D2501
:105F3000702C2070656E64696E6720256400000017
:105F400077726974650000002DE9FF5F0746041D44
:105F500002989B46002570B1BBF1000F0BD094F85E
:105F60005F00DFF8A49201264FF0030A28B194F8ED
:105F7000600010B165E004206EE0A348217A0122A0
:105F8000008802EB004039B1E168342906D09FA1B6
:105F900004F0BCF806205FE0A1A1F6E000214FF478
:105FA0004053227C19E000BF04EB810CB3F80C8055
:105FB000DCF814C0C4450FD1934894F825209C49BF
:105FC0000088032303EB004072B1012A15D0022A96
:105FD0000FD0032A1ED10CE0491C8A42E4DC95A1B3
:105FE00004F094F8072037E02278002AC3D08D68A7
:105FF00003E02278002ABED0CD6892A12B466268C9
:1060000004F08FF894F8250030B102280DD0032851
:1060100017D10AE093A1B8E06068A84211D2B9F89C
:10602000000096A106EB004007E06068A84208D88F
:10603000B9F8000096A106EB004004F067F80520CF
:106040000AE097F8700060B1B9F800100AEB01405F
:1060500095A104F05BF80B2004B0BDE8F05F00F000
:1060600017BBB9F800104D460AEB0140D04694A189
:1060700004F04CF8DFF868929A4B5A46D9F80000C1
:10608000029900F0A7FF30B9964897F871200838B8
:106090004168914203D00A2004B0BDE8F09F006837
:1060A00007F17201FDF7A2F92888474608EB004086
:1060B0008DA104F02BF88B4B8A4AD9F80200083BDB
:1060C000A2F1100100F03CFF38B128888BA106EB4B
:1060D000004004F01BF80520DEE72988B84607EBEE
:1060E00001408BA104F012F87E4F0020283FF86099
:1060F00094F8251061B1012925D089480229C0F5FD
:10610000FC200FD0032929D0288806EB004081E726
:1061100094F8340008B1A06B19E0288881A106EB3F
:10612000004032E094F82C1041B1216BF9608142BB
:1061300033D9288880A106EB004049E0288882A155
:1061400006EB004021E094F8260010B1A06AF86048
:1061500023E0288881A106EB004016E094F82C107B
:1061600079B194F8261061B1A26A216B5318FB60D3
:1061700072B169B1814210D928887DA106EB004037
:1061800026E0288880A106EB004003F0BFFFF2E67E
:10619000288881A106EB004022E0298808EB014015
:1061A00081A103F0B3FF4F482022083004F13F01E2
:1061B0000068FDF71BF9F86870B14A4A0021203ADF
:1061C00002F006F8002828880ED006EB00407BA1DC
:1061D00003F09CFF04205FE728887FA106EB0040C6
:1061E00003F094FF032057E7444608EB00407DA1ED
:1061F000BA6803F08FFF288881A104EB004003F008
:1062000085FF012048E700006C2200204661756C84
:1062100074792048572076657273696F6E000000AC
:106220004E6F2048572076657273696F6E000000CC
:10623000EC290020534420726571206E6F74206D2C
:10624000657400005265712076657273696F6E3AED
:106250002025642C2045787065637465643A202598
:1062600064000000556E6B6E6F776E204657207588
:1062700070646174652074797065000046572076FB
:10628000657273696F6E20746F6F206C6F7700009A
:10629000424C2046572076657273696F6E20746F8A
:1062A0006F206C6F77000000496E76616C69642026
:1062B0007369676E6174757265207479706500002A
:1062C00043616C63756C6174696E6720696E697493
:1062D000207061636B657420686173680000000062
:1062E000E8C20700A821002056657269667920730C
:1062F00069676E6174757265000000005369676EAE
:106300006174757265206661696C656400000000E7
:10631000496D61676520766572696669656400002C
:10632000003007004E6F2061707020696D616765F5
:106330002073697A65000000424C20746F6F206CF6
:1063400061726765000000004E6F20626C20696D0D
:106350006167652073697A65000000004E6F205305
:106360004420696D6167652073697A6500000000EB
:10637000424C20746F6F206C617267652028534413
:106380002B424C29000000004E4F20424C2F53441A
:106390002073697A65000000424C2B5344207369D6
:1063A0007A6520300000000052756E6E696E6720BD
:1063B0006861736820636865636B000043616E27E2
:1063C000742066696E6420726F6F6D20666F722034
:1063D00075706461746500004E6F204657207369C4
:1063E0007A65000057726974652061646472657330
:1063F000732073657420746F2030782530387800EE
:106400004446552070726576616C696461746520DC
:106410005355434345535346554C210070B582783C
:10642000012A01D0052070BD114A0CCAFFF78CFD6E
:10643000104C05460128208807D0012101EB0040BF
:106440000DA103F063FE284670BD032606EB004055
:106450000EA103F05BFE208810A106EB004003F0C4
:1064600055FE002003F0AEF80028ECD00A2070BDE5
:10647000902100206C22002050726576616C696466
:10648000617465206661696C65642100507265768F
:10649000616C6964617465204F4B2E0053617669AD
:1064A0006E6720696E697420636F6D6D616E642E16
:1064B0002E2E000010B58EB004461C216846FCF755
:1064C000AEFF142108A8FCF7AAFF9DF800100020D9
:1064D00041F0040107908DF80010A1788DF8361076
:1064E0000221ADF834109DF81C1008AA21F0FF011C
:1064F0008DF81C109DF81D1021F00F01491C21F092
:10650000F00110318DF81D109DF81E1021F00601CC
:10651000891C41F001018DF81E100DA9089107A9F1
:1065200009911421ADF82C100C902088231D694688
:10653000A2DF0EB010BD00000E4910B50A784C78ED
:106540000023A24212D0521CD2B20A70022A00D1F9
:106550000B70084A0B780C3252F8232002608868CE
:10656000104420F07F408860012010BD03600020AF
:1065700010BD0000DC2100202DE9F8430E4F8146BC
:1065800000240120984615460E46387005E000BFED
:1065900006EB043003F066FF641CAC42F8D1002027
:1065A00038702B46324602214846CDF8008000F074
:1065B00023F80020BDE8F883F0210020F8B5074655
:1065C0000C481C46154680780E4608B10820F8BDD8
:1065D000684604F03FFF58B100980121017107603F
:1065E000310B4561C0E9024104F098FF0020F8BD7D
:1065F0000420F8BDF42100202DE9F04186B00446C6
:106600008068DDF830801D4616460F4600280CD005
:1066100014216846FCF703FFCDE902658DF8007090
:10662000CDF81080A1686846884706B0BDE8F081C3
:1066300030B50446006885B00D46806800281CD03F
:1066400014216846FCF7EBFE0195A06804902079C0
:1066500010B101280DD104E001208DF8000020695F
:1066600004E002208DF80000E068000302906069F9
:106670000390206881686846884705B030BD0000F7
:106680000249002208780A7070470000C8210020E3
:10669000014908700B207047C821002030B585B033
:1066A00000259DF80000019520F00F00401C20F00F
:1066B000F00010308DF80000029503A86DDF00286F
:1066C00036D19DF80D00401C8DF80D0003A86CDF3D
:1066D00000282DD117481849007A82074FF004008E
:1066E0000BD5164C0988221D00EB014014A1A369AB
:1066F00003F017FD211DA06907E0098800EB0140A8
:1067000018A103F003FD1CA1072082B268467CDFBC
:1067100000280DD10620ADF804001820ADF80600C1
:10672000ADF808504FF4C870ADF80A0001A87ADF40
:1067300005B030BDB8210020B4220020E82600209A
:1067400053657474696E6720616476206E616D654F
:106750003A2025732C206C656E6774683A20256496
:1067600000000000526567756C61722061647620DC
:106770006E616D65000000004466755461726700CB
:1067800010B503F09DFF08B140DF10BD05490120A1
:106790000860012000F08AFB0028FAD10249487005
:1067A00010BD000004000040C42B002010B50A4CAE
:1067B0002068FEF7A9FC08B1FEF784FB00224FF425
:1067C00070112068FEF75CFC002803D0BDE8104083
:1067D000FEF778BB10BD000024C3070003494160E9
:1067E00003480021018008467047000084C3070069
:1067F000F021002070B50A4D0849002441602C604A
:1068000003F05EFF2946C870064804604460C0F883
:10681000E040C0F8E44000206C6070BDA4C30700F5
:10682000F4210020F02C00202DE9FC5F0E008346AF
:10683000DDE90C47C6F1000098469246814600D437
:106840000846012503E000BF90FBFAF06D1C50459F
:10685000FADAA84500D9454624B1002E01DB7807B5
:1068600000D5641EB80702D5B8F1000F0AD0F807AA
:1068700008D13CB1A54205D220215846641EFFF73D
:10688000E3F8F6E7002E02DA4E462D2102E0780703
:1068900003D52B215846FFF7D7F807F0030002284D
:1068A0000BD1B8F1000F08D13CB1A54205D230217F
:1068B0005846641EFFF7C8F8F6E7CDE9004743469F
:1068C00052463146584605F0A7FBBDE8FC9F000044
:1068D0000148007870470000F02100200348D0F8FC
:1068E000E400002800D0012070470000F02C0020B8
:1068F000800701D0002070470120704702681346CE
:1069000002E08A4204D01268002AFAD10B600160CA
:10691000704770B5054608680C464A688668284680
:10692000314604F0EFFB6068286104F10C006861F7
:1069300070780221B1EB901F01D1241D2C6170BD34
:1069400006490120086006480168C1F3004100299A
:10695000FAD1044900208870704700000C00004004
:1069600018040040C42B00202DE9F047394E0027C1
:1069700080463D46DFF8E090D6F804A057E003D00B
:106980000446D0F81C8035E099F8002002EB420163
:10699000521CD2B289F8002009EBC10199F80230EB
:1069A000091D9A4201D189F8005048680A780446C6
:1069B000012A12D0022A02D0032A3BD108E005F0B6
:1069C0008FFA00B10127257434E00574C06900E036
:1069D00070680028F9D170602CE0207C50BB88687A
:1069E0006060C868A0600869E0604869A061F078EC
:1069F00000B165606268B168184B501A20F07F40A2
:106A0000984202D2A168084406E0881AA16820F0E2
:106A10007F40814202D9081A206000E0256065604D
:106A20000120A56020742046E56105F03BFAB8F12D
:106A30000000A4D199F8001099F801008142A3D177
:106A400017B97168514502D00120BDE8F0870020D8
:106A5000FBE70000DC210020D82B0020FFFF7F0097
:106A60002DE9FE43214DD5E9014704EA070005EB76
:106A7000800605F583600C3600F0D4F805F214406A
:106A8000804600F0CFF80AE0C0F3891101EB905086
:106A9000641C044404EA070005EB80060C363068E9
:106AA0008107F1D00020694604EA070205EB820263
:106AB000641CD26841F82020401C0228F4D30098BE
:106AC00000F00300022800980AD0C0F383100444A9
:106AD000404600F0A1F8002800D06C60BDE8FE83BD
:106AE000032101EB905004EB9004F1E7D82E002035
:106AF00070B5002003F094FB03F024FA114D032439
:106B000011A1288804EB004003F000FBFEF742FFD0
:106B10000220FEF737FF10490E48C1F8000700F0C9
:106B20007FF908B1FEF7CEF94FF44050806800F0CD
:106B3000D3F8288809A104EB004003F0E7FA00200D
:106B400070BD0000B4220020496E73696465206D39
:106B500061696E000C0003004000005041667465DE
:106B600072206D61696E00002DE9F047C788044608
:106B7000181D16468946B0FBF7F1B0FBF7F207FB8C
:106B800012009A193A44D21CB2FBF7F2DDF820A0A9
:106B900001E02468491E0029FBD13D1A8846B54210
:106BA00016D818E0BAF1000F05D0211809EB08003B
:106BB0002A46091D04E0204409EB08012A46001D6D
:106BC000FCF714FC00202468761BA844B74201D9C6
:106BD000354600E03D46002EE4D1BDE8F0870000D8
:106BE00030B50B46024603F049FB63B10021094C66
:106BF0000CE000BF01EB410304EB830315685B88E5
:106C0000AB4202D11160002030BD491C8142F1D35A
:106C1000052030BD6C22002008B500216A46FCF733
:106C200080FB08BD08B501216A46FCF76DFB0098A2
:106C300008BD38B5044600258DF800506846FEF7BB
:106C400073FA21686268086890420ED9401E086095
:106C50000178238AE26801FB0325227A2168101A51
:106C6000C0B20A79824200D208719DF80000FEF796
:106C70007FFA284638BD38B5054600208DF800005B
:106C80000C466846FEF750FAE868298A201AB0FBDD
:106C9000F1F12A681068431C136001709DF8000030
:106CA000FEF766FA38BD10B530B1017A4268036864
:106CB000891AC9B21A6006E00E2010BD03681A686E
:106CC000541C1C601170491EC9B2F7D20068002123
:106CD0000171084610BD00002DE9F0411B4C07462C
:106CE000042520883A4605EB004019A103F012FA6A
:106CF00001F08EFE01260028208803D006EB00401C
:106D000021A11AE005EB004028A103F0FFF94FF0A4
:106D1000E0214FF0FF30C1F88001C1F880022088E7
:106D20003A4605EB004027A103F0F4F9384613DF9B
:106D300038B120882DA106EB0040BDE8F04103F0FA
:106D4000E5B93846BDE8F041FCF764BAB42200204A
:106D500052756E6E696E67206E72665F626F6F74D9
:106D60006C6F616465725F6170705F73746172747F
:106D7000207769746820616464726573733A2030A7
:106D800078253038780000004661696C65642072AF
:106D9000756E6E696E67206E72665F6466755F6D94
:106DA00062725F696E69745F736400004469736145
:106DB000626C696E6720696E746572727570747347
:106DC0000000000053657474696E67205344207698
:106DD0006563746F72207461626C652062617365B3
:106DE0003A20307825303878000000004661696C20
:106DF00065642072756E6E696E672073645F736F71
:106E000066746465766963655F766563746F725FE7
:106E10007461626C655F626173655F7365740000C5
:106E200070B50C4D04260CA1288806EB004003F039
:106E30006DF901F099FD00280AD101F05DFC040014
:106E400006D128880AA106EB004003F05FF920462E
:106E500070BD0000B4220020496E206E72665F6231
:106E60006F6F746C6F616465725F696E6974000046
:106E70004166746572206E72665F626F6F746C6FCC
:106E8000616465725F696E697400000000F18040A2
:106E90000068002800D00120704708B500F180404C
:106EA000002101600068009008BD000005490968E4
:106EB00040F4803001F00111814201D1012070477E
:106EC000002070470C0400402DE9F00300F0FF0C97
:106ED0000023182530221C26382420274FF0400993
:106EE000BCF10A0F25D2DFE80CF024051D0B20159C
:106EF000181D0B2014224A60282211E08A6002E04B
:106F0000C1E900468C60BDE8F003C0F307200C31F6
:106F100000F0D1B84A60602202E042224A60842236
:106F20000A60EBE7C1E90025E8E7C1E900974A46B6
:106F3000E4E74B600B608B60BDE8F0030620704710
:106F40002DE9F04186B01C4615460E468046FCF7FA
:106F500045FC074646B33DB334B3306830B32968C7
:106F600021B3216811B3FFF7C3FCF8B12868FFF71C
:106F7000BFFCD8B12068FFF7BBFCB8B101A94046FF
:106F8000FFF7A2FF00280CD170680199884207D151
:106F90006A680498824203D160680399884207D0E6
:106FA000092006B0BDE8F0810E20FAE71020F8E7CE
:106FB00008F0FF00042801D00620F2E700972368BC
:106FC00029683068FCF70EFC08B10020E9E70B20C7
:106FD000E7E70000F0B506461A48A1B01C0040687B
:106FE000029004A817460D46019008D03DB12068D4
:106FF00038B1F0B2052806D0062021B0F0BD0E2031
:10700000FBE71020F9E7694600F055F80028F4D1B5
:1070100060680099884201D00920EEE701A9304656
:1070200000F035F80028E8D13A46294601A800F0DA
:1070300059F80028E1D1224601A9304600F004F8B1
:10704000DBE700006CC30700F8B51446054621B124
:107050001CB1486870280DD101E00720F8BD0E680A
:10706000E8B2694600F027F80028F7D16068009977
:10707000884201D00920F8BDC5F3072028B10022BD
:107080003046216804F007FDF8BD0122F8E731B170
:107090000A6832B14968702905D2092070470E206C
:1070A000704710207047C0B2052801D006207047F5
:1070B000104604F079BD1422082811D2DFE800F050
:1070C0001004100406080C0E0A6003E01C2000E007
:1070D00020200860002070473020FAE74020F8E7C1
:1070E0000620704728B121B14368702B03D20920D4
:1070F000704707207047006804F016BE00283ED095
:107100001F49204A096800BF00BF00BF00BF00BF81
:1071100000BF00BF00BF91422FD000BF00BF00BF23
:1071200000BF00BF00BF00BF00BF00BF00BF00BF67
:1071300000BF00BF00BF00BF00BF00BF00BF00BF57
:1071400000BF00BF00BF00BF00BF00BF00BF00BF47
:1071500000BF00BF00BF00BF00BF00BF00BF00BF37
:1071600000BF00BF00BF00BF00BF00BF00BF00BF27
:1071700000BF00BF00BF00BF00BF0138C3D17047D0
:10718000542200200024F40000283ED01F49204A49
:10719000096800BF00BF00BF00BF00BF00BF00BF45
:1071A00000BF91422FD000BF00BF00BF00BF00BF93
:1071B00000BF00BF00BF00BF00BF00BF00BF00BFD7
:1071C00000BF00BF00BF00BF00BF00BF00BF00BFC7
:1071D00000BF00BF00BF00BF00BF00BF00BF00BFB7
:1071E00000BF00BF00BF00BF00BF00BF00BF00BFA7
:1071F00000BF00BF00BF00BF00BF00BF00BF00BF97
:1072000000BF00BF00BF0138C3D170475422002027
:107210000024F40000283ED01F49204A096800BF1E
:1072200000BF00BF00BF00BF00BF00BF00BF914252
:107230002FD000BF00BF00BF00BF00BF00BF00BF16
:1072400000BF00BF00BF00BF00BF00BF00BF00BF46
:1072500000BF00BF00BF00BF00BF00BF00BF00BF36
:1072600000BF00BF00BF00BF00BF00BF00BF00BF26
:1072700000BF00BF00BF00BF00BF00BF00BF00BF16
:1072800000BF00BF00BF00BF00BF00BF00BF00BF06
:1072900000BF0138C3D17047542200200024F400FD
:1072A00000283ED01F49204A096800BF00BF00BF28
:1072B00000BF00BF00BF00BF00BF91422FD000BF82
:1072C00000BF00BF00BF00BF00BF00BF00BF00BFC6
:1072D00000BF00BF00BF00BF00BF00BF00BF00BFB6
:1072E00000BF00BF00BF00BF00BF00BF00BF00BFA6
:1072F00000BF00BF00BF00BF00BF00BF00BF00BF96
:1073000000BF00BF00BF00BF00BF00BF00BF00BF85
:1073100000BF00BF00BF00BF00BF00BF00BF0138FB
:10732000C3D17047542200200024F4002DE9F14F0E
:10733000DFF8F8A080464FF44050DAF8301080684B
:1073400082B0DAF824603A4F0844751A0090398800
:10735000042000EB014054464FF4805B35A102F05D
:10736000D5FE216B01EB08004FF0010802905C464E
:10737000A54200D82C4600220121009801F07AF89D
:10738000002818D1002322460299009801F04CF9F8
:10739000002810D122460299009801F00DFB5FEA07
:1073A00000090AD03988029B08EB014028A1009A05
:1073B00002F0B7FE4846BDE8FE8FDAF83010002034
:1073C0002144CAF8301002F0FDF800982D1B20442B
:1073D0000090029820440290C9D14FF440500022FE
:1073E00080683146FEF7B4FBDAF828200446398875
:1073F0005546A2420AD1042000EB014023A102F02D
:1074000085FEC5F82080C5E9066405E008EB01406B
:107410002346244902F085FE0448243001F0C0FAD6
:10742000BDE8FE4F002002F0CDB80000EC2900209E
:10743000B4220020456E746572206E72665F6466C9
:10744000755F6170705F636F6E74696E7565000063
:10745000496E76616C696420646174612064757240
:10746000696E6720636F6D706172653A2074617236
:107470006765743A203078253038782C2073726331
:107480003A20307825303878000000005365747455
:10749000696E67206170702061732076616C696429
:1074A00000000000D8C8070070B5164C042516A1CE
:1074B000208805EB004002F029FE1A4E306A0128B0
:1074C00004D0208818A105EB00400FE0F06988B1D6
:1074D0004FF44050B16980680022FEF739FBF16932
:1074E000814207D0208818A105EB004002F00EFE73
:1074F000002070BD208819A105EB004002F006FEB7
:10750000012070BDB4220020456E746572206E7239
:10751000665F6466755F6170705F69735F76616CEA
:1075200069640000EC29002052657475726E206653
:10753000616C736520696E2076616C69642061708E
:107540007020636865636B0052657475726E2066A7
:10755000616C736520696E204352430052657475F7
:10756000726E20747275652E204170702077617381
:107570002076616C696400002DE9F84388460A684A
:107580002049214C0425496B0F18561A4FF44050DE
:107590000096826820883B4605EB00401BA102F064
:1075A000C8FD32463946274801F006FA00282088EF
:1075B00005EB004014D033463A4623A102F0B1FD5A
:1075C0003146384601F006FA050006D02088012130
:1075D00001EB00402BA102F099FD2846BDE8F8839D
:1075E0002FA102F093FD404601F0DAF9208832A184
:1075F00005EB004002F08AFD394801F0E3FF054643
:10760000EBE70000EC290020B422002056657269E7
:107610006679696E6720424C3A20416464723A2070
:107620003078253038782C205372633A2030782512
:107630003038782C204C656E3A20307825303878F8
:107640000000000000300700426F6F746C6F6164CF
:107650006572206E6F742076657269666965642C48
:1076600020636F7079696E673A205372633A2030F5
:1076700078253038782C204C656E3A2030782530CB
:10768000387800005265717565737420746F2063DB
:107690006F707920424C206661696C65640000005F
:1076A000426F6F746C6F61646572207761732076CE
:1076B000657269666965640057726974696E6720EE
:1076C00073657474696E677320616E64207265738C
:1076D0006574696E67206465766963652E000000D5
:1076E00075B607004FF0A040D0F81005000C10F060
:1076F000010F01D000207047012070472DE9F05F95
:10770000DFF8A88115460E460A780127B8F8001060
:107710004FF00309664CDFF89CB1BA4609EB014013
:10772000072A74D2DFE802F0BB042C5628BBB00055
:1077300061A102F0EBFCB06828B1B0F5807F04D9FC
:107740000420BDE8F09F0320FBE7B8F8001009EB28
:10775000014060A102F0DAFC64480068FDF7D4FC47
:10776000534800258BF8035020213830FBF757FE93
:107770002563B068A06383E05DA102F0C7FC24E04C
:1077800060A102F0C3FCB268E06BA36B11189942D0
:107790000AD96860206CA860B8F800100AEB0140B4
:1077A0005EA102F0B3FCCEE7414B71685C33184434
:1077B000FBF71CFEE06BB1683D4A0844E063D6E984
:1077C00001014032FEF7C4F92064E06B6860206C70
:1077D000A86057E05CA102F099FCD4E90E01814257
:1077E00008D0B8F800100AEB01405EA102F08EFC50
:1077F0000820A6E7B8F8000061A109EB004002F0FC
:1078000085FC9BF803005C4610B1012099E746E037
:10781000FEF7BAFA012801D0052092E75E4890F8F9
:10782000741061B1B8F800005CA109EB004002F0EF
:107830006DFC6049A1F52D70FEF7F0FD0BE00078BE
:1078400068B1B8F800005CA109EB004002F05EFCF2
:107850000320FEF71DFF0746012808D010E0B8F806
:1078600000100AEB01405BA102F050FCD4E7B8F82D
:10787000000062A109EB004002F048FC84F803A07C
:10788000FEF794FF38465CE764A102F03FFCE06B32
:107890006860206CA8604FF480702860F2E70AEB03
:1078A000014068A102F032FC0227EBE76C220020C5
:1078B000EC290020802100204265666F7265204F10
:1078C000502063726561746520636F6D6D616E64D5
:1078D0000000000056616C696420436F6D6D616E3D
:1078E00064204372656174650000000068C307008E
:1078F00056616C696420436F6D6D616E6420435204
:10790000430000004265666F7265204F5020777219
:1079100069746520636F6D6D616E64004572726F8E
:10792000722E20496E697420636F6D6D616E6420E4
:107930006C6172676572207468616E20657870652D
:10794000637465642E2000004265666F7265204F87
:1079500050206578656375746520636F6D6D616E29
:107960006400000045786563757465207769746804
:10797000206661756C7479206F66667365740000AB
:1079800056616C696420636F6D6D616E642065780B
:107990006563757465000000E422002048616E6430
:1079A0006C696E67207369676E656420636F6D6DC7
:1079B000616E64001026002048616E646C696E6719
:1079C00020756E7369676E656420636F6D6D616E9F
:1079D000640000004465636F64656420636F6D6DCF
:1079E000616E642062757420697420686173206E12
:1079F0006F20636F6E74656E74212100536574741B
:107A0000696E672044465520666C616720746F205C
:107A1000696E697469616C697A65640056616C6944
:107A20006420436F6D6D616E643A204E52465F4430
:107A300046555F4F424A4543545F4F505F53454C54
:107A400045435400496E76616C696420436F6D6DE7
:107A5000616E64204F7065726174696F6E00000022
:107A600070B505464FF44050042184680D480088E5
:107A700001EB00400CA102F049FB114901F1180093
:107A80000A69012A08D04A6932B189690C3001F6C5
:107A9000FF716FF30B010C442A462146BDE870408C
:107AA00000F010B8B4220020456E746572206E722A
:107AB000665F6466755F636F6E74696E75650000FE
:107AC000EC2900202DE9F04188462049164607465A
:107AD000826804200988002400EB0140012A0ED0AE
:107AE0000125A52A17D0AA2A1DD0AC2A23D005EB40
:107AF000014017A102F00AFB2046BDE8F0811AA15F
:107B000002F004FB1B4840690128F5D14046FFF70D
:107B10000DFC0446F0E718A102F0F8FA3946404699
:107B200001F022FA0EE017A102F0F0FA39464046C1
:107B3000FFF722FDEDE716A102F0E8FA39464046CC
:107B400001F0C0F904463560D6E70000B4220020F9
:107B500053696E676C653A20496E76616C69642082
:107B600062616E6B0000000056616C6964204170B8
:107B700070000000EC29002056616C6964205344B9
:107B80000000000056616C696420424C0000000057
:107B900056616C6964205344202B20424C00000045
:107BA0002DE9FC5F0120F04C164601900D460A7845
:107BB00021884FF003090127DFF8B0A3DFF8B08375
:107BC00009EB01404FF0000B072A73D2DFE802F007
:107BD000720479FDFC72FB00E6A102F097FAAA6834
:107BE0006AB110050ED0D8F854008118DAF80C00EC
:107BF000814207D02088E4A107EB00407EE003200B
:107C0000BDE8FC9FB2F5805F06D92088EEA107EBA6
:107C1000004002F07BFA61E09AF8031081B1D8F8D5
:107C20005430DAF80C0046469918D04681420ED9F5
:107C300000902088ED4907EB004002F07AFA4FE00F
:107C40002088EBA107EB004002F060FA48E02188B1
:107C500009EB0140F4A102F059FAF06CB064A86895
:107C60007064726D32653263706908B9C6F820B00D
:107C700098F80210491C01F0030188F80210A8F8D6
:107C800006B0A968D8F8080001F6FF711044090B86
:107C9000002200F0EFFB38B12088E8A107EB00409C
:107CA00002F034FA0520ABE7B06C0090218809EBB4
:107CB000014000E050E1E7A1336D726C02F039FA47
:107CC00039E1D8F850107160D8F84810B1609AF8CE
:107CD0000310404621B1A968802903D904208FE709
:107CE00008208DE7026D436D0A44D8F84400D21A8B
:107CF000824206D92088E6A107EB004002F006FA8E
:107D00007DE79B4A68684832FDF722FF98498864FE
:107D1000086DAA68104408657060886CB060BAF895
:107D20000600AA68111880290FD2DF4B9AF802C00A
:107D3000696803EBCC131844FBF758FB2989BAF8A0
:107D400006000844AAF8060060E0C0F18001D64AA7
:107D50009AF802301FFA81F802EBC312104442462F
:107D60006968FBF743FBBAF806000023404482B27F
:107D7000AAF80620A868A0EB0800A860686840443C
:107D8000DFF8EC816860DAF80800D8F830100844B1
:107D90000090C5489AF8021000EBC111009800F05D
:107DA00043FC002869D02088BAF8062007EB004081
:107DB000BEA1009B02F0B5F9D8F84C10C8F84810E5
:107DC000D8F8541002E0BAE077E080E0C8F850102C
:107DD0007160D8F84C00B0609AF80210491C01F0AC
:107DE00003038AF80230AAF806B0AA68002A43D032
:107DF000DFF8B4C2D0460CEBC3106968FBF7F6FAA3
:107E00002989B8F806000844A8F80600BAF8062040
:107E10005546002AEBD05648436D016BD0F844C05C
:107E2000CB1A1344634527D38046A868002301EB8F
:107E3000000A9D48A97800EBC111504600F0F4FB00
:107E400060B32088534607EB0040EA8897A102F010
:107E500068F9D8F84C10C8F84810D8F85410C8F889
:107E600050107160D8F84C00B060A878401C00F049
:107E70000300A870A5F806B05FE02188BAF80620D4
:107E800009EB014094A1009B02F04BF9BAF80610EF
:107E9000D8F830201144C8F830109DE721885346A7
:107EA00009EB0140EA888CA102F03BF9EA88D8F896
:107EB00030101144C8F83010D7E78EA102F026F92F
:107EC000D8F850107160D8F84800B06035E04E46E0
:107ED0008CA102F01BF94546D5E91401431AD8F8E4
:107EE00044202088934205D007EB00408AA102F08D
:107EF00018F9F5E606EB004090A102F007F9C5F885
:107F000044B0286D6865A86CE864002001F05AFB55
:107F100008B10A2074E6296DDAF80C0081420AD112
:107F200020888BA106EB004002F0F0F85E48B038E4
:107F300000F07AFD0190FEF739FC019860E689A116
:107F400002F0E4F8D8F84810B160D8F8500070603A
:107F50004FF480503060F0E707EB014087A102F05A
:107F6000D5F802200190E8E76C2200208021002053
:107F7000EC2900204265666F7265204F50206372C5
:107F80006561746500000000547279696E67207441
:107F90006F2063726561746520616E206F626A652F
:107FA0006374207769746820612073697A6520742E
:107FB000686174206973206E6F742070616765203A
:107FC000616C69676E656400496E76616C696420F6
:107FD00073697A6520666F72206F626A65637420C8
:107FE00028746F6F206C617267652900D8C707001D
:107FF000547279696E6720746F206372656174656D
:108000002064617461206F626A65637420776974AB
:10801000686F75742076616C696420696E6974207C
:10802000636F6D6D616E640056616C6964204461BC
:10803000746120437265617465000000457261736C
:1080400065206F7065726174696F6E206661696C1E
:10805000656400004372656174696E67206F626ACF
:1080600065637420776974682073697A653A20259E
:10807000642E204F66667365743A20307825303858
:10808000782C204352433A2030782530387800004D
:108090005772697465207265717565737420746FA9
:1080A0006F206C6F6E6700001024002021212120BA
:1080B0004661696C65642073746F72696E67202510
:1080C00064204220617420616464726573733A2095
:1080D000307825303878000053746F72696E6720ED
:1080E00025642062797465732061743A20307825A4
:1080F000303878004265666F7265204F5020637299
:10810000630000004265666F7265204F50206578FD
:108110006563757465000000496E76616C69642062
:108120006461746120686572653A206578703A20F0
:1081300025642C20676F743A2025640056616C69B1
:10814000642044617461204578656375746500003E
:10815000446F696E6720706F737476616C696461D7
:108160007465000056616C6964204461746120523A
:1081700065616420696E666F00000000496E76617B
:108180006C69642044617461204F70657261746928
:108190006F6E000010B5FFF7A5FA90B90A480068A5
:1081A000C0B2B1280DD00948816D012901D000204D
:1081B00010BD00218165084601F004FA08B1FCF702
:1081C00081FE012010BD00001C050040EC290020AC
:1081D0002DE9F74F07464FF01020504C41694FF4FE
:1081E0004050042580681646081AA0F5405820889B
:1081F0004BA105EB004001F089FF36B1B84507D22D
:1082000020884EA105EB004062E00720BDE8FE8F0C
:10821000A346A2462088042404EB004052A101F0AA
:1082200075FFDFF85491BAF800004D4604EB0040AA
:1082300052A1D9F8102001F06DFFBAF8000053A147
:1082400004EB0040AB692A6A01F06BFFBAF800004A
:1082500056A104EB00406B6AEA6A01F062FF4FF43A
:10826000405009F1180480683060286A4FF0000A15
:1082700001280AD0C9F810A0C9F814A0BBF8001052
:10828000042000EB014051A12CE05D46BBF800103A
:108290004FF0040B0BEB0140424653A101F03AFFB3
:1082A00020683B4600F6FF70010B0903A8EB0108AC
:1082B000298842460BEB014054A101F032FF012115
:1082C000474518D9019838B1288801EB004056A1DC
:1082D00001F01CFF042099E7C9E9041A29880BEB77
:1082E000014059A101F012FFC4F804A0C4F808A08D
:1082F000002027608AE7C9E904A1D9F8180031688D
:1083000000F6FF706FF30B000844306029881A4CA8
:108310000BEB0140243452A1E4E70000B42200201A
:10832000456E746572206E72665F6466755F66691D
:108330006E645F6361636865000000004E6F2077C4
:10834000617920746F2066697420746865206E6599
:1083500077206669726D77617265206F6E20646543
:10836000766963650000000042616E6B20636F6E8A
:1083700074656E7400000000EC29002042616E6B91
:1083800020747970653A20256400000042616E6BAC
:10839000203020636F64653A203078253032783A97
:1083A0002053697A653A20256400000042616E6BB3
:1083B000203120636F64653A203078253032783A76
:1083C0002053697A653A2025640000004E6F2070C2
:1083D000726576696F75732C207573696E6720629C
:1083E000616E6B2030000000667265655F73697AAC
:1083F00065206265666F72652062616E6B207365D1
:108400006C6563743A20256400000000667265653F
:108410005F73697A653A2025642C2073697A655FF9
:108420007265713A202564004661696C7572653A1F
:10843000206475616C2062616E6B2072657374726A
:10844000696374696F6E0000456E666F7263696E72
:10845000672073696E676C652062616E6B00000057
:108460005573696E67207365636F6E642062616E19
:108470006B000000F8B5054611480C461746016828
:10848000491C016000680F4E00900421308823468B
:1084900001EB00402A460CA101F04BFE3B46224670
:1084A0002946194801F07AFB040007D030880221E0
:1084B00001EB0040224615A101F02CFE2046F8BD3C
:1084C000C4210020782200206E72665F6673746F8C
:1084D000726167655F657261736528616464723D8E
:1084E000307825702C206C656E3D256420706167A6
:1084F0006573292C207175657565207573616765D5
:108500003A20256400000000582200206E72665F49
:108510006673746F726167655F6572617365282940
:10852000206661696C656420776974682065727281
:108530006F7220307825782E0000000070B506009C
:1085400001D00FA200E010A2114C042511A1208837
:1085500005EB004001F0DEFD208805EB004026B170
:108560001AA101F0D3FD234903E023A101F0CEFDC0
:108570002B49BDE8704000222A4801F036BB0000BC
:10858000747275650000000066616C736500000020
:108590007822002043616C6C696E67206E72665FA2
:1085A0006466755F666C6173685F696E6974287371
:1085B000645F6972715F696E697469616C697A651B
:1085C000643D2573292E2E2E00000000496E69742B
:1085D00069616C697A696E67206E72665F66737432
:1085E0006F726167655F7364206261636B656E645F
:1085F0002E000000ACC30700496E697469616C69A4
:108600007A696E67206E72665F6673746F726167F7
:10861000655F6E766D63206261636B656E642E00CC
:108620008CC30700582200202DE9F8430446134864
:1086300088461E4601681746491C01600068104DB7
:10864000009004212888134601EB004022460DA12A
:1086500001F06FFD3B46424621461A48009601F064
:108660004FFB040007D02888022101EB004022467E
:1086700015A101F04FFD2046BDE8F883C42100207C
:10868000782200206E72665F6673746F7261676530
:108690005F777269746528616464723D25702C206F
:1086A0006C656E3D30782578206279746573292C6D
:1086B0002071756575652075736167653A2025645D
:1086C00000000000582200206E72665F6673746FAF
:1086D000726167655F7772697465282920666169D0
:1086E0006C65642077697468206572726F722030DF
:1086F0007825782E00000000F8B5504C002000903E
:108700002088042505EB00404DA101F0FFFC00206E
:1087100000F0A4FE208850A105EB004001F0F6FC1B
:1087200001F090F808B1FCF7CDFB002001F0C6F88D
:108730004F480168C1F300410029FAD0FCF776FCEC
:1087400008B1FCF7BFFB4B4A00214B48FCF75CFC2F
:1087500008B1FCF7B7FB6846FFF782F902004FF05B
:10876000010606D0208845A105EB004001F0D2FCAF
:108770000096FFF70FFD30B120884BA105EB0040BC
:1087800001F0C4FC0096514900200860009800BB2D
:10879000FEF78AFEE8B100F0E9FD002818D1FEF7E7
:1087A00083FE68B101F0BEF84FF44056208848A11E
:1087B00005EB0040B26801F0ADFCB068FEF78CFA42
:1087C0002088032101EB004046A101F09FFC00201E
:1087D000F8BD4A4A10210820FCF700FC08B1FCF75C
:1087E00071FB254800224FF470110068FCF748FC2B
:1087F000070006D0208842A106EB004001F086FC6D
:108800000AE000F0C1FF070008D020883A4606EBD6
:10881000004045A101F07EFC3846F8BD00F09AFA10
:1088200020884CA105EB004001F070FCFCF7B6FB82
:1088300001F096FB0028F9D13EDFF7E7B4220020D3
:10884000496E207265616C206E72665F6466755F4A
:10885000696E697400000000496E697469616C6931
:108860007A696E672074686520636C6F636B2E0095
:1088700018040040558E070024C30700436F756C31
:1088800064206E6F7420636F6E74696E756520442A
:108890004655206F7065726174696F6E3A2030784A
:1088A00025303878000000004170706C6963617495
:1088B000696F6E2073656E7420626F6F746C6F6188
:1088C0006465722072657175657374001C050040E3
:1088D0004A756D70696E6720746F3A203078253064
:1088E000387800004166746572207265616C206E94
:1088F00072665F6466755F696E6974002427002084
:10890000436F756C64206E6F7420696E6974696161
:108910006C697A6520696E6163746976697479201F
:1089200074696D6572000000436F756C64206E6F32
:108930007420696E6974616C697A652044465520BB
:108940007472616E73706F72743A203078253038AB
:108950007800000057616974696E6720666F722045
:108960006576656E74730000054810B500880421B3
:1089700001EB004003A101F0C9FB002010BD000085
:10898000B4220020696E207765616B206E72665F8D
:108990006466755F696E69745F7573657200000067
:1089A000002101604160816002480163416301610F
:1089B00041617047EC2900201FB5054B01AC9208BE
:1089C0001B6A009384E80700684618DF04B010BDF6
:1089D00028C307001FB58908002201AB009283E875
:1089E0000700684618DF04B010BD00001FB59208EC
:1089F000930502D0092004B010BD044B1B680093FE
:108A00000392CDE90110684618DFF4E728C3070098
:108A10001FB5044B0FCB8DE80F00684618DF04B07C
:108A200010BD000038C307002DE9F05F054601279F
:108A300090F83D00DFF81492DFF81482BB4603285B
:108A400001D009201AE08348814BD8E9021200685E
:108A50003033FEF7BFFA00B10A277D4820223030BC
:108A600005F13F010068FAF7ECFC50B1B9F80010CD
:108A70000BEB014078A101F049FB0C20FDF708FE4B
:108A80000746794E4FF0030A706958B1B9F80010E3
:108A9000012811D00BEB014074A101F037FB0A2033
:108AA000BDE8F09FB9F800100AEB014079A101F090
:108AB0002DFB6D4C183406E00AEB01407BA101F060
:108AC00025FB694C2434B9F80010032000EB014069
:108AD0007CA101F01BFB95F825204FF0000A82B322
