:020000040002F8
:10300000A8580020E9330200F1330200F333020034
:10301000F5330200F7330200F9330200000000002C
:10302000000000000000000000000000FB33020070
:10303000FD33020000000000FF33020001340200F3
:10304000B9370200033402002D3D020003340200B0
:103050000334020003340200E13502003538020077
:10306000033402000334020003340200033402007C
:10307000033402000334020003340200033402006C
:10308000033402001138020003340200033402004A
:10309000DD39020003340200E1390200033402008A
:1030A0000334020003340200E13C02000334020056
:1030B000033402000334020000000000000000009E
:1030C000033402000334020003340200033402001C
:1030D0000334020003340200033402000000000045
:1030E00000000000000000000000000000000000E0
:1030F00000000000000000000000000000000000D0
:1031000000000000000000000000000000000000BF
:1031100000000000000000000000000000000000AF
:10312000000000000000000000000000000000009F
:10313000000000000000000000000000000000008F
:10314000000000000000000000000000000000007F
:10315000000000000000000000000000000000006F
:10316000000000000000000000000000000000005F
:10317000000000000000000000000000000000004F
:10318000000000000000000000000000000000003F
:10319000000000000000000000000000000000002F
:1031A000000000000000000000000000000000001F
:1031B000000000000000000000000000000000000F
:1031C00000000000000000000000000000000000FF
:1031D00000000000000000000000000000000000EF
:1031E00000000000000000000000000000000000DF
:1031F00000000000000000000000000000000000CF
:10320000DFF80CD000F0AEF900480047ED7F020077
:10321000A858002030B4044654E8000F0D4644E896
:103220000053002BF8D1156030BC704730B4044611
:1032300054E8000F40EA010544E80053002BF7D1A1
:10324000156030BC704730B4044654E8000F00EA03
:10325000010544E80053002BF7D1156030BC7047DE
:1032600030B4044654E8000F80EA010544E80053F6
:10327000002BF7D1156030BC704730B4044654E8D9
:10328000000F00EB010544E80053002BF7D1156057
:1032900030BC704730B4044654E8000FA0EB010581
:1032A00044E80053002BF7D1156030BC7047000094
:1032B00030B4044654E8000F0D4644E80053002B98
:1032C000F8D1156030BC704730B4044654E8000FA4
:1032D00040EA010544E80053002BF7D1156030BCEB
:1032E000704730B4044654E8000F00EA010544E892
:1032F0000053002BF7D1156030BC704730B4044642
:1033000054E8000F80EA010544E80053002BF7D190
:10331000156030BC704730B4044654E8000F00EB31
:10332000010544E80053002BF7D1156030BC70470D
:1033300030B4044654E8000FA0EB010544E8005304
:10334000002BF7D1156030BC7047000030B4044644
:1033500054E8000F0D4644E80053002BF8D11560E7
:1033600030BC704730B4044654E8000F40EA010511
:1033700044E80053002BF7D1156030BC704730B4DF
:10338000044654E8000F00EA010544E80053002B0E
:10339000F7D1156030BC704730B4044654E8000FD4
:1033A00080EA010544E80053002BF7D1156030BCDA
:1033B000704730B4044654E8000F00EB010544E8C0
:1033C0000053002BF7D1156030BC704730B4044671
:1033D00054E8000FA0EB010544E80053002BF7D19F
:1033E000156030BC7047000006488047064800471B
:1033F000FEE7FEE7FEE7FEE7FEE7FEE7FEE7FEE7A5
:10340000FEE7FEE7E5390200013202002DE9F05F38
:103410000546002092469B46884606468146402443
:103420001BE0284641464746224600F08BF85346AB
:103430005A46C01A914110D311461846224600F050
:1034400072F82D1A67EB01084F4622460120002131
:1034500000F069F817EB00094E41201EA4F10104A9
:10346000DFDC484631462A464346BDE8F09F00006F
:103470000048704710E4020040EA01039B0703D0B4
:1034800009E008C9121F08C0042AFAD203E011F8A3
:10349000013B00F8013B521EF9D27047D2B201E065
:1034A00000F8012B491EFBD270470022F6E710B549
:1034B00013460A4604461946FFF7F0FF204610BDA2
:1034C000421C10F8011B0029FBD1801A704730B54F
:1034D00004460020034600E05B1C934203D2E05CFC
:1034E000CD5C401BF8D030BD034611F8012B00F82D
:1034F000012B002AF9D11846704730B50B4601461A
:1035000000202022012409E021FA02F59D4205D382
:1035100003FA02F5491B04FA02F52844151EA2F12C
:103520000102F1DC30BD202A04DB203A00FA02F16E
:10353000002070479140C2F1200320FA03F31943A1
:1035400090407047202A04DB203A21FA02F0002143
:10355000704721FA02F3D040C2F1200291400843A3
:1035600019467047064C074D06E0E06840F001033D
:1035700094E8070098471034AC42F6D3FFF744FEB6
:10358000F0EA020010EB020070B58C1810F8015B35
:1035900015F0070301D110F8013B2A1106D110F8EC
:1035A000012B03E010F8016B01F8016B5B1EF9D1F0
:1035B0002B0705D40023521E0DD401F8013BFAE776
:1035C00010F8013BCB1A921C03E013F8015B01F8E1
:1035D000015B521EF9D5A142D8D3002070BD000076
:1035E0002DE9F04700268CB0DFF86091B0464FF42B
:1035F0008075012437460696284606F0DDF838B176
:10360000D9F80403204203D0284606F0CBF826431D
:103610002D1D64007F1CADB2082FEDD34FF4BE7496
:10362000204606F0C9F848B1204606F0BBF846F03F
:10363000004606AA0121002006F0A0F8444D16F02D
:10364000FF0F15D00127002437420DD009EB84016C
:10365000D1F81005D1F81015C0F3042055F8242036
:10366000C1F3014102B190477F00641C082CEBD3E9
:10367000002E67DA4FF0FF30CDE90880002634468F
:10368000281910F8507F90F9000027F0C008401C5E
:1036900044D009A9404604F06AFF58B34FEA97198D
:1036A000404602F0C1FD55F820701FB1B9F1030F7B
:1036B00003D00FE0B9F1030F30D108A84FEAD802C8
:1036C00008F00703815C4FF0010C0CFA03FC41EA9F
:1036D0000C0181544FF0A04101EB8800D0F80007A5
:1036E00006A9C0F3014A404604F041FF18B1BAF1FF
:1036F000020F03D012E0BAF1030F0FD1B9F1030F9B
:1037000008D1BAF1020F1BD00221404606F00BF897
:10371000761CF6B217B149464046B847641C042CE3
:10372000AED3002E0ED06A460121002006F026F806
:1037300006990098884205D00690089809909DE760
:103740000321E2E70CB0BDE8F08700000060004014
:10375000882D002000F01F020121914040098000C7
:1037600000F1E020C0F88012704700F01F02012134
:1037700091404009800000F1E020C0F8001170473E
:1037800000F01F02012191404009800000F1E0207B
:10379000C0F8001270474907090E002806DA00F049
:1037A0000F0000F1E02080F8141D704700F1E020C8
:1037B00080F80014704700002DE9F0414FF4807745
:1037C000384604F091FF0124104EA50748B1384651
:1037D00004F091FF0120C5F808037470002002F086
:1037E00047FD4FF48277384604F07EFF00280BD067
:1037F000384604F080FF0220C5F80803B470BDE825
:10380000F041012002F034BDBDE8F081742D0020AC
:1038100007480021C0F84011C0F84411C0F8481111
:10382000C0F84C11C0F80011C0F8041109F066BED0
:10383000001001402DE9FE434FF48278404606F027
:10384000D1FB4C4F00254C4C012600B3404606F0FE
:10385000D1FB94F82E0010B194F82F10D1B18DF84F
:103860000050616801912189ADF80810E26832B119
:10387000218B618362602181E56010B102E02574D3
:1038800000E03E6021686846884784F82F5094F82D
:103890002E0060B34FF48077384606F0A3FB30B3B8
:1038A000384606F0A7FB628B94F82D108A420AD99D
:1038B000A2EB010080B260832289A2EB0000626863
:1038C00002EB400005E007D1E06828B184F82F60E2
:1038D000658306F041FB04E08A4202D184F82F6040
:1038E0006583404606F086FB2248001D06604FF4C3
:1038F0008877384606F076FB48B1384606F07AFB02
:10390000257402208DF800002168684688474FF42E
:103910008A77384606F066FB28B1384606F06AFB1F
:103920002574BDE8FE834FF000484FF48C79676939
:103930001DE000BFB7FA87F028FA00F109EB800517
:103940008F43284606F04EFB88B1284606F052FB0E
:10395000A5F58C75E8088DF8040045F38000401C3F
:103960008DF800608DF80500216868468847002FB3
:10397000E0D1D6E700700040002E002000F0E4B94E
:1039800070B50E46144900EB400001EBC00514462B
:10399000E86A183520B101280FD0022805D113E0BC
:1039A000284600F005FAA04201D2002411E0224688
:1039B0003146284600F034FA0BE0284600F0F8F9CA
:1039C000A042F4D20446F2E73146284600F0FBF963
:1039D0000446204670BD00001C36002009F0DCBC07
:1039E00006F084BCF0B5AE480023021D0178012525
:1039F000101D4FF0805406290BD11678360708D1D8
:103A00000678C6F30316032E06D0042E04D0052E26
:103A100002D0062907D00EE0B4F82463A14FC6F304
:103A200004263E6002E01678360704D10678C6F315
:103A30000316032E02D0062904D00FE09B4F9A4EA6
:103A40007E670EE01678360708D10678C6F30316AF
:103A5000032E06D0042E04D0052E02D0062907D04E
:103A60000EE0D4F84462924FC6F342363E6002E064
:103A70001678360704D10678C6F30316032E02D053
:103A8000062906D011E08B4E376827F08077376023
:103A90000EE01678360708D10678C6F30316032E13
:103AA00006D0042E04D0052E02D006290AD011E03B
:103AB0004FF08046C6F80C31C6F810317C4E361FE8
:103AC000336002E01678360704D10678C6F3031691
:103AD000032E02D0062905D00CE0754F032664376B
:103AE0003E600AE01678360704D10678C6F303165E
:103AF000032E02D006290DD014E06F4F05263E603C
:103B00006D4E783635606C4E083633603F263F1D6B
:103B10003E6002E01678360704D10678C6F3031635
:103B2000052E02D0062957D062E0644E3668644FF5
:103B30003E60624E361D36683F1D3E605F4E083661
:103B400036683F1D3E605D4E0C3636683F1D3E6058
:103B50005A4E103636683F1D3E60584E1436366851
:103B60003F1D3E60554E18363668554F20373E6033
:103B7000524E1C3636683F1D3E60504E2036366829
:103B80003F1D3E604D4E243636683F1D3E604B4E15
:103B9000283636683F1D3E60484E2C3636683F1D3D
:103BA0003E60464E30363668454F40373E60434EA5
:103BB000343636683F1D3E60404E383636683F1D0D
:103BC0003E603E4E3C3636683F1D3E603B4E4036C2
:103BD00036683F1D3E6002E01678360708D1067849
:103BE000C6F30316032E06D0042E04D0052E02D0F1
:103BF000062907D019E0D4F85812324A01F04F01D3
:103C0000116002E0117809070FD10078C0F30310AA
:103C1000032803D0042801D0052806D12A480168CA
:103C2000C90702D06FF001010160224874380168B1
:103C300041F470010160BFF34F8FBFF36F8F4FF0FE
:103C40001021D1F80002002803DBD1F8040200287B
:103C500022DA1E4A15601E480468002CFCD0152488
:103C6000C1F800420568002DFCD0C1F8044201688B
:103C70000029FCD0136001680029FCD0BFF34F8FEE
:103C80000C48F0380168134A01F4E0611143016007
:103C9000BFF34F8F00BFFDE710490F480860F0BD2C
:103CA000E00F00F0403501400DF0ADBA00C0074014
:103CB0003C050040FCED00E01056004004040010FC
:103CC00020C50040E40E00400004004004E501402F
:103CD00000E401400400FA050090D003B422002063
:103CE0002DE9F84306270F4C00254FF4A0784FF438
:103CF0008036A94608EB850006FA05F122585AB12C
:103D0000D4F804230A4207D044F800902158064A08
:103D100000915168126890476D1CEDB2BD42E9D325
:103D2000BDE8F88300A00140302E00200448017F48
:103D300004480029024901D009F0E7BD09F056BD49
:103D4000E02D00200020004010B5124C0220206120
:103D5000606111A0A06104F17800E0614FF400708F
:103D600020620020A06260620BA1A164E06204F501
:103D70001E71E1641021A065C4E91410E06509A179
:103D8000E01DFFF7B1FB08A12046FFF7ADFB2020A7
:103D9000A07110BD1C3600205465726D696E616C97
:103DA000000000005254540053454747455200005C
:103DB0000269C1688A4203D88068401A104400E052
:103DC000501A401E70472DE9F047C46817468946CF
:103DD00006464FF000083069A04201D9051B02E0F9
:103DE000B168201A0D1AB0686D1E001BA84200D8D9
:103DF0000546BD4200D33D4670682A4620444946E8
:103E0000FFF73AFBB0687F1B2C44A844A944A042AA
:103E100000D10024F460002FDDD14046BDE8F087DA
:103E20002DE9F04104468846D4E90207C51BE16844
:103E3000606816460844B54206D94146FFF71CFBA8
:103E4000B819E060BDE8F0812A464146FFF714FB4F
:103E5000761B08EB050132466068FFF70DFBE66054
:103E6000F0E700000FB41CB50A46521ECDE900026F
:103E700007A9054B6A46069800F02AF8009A002127
:103E800011701CBC5DF814FB1342020002E008C86C
:103E9000121F08C1002AFAD170477047002001E0C4
:103EA00001C1121F002AFBD1704700000121202808
:103EB00003DA81400548014003E0402802DA203857
:103EC000814009B10120704700207047FC06FFBD0A
:103ED0002DE9FF4F8BB088460546002606E02528D1
:103EE0000BD0DDE90D1290476D1C761C2878002858
:103EF000F5D10FB03046BDE8F08F0024A146A246B0
:103F00000122AE4900E0044315F8013F203B02FACC
:103F100003F00842F7D128782A2810D06FF02F023A
:103F20002878A0F13001092915D809EB890102EBA5
:103F3000410144F0020400EB01096D1CF0E758F860
:103F4000041B5FEA010903D544F40054C9F10009D8
:103F500044F002046D1C28782E2817D115F8010FA3
:103F600044F004042A280ED06FF02F022878A0F124
:103F7000300109290AD80AEB8A0102EB410100EB62
:103F8000010A6D1CF2E758F804AB6D1C28786C2808
:103F90000FD006DC4C2817D068280DD06A2814D121
:103FA00004E0742810D07A280FD10DE044F40014F6
:103FB0000AE044F4801401E044F44014697881423A
:103FC00002D104F580146D1C6D1C2878692865D019
:103FD00006DC00288DD0632827D0642806D15DE058
:103FE0006E2808D073282AD0752877D0DDE90D1205
:103FF0009047761CE0E0C4F30250022809D0032861
:104000000DD0D8F8001004280DD00E6008F1040877
:10401000D2E0D8F80010F217C1E90062F6E7D8F84C
:1040200000100E80F2E70E70F0E718F8041B8DF810
:10403000001000208DF80100EB46012003E058F845
:1040400004BB4FF0FF3061074FF0000701D40AE0D6
:104050007F1C57450DDA8742FADB1BF80710002951
:10406000F6D106E07F1C8742FCDB1BF80710002915
:10407000F8D1DDE90D23A9EB07008146214600F0C8
:10408000B1F83044C61904E0DDE90D121BF8010B4C
:1040900090477F1EF8D22146484688E058F8040B26
:1040A000C4F302514FF00A0B032900D100B20429D6
:1040B00000D140B2002802DA40422D2102E0210561
:1040C00005D52B218DF82410012104E006E0E1073D
:1040D00010D02021F6E708AF089113E058F8040B40
:1040E000C4F302514FF00A0B032900D180B2042916
:1040F00000D1C0B20021EEE75946FFF7FEF930319A
:1041000007F8011D0028F7D1ADEB070000F1200BE7
:10411000600702D524F4803401E04FF0010ADA454B
:1041200002DDAAEB0B0000E00020824600EB0B0151
:1041300008980144A9EB01000A90E00306D4DDE9E8
:104140000D2321460A9800F04DF806444FF000096F
:1041500008E009A911F80900DDE90D12904709F1FD
:104160000109761C08998945F3DBE0030CD5DDE9EC
:104170000D2321460A9800F035F8064404E0DDE9F5
:104180000D1230209047761CBAF10001AAF1010A05
:10419000F5DC05E0DDE90D1217F8010B9047761C00
:1041A000BBF10001ABF1010BF4DC0A982146DDE91B
:1041B0000D2300F005F806446D1C97E60928010060
:1041C0002DE9F041044600251E461746880404D414
:1041D00005E039462020B0476D1C641EF9D52846FD
:1041E000BDE8F0812DE9F041044600251E469046C9
:1041F000C80301D5302700E02027880404D505E056
:1042000041463846B0476D1C641EF9D52846BDE8C6
:10421000F0814A68002A06D00A68531C0B601070AF
:104220004868401E4860704770B58EB00E4605461F
:104230001C216846FFF739F900249DF8000001941D
:1042400020F0100040F00A008DF800000394049460
:10425000059406940C94B0798DF83000F0798DF8BF
:1042600031009DF83200142120F00600801C20F05F
:1042700019008DF8320095F848008DF8360041F2AB
:104280000740ADF8340007A8FFF70FF90DA8079015
:104290000CA808900120ADF824000420ADF82640B9
:1042A000ADF82800A88805F1360307AA6946A2DF01
:1042B0000EB070BD10B560B159B102780B785208DC
:1042C000B2EB530F05D10622401C491CFFF7FFF843
:1042D00008B1002010BD012010BD800701D00020D2
:1042E000704701207047C3688B4206D811440069AB
:1042F000491E814201D8012070470020704770B5E7
:104300008EB00E4605461C216846FFF7CEF8002405
:104310009DF80000019420F0100040F00A008DF894
:10432000000003940494059406940C94B0798DF8DD
:104330003000F0798DF831009DF83200142120F022
:104340000600801C20F019008DF8320095F8480016
:104350008DF8360041F20640ADF8340007A8FFF7AB
:10436000A4F80DA807900CA808900120ADF824002F
:104370000620ADF82640ADF82800A88805F12E03E8
:1043800007AA6946A2DF0EB070BD10B50122022156
:10439000002001F05DFD08B1072810D1072202219D
:1043A000012001F055FD08B1072808D100210A229B
:1043B000084601F04DFD08B1072800D1002010BDCE
:1043C00000B5ABB04C20ADF8A00019482A901720DA
:1043D000ADF8A400A0216846FFF767F802208DF829
:1043E000000001208DF8020006218DF8031010490D
:1043F000ADF810004A398DF87C000D48059128A9C8
:10440000543818910078642110FB01F022900020AC
:104410002390084826906946074800F06BFC08B1D5
:1044200000F0E2F80121044800F061FC2BB000BD6F
:104430006421002049A40200D025002010B550B10D
:104440000A480321008801EB004009A105F062FB46
:1044500007F0BCFC03E00321094800F051FD0028EF
:1044600003D0BDE8104000F0BFB810BD4C230020C1
:10447000457261736520626F6E64732100000000F5
:10448000D025002070B58CB015460E4600236C4632
:10449000C3F10F01415CE1545B1C102BF8D30D21DB
:1044A00004F11000FFF701F80020C0F10F02315CA9
:1044B0002244401C11740328F7D3684643DF0020D0
:1044C000C0F10F01214491F820102954401C032809
:1044D000F6D30CB070BD022001F0C8BB70B500244B
:1044E000064D06E06868012110F8340004F068FA0F
:1044F000641C28788442F5D3002070BDFC21002084
:10450000F8B515460C460646052A01D20720F8BD27
:1045100004F03CFB18B904F00BFB0028F7D110495C
:1045200000204E600C70C1E902500E4D08610DE094
:1045300006EBC4006968009181788DF8011000785D
:10454000094A694604F08EFA0028E0D1641EE4B2FC
:10455000EED2BDE8F840054A0021024800F0BEB89E
:10456000FC21002030E10200E171020099640200A8
:10457000134C0121208801EB004012A105F0CAFA7A
:1045800005F09CFB05F0F0F90028FBD10F4800680E
:10459000C00700D000BE2088032101EB00400CA121
:1045A00005F0B8FABFF34F8F0848E43801680D4AA8
:1045B00001F4E06111430160BFF34F8F00BFFDE7DD
:1045C0004C230020466174616C000000F0ED00E0B7
:1045D000486974207765616B2068616E646C6572F0
:1045E000000000000400FA050EB500210091CDE99D
:1045F00001106A4644F20100FFF7BAFF0EBD10B584
:104600008268C368934203D002F06EFA002010BDA6
:10461000052010BD29B112B1531E134203D0092049
:1046200070470E2070470160838000218160C16067
:104630000846704710B58268C3689A1A83889A4200
:1046400003D802F05BFA002010BD042010BD00006A
:1046500070B502280DD1084C032508A1208805EB70
:10466000004005F057FA208810A105EB004005F046
:1046700051FA012070BD00004C230020506F776577
:1046800072206D616E6167656D656E742077616E15
:10469000747320746F20726573657420746F204486
:1046A0004655206D6F64652E00000000506F7765E1
:1046B00072206D616E6167656D656E7420616C6CF2
:1046C0006F77656420746F20726573657420746FF2
:1046D00020444655206D6F64652E0000074B9B7883
:1046E00023B12AB120B10068037C1BB108207047B8
:1046F0000720704741744261002070475C2E002003
:1047000070B507F0B7FF104800240B210470447007
:104710000E4D817014206C602C706C70FFF71AF8CD
:1047200007211420FFF737F81420FFF71EF8084878
:10473000046007211120FFF72EF80548001F0068CC
:10474000A860002070BD00005C2E00201022002018
:10475000081501402DE9FC47DFF8789099F8023000
:1047600073B368B3052902D20720BDE8FC8743690B
:1047700033B3437C012B25D000270446002588460F
:1047800016468DF80050684600F0D2F801A809F0EE
:10479000D5F9C8B1012101700F4944600968C0E929
:1047A0000218C0E904769DF8040089F801009DF81C
:1047B000000000F0E1F81420FEF7E2FF2846D4E7FD
:1047C0000820D2E70F46D8E704259DF8000000F046
:1047D000D3F8F3E75C2E00200415014006498978E0
:1047E00039B130B1416921B100210174022108F0D1
:1047F00061BE0820704700005C2E002010B5024802
:1048000004F0E0FC002010BD5422002070B50A4ED8
:1048100001460A48B578FFF7F2FE04464DB1002084
:10482000B070711C0122C81D04F01EFB08B1FFF717
:10483000DBFE204670BD00004C220020DC30002052
:10484000F0B5284E89B01F460D00044672603BD07B
:10485000A888296882B22448FFF7DCFE002834D1FA
:10486000A889A96882B220481030FFF7D3FE00283B
:104870002BD120221D496846FEF7FEFD6069069097
:10488000207C00B101208DF814008DF81C70607C34
:1048900000B10E208DF81500E0680290A06803902A
:1048A00020680190606800900E48114A69460830FF
:1048B00004F0A6FA002808D1B0702068401C04D08B
:1048C0009DF81D0018B106E0072009B0F0BD0548AD
:1048D000083004F021FB03490122491CC81D04F0E3
:1048E000C3FAF2E74C220020DC300020A8E20200EC
:1048F00005D7020010B501460B48FFF79BFE0400E8
:1049000010D10A4804F052FC60B908490648083939
:10491000FFF775FE30B9054901220839034804F054
:10492000BFFB0446204610BDEC300020542200207E
:1049300030B5EFF3108172B60D4A9468012324B1AB
:104940000370002900D162B630BD93604FF0E023C0
:10495000D3F88051074C25401560C3F88041D3F847
:10496000844154605A17C3F8842100220270E8E79A
:10497000682F0020FC06FFBD0B498A68002A11D071
:1049800000280FD1EFF3108072B60B684FF0E022D1
:10499000C2F800314B68C2F8043100228A60002856
:1049A00000D162B670470000682F00202DE9F04169
:1049B000064608680C46411C4FF0A0474FF0010521
:1049C00006D005FA00F1C7F80815206804F0A1FE2A
:1049D0006068411C02D0002104F092FE3079204929
:1049E00001EB4010A169007F00283068C0F8241551
:1049F00025D0607D227D31681043C1F86C05D4E973
:104A000000123068C0F80C15C0F8142524E0A06826
:104A1000411C02D0002104F073FEE068411C05D067
:104A20008540C7F80855E06804F073FED4E9021227
:104A30003068C0F80825C0F81015BDE8F081607D29
:104A4000217D32680843C2F86C05D4E90012306851
:104A5000C0F81425C0F80C15207D0128D7D0ECE74C
:104A6000E02D00202DE9F043044687B0008800F0D7
:104A7000EBFB8146208802F027FE214F8046667AB4
:104A8000208800223978A56800F030FCB9F1000FC9
:104A900033D06079400711D50721404606F0B2FBBC
:104AA000A0B108218DF80C1021880590ADF80E10EA
:104AB000ADF8108003A801F02BFE07E02088B9783C
:104AC00000F0FEFB10B1404602F0EAFD03208DF835
:104AD00000002088ADF802006079C0F380008DF8F6
:104AE0000400A079C0F380008DF805008DF8065011
:104AF0008DF80760684601F00BFE07B0BDE8F08353
:104B0000DC2100202DE9FC4700251788064615808A
:104B100090F82D001446894630B13A462146484661
:104B200000F0FCFB050009D1B0784FF00C0A18B377
:104B30002088C846001DB84202D95046BDE8FC870F
:104B4000684679DF0028F9D12088032108F8001091
:104B500020881921401C80B2208008F8001020888D
:104B6000401C80B2208000EB0801BDF8000008F076
:104B700044FF218808442080F0780222C8B12188AF
:104B800096F9033001F1030C4846BC45D5D8425490
:104B900021884FF0010C491C89B2218000F801C026
:104BA0002188491C89B2218009F801302088401CE5
:104BB00020807068B8B1218890F9003001F1030CB1
:104BC0004846BC45B9D8425421880A22491C89B2BA
:104BD000218042542188491C89B2218009F8013082
:104BE0002088401C2080308950B1CDE900474B46D9
:104BF0000622022106F1080008F0FDFF05009DD104
:104C0000308A50B1CDE900474B460722032106F117
:104C1000100008F0F0FF050090D1308B50B1CDE9C5
:104C200000474B461522142106F1180008F0E3FF57
:104C3000050083D1306A30B13B462246494601F037
:104C400081FB0500DBD1706A30B13B462246494604
:104C500003F012FB0500D2D196F82C0038B13B4688
:104C600022464946304608F033F80500C7D130786F
:104C700038B13B4622464946304603F087FB0500E3
:104C8000BDD128465AE7F0B50C4693B01F21072640
:104C9000ADF80010ADF80410002750B1C1784907F5
:104CA0000DD56A4602A9FFF72DFF002808D102ADF5
:104CB00002E00025ADF800706CB1E07810B130462C
:104CC00013B0F0BD01AA0AA92046FFF71BFF002878
:104CD000F6D10AAA02E00022ADF80470BDF8040083
:104CE000C3B2BDF80000C1B2284672DFE8E780F821
:104CF0002410704770B50D00044653D0F4B3012062
:104D000020700026E670202205F17801201DFEF7B4
:104D1000B3FB84F82460D5F89800C4F8CC00D5F82B
:104D20009C00C4F8D0004FF6FF70A4F8C800C4F887
:104D30002560A4F8296084F82B6004F130003C2140
:104D40000646FEF7B2FB287884F83000A87884F88D
:104D50003200E87884F83300687884F83100D5E9C7
:104D60000401C4E91001D5E90201C4E90E01D5E945
:104D70000601C4E9120195F82D0000E012E084F864
:104D80005D00686AD8B104F1780104F16C006167D4
:104D90006065696A09880180686A616D80888880B9
:104DA000002008E00E2070BD696A22188968095C3D
:104DB00082F87810401C616D89888142F4D8A86A15
:104DC000E8B104F1A400C4F8A0000C38A065A96AF9
:104DD00089888180A86AA16D00880880002006E08B
:104DE000A96A22188968095C82F8A410401CA16D88
:104DF00089888142F4D895F82C0084F85C00286AF0
:104E000048B104F1C4002065296A49884180286AB4
:104E1000216D00880880686800B1606305F13C017D
:104E20003046BDE87040FFF72EBF10B50288102A4B
:104E30001AD0112A1FD01B2A1CD1007A0C46002838
:104E400018D1E0780521401CB0FBF1F201FB120102
:104E5000204600F055F800280CD0D4F8D0100029D6
:104E600008D0BDE810400847C27B012A02D18088E3
:104E7000A1F8C80010BD0C46002184F8D410808829
:104E8000B4F8C8108842F5D120790028F2D1012168
:104E9000DEE710B50C46022801D0032811D1607856
:104EA00000280ED000206070E178204600F028F83D
:104EB000002806D0D4F8D010002902D0BDE8104058
:104EC000084710BD10B5044674DF012084F8D400F3
:104ED000002084F8D600062084F83300002104F175
:104EE0003000FFF7D0FE002809D1E178204600F01D
:104EF00007F818B1D4F8D01001B18847002010BDD0
:104F00002DE9FF47044600780F4638B1E7700020CE
:104F100004F0B8FA012628B16670D2E0082004B087
:104F2000BDE8F0870025C4F82550A4F8295084F87E
:104F30002B50A07910B1E078012806D0E07970B14B
:104F4000E078012801D0022809D1D4F8CC1021B191
:104F500084F82C600820884701E084F82C5004F184
:104F6000260100200A5C0AB1304603E0401C0628F6
:104F7000F8D300204FF002084FF0030A4FF0040965
:104F8000012F06D0022F09D0032F0CD0042F12D1ED
:104F90000DE0A17911B108B130460DE0E17911B110
:104FA00008B1404608E0207A08B1504604E0607A33
:104FB00008B1484600E02846E070D4F8CC1041B172
:104FC000032801D0042804D1607910B194F8D400EA
:104FD000A8B184F8D55000950295019503958DF8F8
:104FE00000508DF80850E17804F1250004F13002FA
:104FF000052958D2DFE801F0670A131F3B0084F847
:10500000D65084F8D56007208847E4E7A670019061
:105010008DF80060ADF80C50ADF80A5043E084F80C
:10502000028001908DF80060208AADF80C00A08904
:10503000ADF80A0037E0A08AADF80A00208BADF881
:105040000C00607980B194F8D40068B994F8D60067
:1050500050B18DF8088084F8339000211046FFF796
:1050600012FE00BB05211AE084F802A01BE0A08B11
:10507000ADF80A00208CADF80C00607988B194F886
:10508000D40070B994F8D60058B18DF8088084F82F
:10509000339000211046FFF7F6FD20B90621A170DC
:1050A00001E084F80290E07830B194F8241068466A
:1050B00073DF00287FF433AFD4F8CC1009B1A078A7
:1050C000884700202BE7A570F6E7000030B585B0D3
:1050D0000D46040044D0EDB328682060214B4FF604
:1050E000FF70A4F846000FCB8DE80F0004F14801D3
:1050F000684662DF002831D194F848008DF812002C
:105100004FF4A050ADF81000221D04A90120A0DF2B
:10511000002823D12946204608F028FD00281DD16B
:105120002946204607F060FA002817D12946204674
:1051300003F05CF8002811D12946204608F07BFADC
:1051400000280BD129462046FFF7D9F8002805D1C1
:10515000294600E004E02046FFF766F805B030BDC0
:105160000E20FBE708E102001FB50A4601461000C9
:105170001CD000291AD00A88102A08D0112A0BD076
:10518000502A13D104B0BDE8104005F0F7BC89885F
:10519000A0F84610092104E04FF6FF71A0F8461070
:1051A00008218DF800100268694690471FBD000075
:1051B00070B5040012D001461C221448FEF75CF9B9
:1051C0001248134D0560206850B17ADF002806D1DF
:1051D0002068016829604068686005E00E2070BDA5
:1051E0000B487BDF0028FAD108484FF6FF711438CE
:1051F000084A20F8041B0549343901600021FFF7F3
:105200006DFA0028EBD0032070BD0000A02700201D
:1052100094210020BDDA020002494A6C091D07F002
:10522000A7BB0000BC27002002460248016D001DFC
:1052300007F08BBBBC27002002460248416D001DD1
:1052400007F083BBBC27002070B50A4E054600243A
:105250002A46301D716C07F078FB40B12A46301D9C
:10526000F16C07F072FB08B1022400E00124204633
:1052700070BD0000BC27002010B50024204608F0B7
:1052800051FC28B1641CE4B2182CF7D3182010BDCF
:1052900003480122A240016811430160204610BD6D
:1052A000BC27002010B5044608F03CFC002803D0C1
:1052B000024800EB8400806D10BD0000BC27002078
:1052C00070B505460C46084608F02CFC002809D0AD
:1052D00005482A4600EB8401001D896DBDE8704039
:1052E00007F033BB70BD0000BC27002070B5064638
:1052F00015460C46084608F015FC00280AD006485A
:105300002B4600EB84013246BDE87040001D583149
:1053100007F053BB70BD0000BC2700207CB50546DC
:1053200008880C460930904201D90C207CBD6846A3
:105330006DDF0028FAD121880820685420881B21BD
:10534000401C80B2208029542088401C80B22080DC
:105350002844DDF801100160BDF805108180208827
:10536000801D80B220809DF80010490800D00121E6
:1053700029542088401C208000207CBD10B503F0FB
:1053800009FA002809D105484FF0030C00DF002876
:1053900003D1BDE8104003F061BA10BD4C2D0020D0
:1053A00018B103490860002070470E2070470000C4
:1053B000F821002010B54FF0FF3100203BDF00281E
:1053C0000BD1B1213ADF002807D1044841690120FF
:1053D0008847022004F09AFD002010BD302D0020E7
:1053E000044810B50068416900208847BDE81040B6
:1053F000FFF7E0BFF821002030B58FB005461C2133
:1054000001A8FEF752F80024142109A80894FEF719
:105410004CF89DF82000009420F00F00401C20F074
:10542000F00010308DF820009DF82100029420F04B
:105430000F00401C20F0F00010308DF821009DF886
:105440002200049420F00600801C8DF822009DF8B4
:10545000040009AA40F028008DF8040008A8CDE94E
:105460000540079428788DF83A000320ADF83800FD
:105470009DF80000ADF82C4020F00F00401C20F0FB
:10548000F00010308DF800009DF80100ADF82E40BE
:1054900020F00F00401C20F0F00010308DF80100CB
:1054A0009DF802000D9420F00600801C20F00800FA
:1054B00040F011008DF802000EA809901720CDF8D9
:1054C00028D0ADF830006888AB1D01A9A2DF0FB06D
:1054D00030BD000010B5164C86B01ECC8DE81E0005
:1054E00020B3144C4FF6FF71A1800068606100206A
:1054F000607620762046FFF753FF002814D1012064
:105500008DF812004FF65960ADF81000A21C04A9E6
:105510000120A0DF002807D12146684662DF00286D
:1055200002D12046FFF768FF06B010BD0E20FBE752
:1055300018E10200302D002010B500280FD001889E
:10554000204C502926D00BDC10291DD0112906D162
:10555000A1888088814202D14FF6FF70A08010BDE3
:10556000512913D05329FAD1C088E1888842F6D155
:10557000607E0028F3D0FFF733FF0028EFD0616989
:10558000BDE81040022008478088E7E7BDE81040EA
:1055900005F0BCBA30F8061F62899142DFD141891B
:1055A0000229DCD10C3000F01DFB074920760322D4
:1055B0000988BDE8104002EB0143024603A11846EA
:1055C00004F0ACBA302D00204C23002052656365F6
:1055D0006976656420696E6469636174696F6E20C1
:1055E0007374617465202564000000002DE9F041AA
:1055F0000546007B0426234C4FF0010801280FD0FC
:1056000002281FD00226287B4FEA060100F064F82A
:10561000002832D020684169BDE8F04103200847E6
:1056200020680027817E11B106210120EEE780F875
:1056300019800121084600F04FF800281DD020688D
:105640004776E0E76A7B142A19D8C2B10E4F05F1FC
:105650000E01381DFDF710FF687BB86121683846E0
:10566000897E0029CFD1A0F10C010A68011F904763
:105670000028C8D1216881F81A80BDE8F08105268C
:10568000C1E70000F8210020582D002070B5104916
:1056900000250A68002A19D04A68002A16D0083165
:1056A0009047112812D00B4C0028206885760BD02B
:1056B0000421022000F010F8002807D0206841697A
:1056C000BDE87040032008470121F2E770BD0000EB
:1056D0004C2D0020F821002086B00323ADF80030C7
:1056E00020238DF814308DF8150000220E48019209
:1056F00002928DF81610C188ADF8041002218DF8C1
:10570000061005A90491ADF80820CDF80CD08088CA
:1057100001A9A6DF002804D1BDF80010032900D09C
:105720000C2006B070470000302D00200F4A0321E6
:10573000128801EB024268B101280ED00B4A012108
:105740000228128801EB02420AD0032810460AD030
:1057500007A109E0104610A106E010461AA103E0D7
:10576000104622A100E030A104F0D4B94C2300205F
:10577000556E6B6E6F776E206576656E74206672FF
:105780006F6D20626C655F6466755F627574746FBF
:105790006E6C6573732E00004465766963652069DD
:1057A0007320707265706172696E6720746F206516
:1057B0006E74657220626F6F746C6F6164657220C5
:1057C0006D6F64652E00000044657669636520771F
:1057D000696C6C20656E74657220626F6F746C6F9B
:1057E00061646572206D6F64652E0000526571758D
:1057F00065737420746F20656E74657220626F6FBC
:10580000746C6F61646572206D6F64652066616998
:105810006C6564206173796E6368726F6E656F7515
:10582000736C792E000000005265717565737420E9
:10583000746F2073656E64206120726573706F6E83
:10584000736520746F20636C69656E74206661698E
:105850006C65642E0000000010B50446008888B016
:10586000212837D01ADC012842D0102820D0112856
:1058700038D1002000F00EFB08B1FEF7B5FE00F0B5
:1058800085FCFEF79DFD03212C48FFF739FB00281E
:1058900028D008B0BDE81040FEF7A6BE3B2823D0B4
:1058A000512829D056281DD1A088132176DFEEE794
:1058B000072000F0EFFA08B1FEF796FE2048A18815
:1058C0008180807808B041B21C48BDE81040D830D3
:1058D00000F0ABB900200090A08869468FDF28E077
:1058E000FEF782FE08B010BDA088132176DFCEE758
:1058F000A088002166DFCAE71022A11D04A8FDF7D9
:10590000BBFD9DF810100029ECD09DF8180004286C
:1059100003D0062801D00528E4D102290CD00120AB
:105920008DF800004FF4C170ADF80400A0886946FE
:10593000A8DF0028D4D1D5E70220F1E7D025002048
:105940001021002010B51A4C0188606810290ED073
:1059500011292BD1401E606028D1FEF716FD0028CA
:1059600024D02168002921D0BDE810400847D0B9D3
:1059700000210122084600F06BFA08B107280FD178
:1059800007220221012000F063FA08B1072807D19D
:1059900004220221002000F05BFA20B1072802D087
:1059A000216801B188476068401C606010BD00003C
:1059B0008C2100202DE9F04701883B4E40F2F3197D
:1059C0004FF6FF7510291BD011293ED0122954D053
:1059D000502946D1C188F289841D914241D1618903
:1059E00002293ED18688304601F014FF050038D0E8
:1059F00004F10C0000F0FAF8A8B3294630464EE056
:105A0000C17B8788044601292BD1A846284601F08E
:105A100001FF050017D02F8000202872234843463D
:105A20004A460168C5F80A104068C5F80E0004F13E
:105A3000100105F10A0001F08FFF6872F08900285B
:105A40000FD129462AE0042013E0808801F0E2FE0D
:105A5000040006D06068FEF7C1FE08B107F082F8C6
:105A60002580BDE8F087FFE76868FEF7B7FE0028ED
:105A7000F7D0BDE8F04707F075B887880646384686
:105A800001F0C8FE0400ECD02B464A4606F108019E
:105A900004F10A0001F060FF607221463846BDE85B
:105AA000F04700F095BC0000A027002094210020C2
:105AB0002DE9F047044603883F480122A4B000F1D5
:105AC000480A102B09D0112B54D01A2B70D1217AEF
:105AD000B2EB111F53D2012352E0D0E911218A43C6
:105AE0000546011D12A806F043FF442212A901A891
:105AF000FDF7C2FCDFF8C0900026374609F14409E3
:105B00000DF104080AE000BF08EB46001D2283885F
:105B10004946281D009706F0DDFE761C0198B0422C
:105B2000F2D8686CA688C04306F0F6FEA0F57F4167
:105B3000FF3917D005EB40000123868032465146DD
:105B4000281D06F03AFF012332464946281D06F07B
:105B500034FFE07B02280BD000231749A2884C3188
:105B6000281D20E024B00420BDE8F047FEF73CBD2E
:105B70000123F2E70023A2885146001D13E0002311
:105B80000D490546A2885031001D06F016FF207A07
:105B90000221B1EB101F01D2012300E000230649CE
:105BA000A2885431281D24B0BDE8F04706F005BF97
:105BB00024B0BDE8F0870000BC27002010B50446E3
:105BC0000748007800280AD0204601F065FC2046EE
:105BD00007F04CF92046BDE8104001F0B3B910BD04
:105BE000CC2100200078C0F340007047007800F01E
:105BF0000100704738B5044601208DF8020041F6D7
:105C000004000D46ADF80000224669460120A0DFE1
:105C1000002803D12946204607F0C8FC38BD028879
:105C2000102A01D180884881704703B583B00021D4
:105C300001220091ADF80020ADF8021004A90191F5
:105C4000418840896A46A4DF05B000BD0649095C69
:105C50004FF0A040D0F81005C84010F0010000D06F
:105C6000012080F0010070473DE0020007490B5C15
:105C70004FF0A041D1F804250120984020EA02030A
:105C8000C1F808351040C1F80C05704739E0020032
:105C90000249085C012103F065BD000039E0020003
:105CA0000249085C002103F05DBD000039E00200FC
:105CB0000649095C4FF0A040D0F80405C84010F038
:105CC000010000D0012080F00100704739E002009F
:105CD0007CB50024084E25460122305D0095002346
:105CE0001146019503F0CDFC641C042CF4D3BDE8EF
:105CF0007C4000F003B8000039E0020010B5002439
:105D00002046FFF7C5FF641C042CF9D310BD10B565
:105D100000242046FFF7C4FF641C042CF9D310BDF7
:105D200010B50246064B4FF0FF3000215C5C9442F8
:105D300001D1084610BD491C0429F7D310BD00004D
:105D40003DE0020070B50C4E0C004FF000053060D5
:105D50000BD0012000F05AF808B1022004E0002026
:105D600000F054F800B10B202070706810B9FEF7F5
:105D70000CFB0546284670BD8C2100202DE9F0471C
:105D80000D468146FFF7CCFF0446042836D2DFF8E3
:105D900074801B481C4EA8F10C0725B3012D0ED0B2
:105DA000022D2BD104EB440030444578002D25D042
:105DB000B968002922D02846BDE8F047084704EB1F
:105DC0004401755C0E44717849B10E4A4FF40041AC
:105DD000093A8068FEF7BEFC08B987F80390B178ED
:105DE00008F80410E2E78068FEF7F8FC04EB4401D1
:105DF000314418F804008D78A842D7D0BDE8F08768
:105E000044E002008821002040270020FFF71EBF49
:105E100010B50D4A042811D0072813D19088A0F599
:105E20007F41FF390ED10948FFF74CF8082809D007
:105E3000002807D0BDE81040FEF7D6BB132190889C
:105E400076DFF3E710BD000010210020D0250020F0
:105E500070B50023042810D20D4D00EB4004012A38
:105E600002D101290CD00022094E00EB4000304441
:105E700061B1012906D0022906D00723184670BD5A
:105E80000E30C2B22A55F9E74270F7E78270F5E7A3
:105E900040270020044A014600201279D20702D090
:105EA000084600F04DB870477C21002070B50646CA
:105EB0001E480024C0E90161B00720D50025012259
:105EC00011462846FFF7C4FF6D1C0446042D02D27C
:105ED000002CF4D013E094B940F266620421144817
:105EE000FEF70EFB04000AD1FEF7F8FA040006D113
:105EF0000F48104A0021001FFEF7F0FB0446F00790
:105F000001D0FFF7E5FE74B909480B4A00210C38AF
:105F1000FEF7E4FB040006D10548084A01210838D1
:105F2000FEF7DCFB0446204670BD00007C2100200B
:105F300050E0020085610200ED790200D7440200C2
:105F40002DE9F05F6A4C054600266078B34618B12B
:105F500084F801B001F032FD664F4FF47A694FF4D6
:105F6000C87A4FF00108182D62D2DFE805F0AC0CBA
:105F70000C31404D62676B746B74BE7D7D7D7D7DA1
:105F8000ACAFB2B5BEBE0020FFF792FE00284FF0C6
:105F9000000008D0FFF77CFE022D02D14FF4E16033
:105FA00008E0484606E0FFF77BFE022D01D1C8203D
:105FB00000E05046410CC0034FF4FA72801841F1E2
:105FC0000001257052000023FDF720FA01462AE067
:105FD0000020FFF76DFE00284FF0000004D0FFF70F
:105FE00057FE4FF44870E5E7FFF75AFEDFE7002061
:105FF000FFF75EFE00284FF0000002D0FFF748FEDA
:10600000CFE7FFF74DFED4E70020FFF751FE002851
:106010004FF0000002D0FFF73BFE01E0FFF740FE2B
:10602000257041F69A1100223868FEF793FB064668
:1060300046E00020FFF71AFE257008E0002051E03E
:1060400025703DE084F801800120FFF70FFE00225B
:1060500040F6CD41E8E784F801800120FFF706FE15
:1060600000224FF48041DFE77868FEF7B7FB064671
:10607000D5F1110000D02EB10220FFF709FE84F8FF
:1060800002B01DE0012816D980B2C8214843C117CB
:10609000C90341EA5041C0034FF4FA72801841F13C
:1060A000000152000023FDF7B1F901460022786893
:1060B000FEF750FB06460220FFF7F2FD84F802804F
:1060C0003046BDE8F09F01F079FCB9E701F076FCBD
:1060D000B4E701F073FC04E001F070FC0020FFF76E
:1060E000DFFD0120FFF7DCFDAAE7FFF710FEA7E7C1
:1060F0007C21002044E00200F8B5861C00208DF8C9
:1061000000000C4601276846FEF712FC0F480168A4
:106110002160D0E90012891A82680446511AB51C20
:1061200007E000BF01F01AFFD4E90001401AA1689E
:10613000091A491C8D42F5D82068304420609DF82A
:106140000000FEF719FC3846F8BD0000FC310020C5
:1061500030B482680468531C8360A154D0E90112F2
:106160008A4202D330BC03F064B830BC70470000F0
:10617000034803C8814201D10120704700207047C5
:10618000FC31002000780221FFF7F8BD0C4930B443
:10619000087820F0FE00087000208A1FC0F1050377
:1061A0000C18401CD35CC0B263700628F6D30448B8
:1061B0006CDF002802D030BCFEF716BA30BC704746
:1061C0002E21002005494FF0FF32082841F82020F9
:1061D00002D3084480F8482070470000882D002032
:1061E000F0B54FF0FF3512B10023082601E0082377
:1061F0000C260C4C05E000BF54F823707F1C04D023
:106200005B1CB342F8D32846F0BD26185DB286F871
:10621000305044F82310002AF5D1E11881F84800E5
:10622000F1E70000882D00200249084490F9300071
:1062300070470000882D002070B504464FF6FF75AA
:106240000A462846AC4208D14FF4807421461046D5
:1062500005F0C2FCA04209D070BDFF2CFCD821463D
:10626000104605F0ACFC08B1204670BD284670BD54
:1062700070B5084C050009D010342168002907D0FA
:1062800008682060496828468847F6E70834F4E73C
:1062900070BD0000742D00202DE9F05F2648416894
:1062A000F1B3DFF898B00E688146DBF800408768EC
:1062B0008078E11B21F07F45ED1CB0B9DFF88080CC
:1062C0004FF48030C8F84403C8F804031120FDF7E8
:1062D00041FA1120FDF749FA4FF0010AC8F800A071
:1062E0002F2002F011FA89F802A0B54200D23546FB
:1062F000124BE8193C3320F07F401860DBF80010A7
:106300005A46091B21F07F41001B20F07F40C91C29
:1063100081420FD9106818602F2002F0F5F900E0D3
:1063200004E0BDE8F05F1120FDF72ABABDE8F05F98
:1063300006F0A0B9BDE8F09F10220020041501402E
:10634000001001402DE9F04117880646B81D14469B
:106350000D46984202D90C20BDE8F0813188072211
:1063600006290AD34FF4486C4FF6FF73614501D9F3
:10637000994202D17088062801D21046ECE76045A8
:1063800001D99842F9D1994203D0984201D0814273
:10639000F3D80520E85520881221401C80B22080C7
:1063A00029542088401C80B220804119308807F091
:1063B00024FB2188084480B220804119708807F0AE
:1063C0001CFB2188084420800020C5E7FEF70CB99B
:1063D00038B54A7A0F4B62B100220A725969002916
:1063E00006D001228DF80020ADF8020068468847EB
:1063F00038BD0A7A62B19B684C680246194620464D
:10640000FEF7A8F90028F3D0BDE8384006F0AABB93
:106410005B68F1E7A02700207FB50C4610B1012092
:1064200004B070BD2079002638B141F61D55012811
:106430001BD0022826D00F20F2E702960396E068D0
:106440000190694601A806F02FF850B102988188A2
:10645000E18000882081BDF80010029806F098F8CD
:1064600000E00A2002212171DAE70A4B6A46002186
:10647000A01D05F0D5FF38B1064908398E60CE6001
:106480000A28CDD12846CBE702488188019806F03A
:106490007FF8F5E72C2200202DE9F04100260125A8
:1064A000144C22E06068226900EBC607387805FAD0
:1064B00000F1114217D08A43226102F02FFB0246FD
:1064C0003878E36805FA00F1194002FA00F39942BE
:1064D00009D17978012901D0012100E00021514042
:1064E0007A6802B19047761CF6B220788642D9D3FA
:1064F000BDE8F081FC2100200E4910B50A784C78E7
:106500000023A24212D0521CD2B20A70022A00D139
:106510000B70084A0B780C3252F82320026088680E
:10652000104420F07F408860012010BD03600020EF
:1065300010BD0000102200203EB5094D38CD8DE879
:106540003800ADF8041007498DF80620ADF80200B8
:1065500000220978FEF7CAFE684600F0D9F83EBD71
:10656000F8E00200DC210020F8B507460C481C4684
:10657000154680780E4608B10820F8BD684605F03B
:106580007BFE58B10098012101710760310B456114
:10659000C0E9024105F030FF0020F8BD0420F8BD3D
:1065A0003C22002010B503780022072B06D2DFE83A
:1065B00003F005040610202930000A7010BD0123E5
:1065C0000B7003898B818388CB81C06888600A74D3
:1065D00010BD02220A7002898A818288CA81C2683B
:1065E0008A60807D062802D00020087410BD01203A
:1065F000FBE703220A70C2888A810289CA81C068C7
:10660000886010BD04230B70C0888881CA818A60AD
:1066100010BD0520087010BD70B5064D064600245B
:1066200055F8241009B130468847641C042CF7D370
:1066300070BD0000802F002030B50446006885B092
:106640000D46806800281CD014216846FCF72DFFF9
:106650000195A0680490207910B101280DD104E0C3
:1066600001208DF80000206904E002208DF8000070
:10667000E0680003029060690390206881686846C2
:10668000884705B030BD0EB5002911D011290FD0B3
:10669000002200920292ADF8020001910D2908D06B
:1066A000862908D009208DF80000684600F03EF8E1
:1066B0000EBD0B20F7E70A20F5E700000149096845
:1066C00008470000A421002070B5054D06460024AF
:1066D000304655F824108847641C022CF8D370BD4E
:1066E00088E002002DE9F04107460024064E074DE0
:1066F00005E000BF56F8241038468847641CE87847
:106700008442F7DBBDE8F081E42C0020CC2100209E
:1067100070B5054D06460024304655F824108847CC
:10672000641C022CF8D370BDC0E002000149096866
:106730000847000004E102007FB50446406858B1F4
:106740000020039020780026384D06285DD2DFE82F
:1067500000F05C05052641690120F2E7A08900F000
:10676000D6F918B9E08905F02DFF80B3A089A0F50E
:106770004040ADF80200A07B8DF80400207801288D
:10678000606806D048B104208DF80000606803906E
:106790001AE00028F8D00320F6E70120F4E7A089EA
:1067A00000F0B5F918B9E08905F00CFF78B1A089BF
:1067B000A0F54040ADF80200A07B8DF804006068B1
:1067C00030B105208DF80000A06802901AE01CE0AE
:1067D0000220F7E7A08900F09AF9B0B1E089A0B9EA
:1067E000A089FF21A0F5404080B2ADF802008DF8ED
:1067F0000410616881B107208DF800006E70AE70E2
:1068000004F0B8FE684604F093FD6878002802D0D2
:106810006E7004F0AFFE7FBD06218DF8001004F00D
:1068200037FFEBE708208DF80000EBE7B8210020E8
:1068300000B5104987B00978890702D4022007B053
:1068400000BDA0F57F41FF390FD005218DF8001064
:1068500001218DF80410ADF80600684604F0F6F941
:1068600028B105F0B9FD0020E9E70420E7E708209A
:10687000E5E700002422002000B50D4887B000782D
:10688000800702D4022007B000BD06208DF800006A
:10689000684604F0DBF940B10648017809B10121EE
:1068A000017305F099FD0020EDE70820EBE70000FB
:1068B000242200202830002010B58CB01421684616
:1068C000FCF7F3FD26480078810703D56846FFF7FB
:1068D000A3FE43E0C00741D1012000F03DF94FF095
:1068E00010204269000401694069531C01D0104620
:1068F00000E048431B4900220861A0F54050C860F1
:106900001949184802F0B5FD00280FD101248DF86F
:10691000144004F011FA0C281BD2DFE800F0061036
:1069200006101A1809181A1216120B200CB010BDF6
:10693000022000F011F9012000F0F4F8C6E7002071
:1069400000E003208DF8180003E00220FAE78DF83C
:10695000184005A804F07AF905F03EFD0020E5E7AF
:1069600024220020CC22002064E1020038B504007B
:1069700011D0694605F098FD88B10A48BDF80010AD
:1069800000EB0110818941B1A27A32B1491E8181A7
:106990000020A07238BD052038BD062038BD0A2071
:1069A00038BD0000083000201FB501A9684605F079
:1069B00037FD04B010BD07B513460A4669460020EE
:1069C00005F02EFD0EBD07B513460A4600216846A8
:1069D00005F026FD0EBD20B119B100680860002049
:1069E000704705207047000038B50D46040015D0EB
:1069F000A5B1694605F058FD90B10A49BDF80020DF
:106A0000606801EB02129189491C918128606068DD
:106A10000C3068600120A072002038BD052038BD10
:106A20000A2038BD0830002018B10323002207F0E7
:106A3000C5B9052070470223002207F0BFB912B183
:106A4000022307F0BBB9052070470000064A5178C1
:106A5000042906D0054B43F82100491C5170002041
:106A600070470C207047000024220020802F002057
:106A700038B504460A480D460078800701D4022044
:106A800038BD54B16946284607F090FA0028F7D17E
:106A9000BDF800102180658038BD052038BD00009C
:106AA0002422002010B504460D480078800701D448
:106AB000022010BD84B1218802290FD8094800EBBB
:106AC000011042896088121A032A07D407F064FA79
:106AD00000202080608010BD052010BD042010BD66
:106AE0002422002008300020826883881A4003682E
:106AF0009A5C0A708168491C81607047C26883880B
:106B00001A4003689954C168491CC160704743F634
:106B1000FE71A0F54040884201D801207047002056
:106B20007047000002490A7882430A7070470000EB
:106B30002422002010B504460078182802D1FEF760
:106B40009BFB207010BD10B504460078182802D1B8
:106B5000FEF792FB207010BD02490A7802430A70CA
:106B6000704700002422002070B51346002206461C
:106B70001546862905D0112901D019B170BD01250E
:106B800000E001220D4C73B16179FEF7AFFB2A469C
:106B900021793046FEF7AAFB002261783046FEF7E5
:106BA000A5FB002203E06178FEF7A0FB2A462178CE
:106BB0003046BDE87040FEF799BB0000E0210020A0
:106BC000406805F075BB0000014643680C4803228D
:106BD000008802EB004013B10A4902F09BBF0A781B
:106BE000012A07D0022A09D1D1E9023206A100BF49
:106BF00002F09BBFD1E9023211A1F9E77047000012
:106C00004C23002014E402002D2D3E204576656EB5
:106C1000742072656365697665643A206572617394
:106C2000656420256420706167652066726F6D2041
:106C30006164647265737320307825782E000000DB
:106C40002D2D3E204576656E7420726563656976EC
:106C500065643A2077726F746520256420627974C8
:106C60006573206174206164647265737320307889
:106C700025782E0000220249024802F0FABB0000EB
:106C800064E10200B82200202DE9F041324D334E7C
:106C900005F12C002968A0F154040A0E82700A0C38
:106CA000C2700A0A02714171696803270A0E827173
:106CB0000A0CC2710A0A02724172A9680A0E827233
:106CC0000A0CC2720A0A02734173E9680A0E8273DF
:106CD0000A0CC2730A0A02744174297C8175A98A5C
:106CE0000A0A8274C1742A7EA27030881CA107EB44
:106CF000004002F013FFA07878B104280DD0D82806
:106D00000BD0EC2809D0F02807D0F42805D0F828BB
:106D100003D0FC2801D00020A0703088A27807EBB7
:106D200000400FA102F0FAFE0B48E96910380A0E84
:106D300002700A0C42700A0A8270C170298C0A0A19
:106D40000271417195F824002070FF2801D10520BF
:106D50002070BDE8F0810000382100204C23002085
:106D6000307825780000000070B508B1012070BDB2
:106D7000184C0025207B08B1257301E000F0A2F833
:106D80002078082824D2DFE800F02304080C102320
:106D9000141EBDE8704000F01FB8BDE8704000F060
:106DA0007FB8BDE8704000F061B8BDE8704000F009
:106DB00037B808496088203901EB00104068BDE809
:106DC000704003F099BF6560BDE8704003F0A2BF5A
:106DD0000F2070BD283000201049F0B48A1C00201C
:106DE0000346A1F120050C18A67A3EB1A37205EB6B
:106DF0000014A68916B9A47B012C0AD0401C80B2CD
:106E00000228F0D30B704B804B60F0BC41F61D5054
:106E100070471080F0BC00F043B80000283000201C
:106E200010B50F4CA4F12001608801EB001081899E
:106E300061B1052020700B48022100238180016888
:106E4000BDE810400122084802F0ECBA4168002376
:106E50000122054802F0E6FA0421217010BD00006D
:106E60002830002034220020CC22002038B50A49E6
:106E7000084803240B684268898803EB8101538822
:106E80000470DB1C00201B0400909B0B034802F0E5
:106E9000C5FB38BD2830002034220020CC22002041
:106EA000074910B54888091D05F04CFB18B1BDE82D
:106EB0001040FFF7DBBFBDE81040FFF7B1BF000097
:106EC00028300020F0B51D481D4901250678022410
:106ED0008B88A0F12002082E18D2DFE806F00417F4
:106EE000171A212C2C160189491C0181002141808F
:106EF00080F80C1002EB01131B7843B100234418F7
:106F0000491C89B2A3720229F4D30570F0BD012394
:106F1000F5E742685288D21C1A448A800470F0BD9A
:106F200046880D6802EB061256680E6055601381A4
:106F30008C80062100E007210170F0BD2830002080
:106F400034220020F0B504460088384DA5B0502802
:106F50001ED0522802D0542828D103E0A08800F087
:106F60006DFF23E006208DF84400A08800F0ACFB04
:106F7000ADF84600A188ADF8481000F05DF9A08892
:106F80000022E978FEF7B2F911A8FFF797FB0DE0B0
:106F9000207B01280AD1A07A012807D12089A0F5F9
:106FA0002451023902D1A08800F082FFA878FEF7B0
:106FB00079F9C8B114A8FEF72FF9442214A968463C
:106FC000FCF75AFA00246E460BE000BF06EB4407BC
:106FD000A978B888FEF774F910B1B88800F02EFFD0
:106FE000641C0098A042F1D86878FEF75BF9C8B13C
:106FF00014A8FEF711F9442214A96846FCF73CFADC
:1070000000246E460BE000BF06EB44076978B888A1
:10701000FEF756F910B1B88800F04AFF641C0098DA
:10702000A042F1D805F0BCFD25B0F0BD9C210020A8
:107030003EB504464088ADF802002078A8B101288A
:107040001FD0022810D1207900280DD0608800F0D0
:107050007BFAA0F57F41FF3906D00F490122C9789C
:10706000FEF744F905F09CFD3EBD00208DF80000C0
:107070006846FFF723FB608800F066FA00F0DEFE4A
:107080003EBD01208DF80000A088ADF804006846E0
:10709000FFF714FB3EBD00009C21002010B5044604
:1070A000007801280FD1608800F0C8FE608800F0E9
:1070B00089F9002807D0044960880122C978BDE811
:1070C0001040FEF713B910BD9C21002010B5104CE4
:1070D00000202070FEF7D0F86070FEF7CDF8A070A9
:1070E000FEF7CAF8E070FEF7C7F82071617818293A
:1070F0000BD0A178182908D0E178182905D01828D4
:1071000003D001202070002010BD032010BD00001E
:107110009C2100202DE9F04192B000F0A5F86846CE
:10712000FEF77AF800246D464FF6FF77DFF83480DB
:107130000FE000BF05EB4406B08800F0C5FAB84286
:1071400005D1B088012298F80310FEF7CFF8641C2F
:10715000A4B20098A042EDD805F022FD12B0BDE81F
:10716000F08100009C2100200178072902D140888D
:1071700000F09EBE7047000010B504460A484178F2
:107180002046FEF79DF868B10848002101EB410256
:1071900000EB82025288A24201D1C8B210BD491C44
:1071A0001429F3D3FF2010BDB4210020742800203F
:1071B00070B5094D094E002404EB440005EB800036
:1071C00071784088FEF77CF820B1641C142CF3D34E
:1071D000FF2070BDE0B270BD74280020B4210020F3
:1071E0002DE9F041124E07460125BD403068FDF7FC
:1071F000F5FA00280DD10F4C2069284207D13846F6
:1072000001F08CFC0028E06805D0284304E0A84386
:107210002061BDE8F081A843E06020692843206137
:10722000A1683068BDE8F0410022FDF793BA000084
:1072300030E10200FC2100201CB5054AD2E902120F
:10724000CDE900120022694603F03FFF1CBD00009B
:1072500074E0020003484FF6FF7181800121017044
:1072600000207047A821002010B54FF6FF7003F0F2
:107270006BFE03498880BDE8104005F0BDBC0000EE
:10728000A82100202DE9FC41804600F01DFA0024D1
:1072900003250127A0F57F412646FF3908D06A461D
:1072A000082103F0EDFE18B90198841D8688056851
:1072B00032462B4621464046A9DF042804D0082840
:1072C00004D00B2808D002E0112000E00020002F9D
:1072D00000D10B20BDE8FC810027A80701D50125BE
:1072E000E6E73443F5D0002426460325E0E72DE900
:1072F000FC41804600F0E8F90746A0F57F40FF38E2
:107300000ED001252A466D1C0026ADB26B46082121
:10731000384603F0DFFE040006D0072C24D024E01A
:1073200043F20200BDE8FC81019903230A1D0B60B2
:107330004046891DAADF040004D00C2C08D0052C7F
:1073400008D008E00821384603F05CFF04460CE052
:10735000012600E000240821384603F03FFF00B179
:107360000324002ECED100E00C242046DAE70000F2
:107370001FB504460078012815D12079012812D1C3
:10738000608802AA012103F07BFE60B902208DF81B
:1073900000006088ADF80200094901208DF8040062
:1073A000096868468847064808388088A0F57F4104
:1073B000FF3903D0BDE81F4005F01EBC1FBD000013
:1073C000B02100201CB500F07FF96A46012103F0CE
:1073D00057FE08B100201CBD019800781CBD0000BC
:1073E0002DE9F041084C07464FF6FF7643F20305BE
:1073F000324661883846A7DFA84203D16088401C26
:107400006080F5E7BDE8F081A82100208188A1F522
:107410007F42FF3A03D0008808B101207047002066
:1074200070473EB5027802230C46B3EB520F17D1DA
:10743000B0F80110ADF80010C1788DF80210818805
:10744000ADF8041080798DF8060002AA01A9204643
:10745000FDF718F8032202A96846FCF738F808B1CE
:1074600000203EBD01203EBD10B50C46FFF784FE56
:10747000FF280CD0074900EB400001EB8000416879
:1074800021600189A180807AA071002010BD0520B3
:1074900010BD00007428002070B5018890B010293C
:1074A0004FD1011D34226846FBF7E6FF9DF804002A
:1074B0004FF6FF76032134466D46B1EB500F2AD0CC
:1074C00003F09EFF9DF8040040080ED001280CD068
:1074D000022820D118E00F99281D1131FCF7EAFE8F
:1074E00018B100BFBDF8344015E00EAA0DA9072061
:1074F00003F05EFF0028EED10DE00F99281D491C16
:10750000FFF78FFF0028EDD10EAA0DA9072003F089
:107510004FFF0028F1D1BDF80000291D00F084FFC5
:10752000B4420ED0BDF80000214600F07EF8BDF850
:107530000000ADF8360001208DF834000DA8FFF7EB
:10754000C3F810B070BD0000094A002101EB4103EF
:1075500032F82330834205D101EB410002EB800079
:1075600040887047491C1429F0D34FF6FF707047CC
:107570007428002010B50D4C18200D4A60700020B2
:107580004FF6FF7100EB400302EB8303401C598070
:107590001428F7D3FDF770FE6070182803D001207F
:1075A0002070002010BD032010BD0000B421002079
:1075B0007428002070B504460D46401C00F0EEF91A
:1075C00000280ED01022691C601CFBF780FF48B118
:1075D0005FF0000605F1110104F11100FCF76AFEED
:1075E000304370BD0126F5E7018811B94218927841
:1075F0000AB101207047491C0829F7D300207047C1
:1076000010B50C460346FFF7EFFF00280AD0188894
:107610002188884205D10822A11C981CFBF757FF3E
:1076200008B1002010BD012010BD04F085B810B5D0
:107630000446007888B0002828D12079072825D171
:10764000608801AA072103F01BFD00281ED103F06A
:10765000D7FE1DE06088BDF80010884218D004995C
:107660000298FFF7A7FF98B16088FFF76DFFADF8AC
:10767000160000208DF814006088ADF81800BDF8E1
:107680000000ADF81A0005A8FFF71EF808B010BDFD
:1076900003AA6946072003F08BFE0028DAD1F5E73C
:1076A00070B50446FFF750FF0546204603F0EBFC9B
:1076B0004FF6FF7104468D4203D014B9284604F0FA
:1076C0003BF8204670BD000010B5FFF755FDFF28C0
:1076D00005D0044900EB400031F8200010BD4FF602
:1076E000FF7010BD742800203EB5044603F088FEEC
:1076F0000EE0019920464631FFF782FF28B9019933
:1077000020462A31FFF77CFF10B1BDF808003EBDCE
:107710006A4602A9072003F04BFE0028E9D14FF684
:10772000FF703EBD70B5094D0749002441602C60D3
:1077300002F0EEFD2946C8700548046004674467FE
:1077400000206C6070BD00005CE102003C22002063
:10775000383000202DE9F0410F4628B10120FFF715
:10776000E1F90120BDE8F081397961B10026264DAB
:1077700001290DD0254C4FF002080229206822D0A3
:1077800003293CD128E003F0C5FA0121397134E026
:107790005FF0000005EB0011097802290CD0401CB5
:1077A00080B20228F6D30220FFF7D6F90120FFF7B6
:1077B000B9F941F61D50D5E705EB0014606803F0F8
:1077C0009BFA267019E0014600230122104801F0BF
:1077D00029FEA4F804800FE003F08EFA0A4922681B
:1077E0002031498805EB01114B6823604A60A2886B
:1077F0000A81A4F804800E703E710028B2D00120E6
:10780000FFF790F90E20ADE7083000203422002069
:10781000CC2200200146034802888A4200D0002082
:10782000704700008C2700202DE9FC5F0E00834686
:10783000DDE90C47C6F1000098469246814600D427
:107840000846012503E000BF90FBFAF06D1C50458F
:10785000FADAA84500D9454624B1002E01DB7807A5
:1078600000D5641EB80702D5B8F1000F0AD0F8079A
:1078700008D13CB1A54205D220215846641EFEF72E
:1078800067FCF6E7002E02DA4E462D2102E078076B
:1078900003D52B215846FEF75BFC07F003000228B6
:1078A0000BD1B8F1000F08D13CB1A54205D230216F
:1078B0005846641EFEF74CFCF6E7CDE90047434608
:1078C00052463146584606F09FF8BDE8FC9F00003E
:1078D00070B50E460446007918494FF4A27501EBC5
:1078E0004010017F2068A1B14FF4887102F0A6FD1D
:1078F0004FF49071206802F0A1FD4FF4927120685E
:1079000002F09CFD2946206802F098FD0C49206891
:1079100009E04FF48E7102F080FD2946206802F0E4
:107920007CFD08492068C0F80413206801F045F880
:107930003146BDE8704001F024B80000E02D002081
:1079400010030200800002000248406F002800D0AF
:107950000120704738300020F0B58488A518944283
:1079600000D82246A41AC288D6189A4200D81346D4
:10797000D21A4B880788BB420CD34088834209D86F
:107980008888A04206D3A84204D8C888904201D370
:10799000B04201D90020F0BD0120F0BD0021425CC1
:1079A0000AB101207047491C1029F8D30020704704
:1079B000800701D000207047012070470A4810B5A9
:1079C000807860B1002401E0022C06D02046FEF74A
:1079D0005FF9641C042CF7D310BD0324F6E7BDE85F
:1079E0001040FEF78BB900007C210020034801798C
:1079F000C90702D00078FEF7A3BA70477C210020A7
:107A000006490120086006480168C1F300410029C9
:107A1000FAD1044900208870704700000C00004033
:107A200018040040742D002017210180418000219E
:107A3000017141711B218171C17170472DE9F047BE
:107A4000234D81461F46287A0E469046084302D0B1
:107A500026B1002104E00520BDE8F0871C49103163
:107A6000484605F045FB0446014600224846FFF71C
:107A70007BF81FB121464846FEF705FE112C0FD0BA
:107A800005DC5CB1082C09D00D2C06D106E0862C53
:107A900012D0A4F54050023800D003242046DBE782
:107AA0003246E9784846FDF721FC4246A978484627
:107AB000FDF71CFC0024F1E73246E9784846FDF763
:107AC00015FC4246A9784846FDF710FCE6E70000A1
:107AD000E02100202DE9FC4117460C00064604D0A9
:107AE0002078C00705D0012004E000217EDFBDE83A
:107AF000FC8102208DF804003046FFF7E5FD0546C5
:107B0000A0F57F40FF3808D001A800902B463A46E8
:107B10002146304600F021F806E020782146C007D3
:107B2000304603D000F07DF804460BE07EDF040011
:107B30004FF00000009007D0002201232946304674
:107B400004F0D6FF14B106E00122F6E79DF8041018
:107B5000304604F0F7FF2046C9E72DE9F04F85B025
:107B600090468946834600259A462E4601AA07215B
:107B700018460E9F03F084FA040008D1029D95F880
:107B80004400183510F0010601D0029D343558EA42
:107B900004004FF000080FD175B126B905F11200AD
:107BA000FFF722FD40B12A4605F11201584685DF54
:107BB000044687F8008021E00CB1052C1ED199F80D
:107BC0000000C0070DD003AB01220721504603F08F
:107BD00081FA04000AD10721504603F075FB040026
:107BE00004D1494658467EDF040007D0072150469D
:107BF00003F0F4FA10B1052800D00324CDF800807A
:107C0000387808B1012300E0002344B10022514636
:107C1000584604F06DFF05B02046BDE8F08F012204
:107C2000F5E7FEB50F46064603F028FA0546A0F52F
:107C30007F40FF381ED001AB01220721284603F008
:107C400049FA04000AD10721284603F03DFB04004D
:107C500004D1394630467EDF040007D0072128468C
:107C600003F0BCFA10B1052800D0032401200090D5
:107C70005CB102E003240020009000220123294689
:107C8000304604F035FF2046FEBD0122F6E7000035
:107C90002DE9F041134D0F46164680462978FDF731
:107CA0000FFB00281BD04046FFF70EFD0446A0F551
:107CB0007F40FF3813D069784046FDF701FB38B1AB
:107CC00033463A4621464046BDE8F04103F0B0B89D
:107CD000324639464046BDE8F041FEF72DBCBDE8CE
:107CE000F0810000DC2100202DE9F04391B08146B5
:107CF000FDF7D8FA002820D06846FDF78DFA002459
:107D00006E4617E006EB44054946A888FDF7D8FA09
:107D100078B10B4FA888B978FDF7D2FA8046A888C9
:107D2000F978FDF7CDFA0146A88801234246FFF70E
:107D300085FE641C0098A042E4D811B0BDE8F08331
:107D4000E02100202DE9F047394E002780463D46CE
:107D5000DFF8E090D6F804A057E003D00446D0F84E
:107D60001C8035E099F8002002EB4201521CD2B28F
:107D700089F8002009EBC10199F80230091D9A42E7
:107D800001D189F8005048680A780446012A12D0C7
:107D9000022A02D0032A3BD108E005F05BFB00B1C8
:107DA0000127257434E00574C06900E0706800287C
:107DB000F9D170602CE0207C50BB88686060C86896
:107DC000A0600869E0604869A061F07800B1656072
:107DD0006268B168184B501A20F07F40984202D276
:107DE000A168084406E0881AA16820F07F4081421B
:107DF00002D9081A206000E0256065600120A560B6
:107E000020742046E56105F007FBB8F10000A4D11D
:107E100099F8001099F801008142A3D117B971684F
:107E2000514502D00120BDE8F0870020FBE70000AB
:107E3000102200205C2E0020FFFF7F00FEB50446CC
:107E40000026A0F57F40FF382FD02046FFF71AFA12
:107E5000050013D00B2D15D0112D11D0A5F54050D4
:107E600002381CD009208DF800002046FFF72CFCBA
:107E7000ADF80200ADF8044002950DE0022002E0EA
:107E800001260CE003208DF800002046FFF71CFCC3
:107E9000ADF80200ADF804406846FEF70FFC034859
:107EA000324681782046FDF721FAFEBD9C21002054
:107EB000FEB504460026FFF71AFA0546112818D029
:107EC00003DCA5B10C2D06D115E0862D27D0A5F534
:107ED000405002381CD009208DF800002046FFF7E2
:107EE000F3FBADF80200ADF8044002950DE001206F
:107EF00002E001260CE007208DF80000ADF80440F8
:107F00002046FFF7E1FBADF802006846FEF7D6FB1E
:107F10000448324641782046FDF7E8F9FEBD0820C6
:107F2000EAE700009C210020F8B5054600780C46E1
:107F3000002620420FD100208DF800006846FCF793
:107F4000F7FC2878204202D12043287001269DF8B2
:107F50000000FCF711FD3046F8BD00002DE9FE439E
:107F6000214DD5E9014704EA070005EB800605F538
:107F700083600C3600F0A2FA05F21440804600F04F
:107F80009DFA0AE0C0F3891101EB9050641C04448F
:107F900004EA070005EB80060C3630688107F1D053
:107FA0000020694604EA070205EB8202641CD268DD
:107FB00041F82020401C0228F4D3009800F0030070
:107FC000022800980AD0C0F383100444404600F011
:107FD0006FFA002800D06C60BDE8FE83032101EB3E
:107FE000905004EB9004F1E7FC31002088B00020B1
:107FF00001F00CFE08B1FCF7F7FA01F0A7FC05F060
:10800000D1FBFCF7FBFB04F09BFB644903254FF01D
:10801000A040C1F800574FF40071C0F80C15FCF7F0
:108020006FFB08B1FCF7E0FA5D4A01215D48FCF7FF
:1080300055FB08B1FCF7D8FA01F01EFF08B1FCF7B8
:10804000D3FA59490320FDF731FF08B1FCF7CCFA08
:1080500069460020FDF776FE08B1FCF7C5FA9DF8E9
:108060000000022878D0002602F014F908B1FCF7CD
:10807000BBFA002469460120009401F0CFFF08B14B
:10808000FCF7B2FA684602F055F808B1FCF7ACFA12
:1080900003F060FB9DF8080044A120F00F00401C95
:1080A00020F0F00010308DF808000E2202A87CDFCE
:1080B00008B1FCF799FA00945020ADF80000A02018
:1080C0000194ADF80200ADF804404FF4C870ADF86B
:1080D000060068467ADF08B1FCF786FA00213748C7
:1080E00000F04DFA08B1FCF77FFAFEF7C3FD08B1C6
:1080F000FCF77AFA2C23324A4FF4C621314801F0BA
:10810000E9F908B1FCF770FAFEF7BEFDFEF73EF89C
:10811000FCF756F904F020FE1C216846FBF7C5F970
:108120004FF42030CDE900404FF4702002902648F3
:10813000059026488DF80C500690ADF80E408DF84D
:1081400010406846FDF734F808B1FCF74DFA2048B6
:10815000008805EB004000E01EE01EA101F0DAFC03
:10816000104800224FF480310068FCF7F3FA08B1A0
:10817000FCF73AFA3046FCF761F911482838807864
:1081800040B277DF08B1FCF72FFA01F0EDFB0028D1
:10819000FBD101F099FEF8E7012665E724000050C5
:1081A00011C0020000E00200115E02004E4B465575
:1081B00053545F4C424541434F4E0000BC250020C4
:1081C00038210020B8220020E1A90200CD6302007E
:1081D0004C2300204170706C69636174696F6E207C
:1081E000737461727465640A0000000070B58EB02B
:1081F0000E4605461C216846FBF757F900249DF8FA
:108200000000019420F0100040F00A008DF80000FA
:1082100003940494059406940C94B0798DF830007E
:10822000F0798DF831009DF83200142120F006001D
:10823000801C20F019008DF8320095F848008DF868
:10824000360041F20340ADF8340007A8FBF72DF9E2
:108250000DA807900CA808900120ADF8240002207A
:10826000ADF82640ADF82800A88805F1160307AA46
:108270006946A2DF0EB070BD70B5144682880E4606
:1082800005462088111D0144921C994201D8FE2AFE
:1082900001D90C2070BD521C32542088FF21401C93
:1082A00080B2208031542088401C80B22080811907
:1082B000288805F0A2FB2188084480B22080AA8883
:1082C00042B1A96841B13044FBF7D6F82088A988AB
:1082D00008442080002070BD072070BD2DE9F047C4
:1082E000C7880446181D16468946B0FBF7F1B0FB57
:1082F000F7F207FB12009A193A44D21CB2FBF7F2CC
:10830000DDF820A001E02468491E0029FBD13D1AB8
:108310008846B54216D818E0BAF1000F05D02118EA
:1083200009EB08002A46091D04E0204409EB080176
:108330002A46001DFBF7A0F800202468761BA844FD
:10834000B74201D9354600E03D46002EE4D1BDE8F4
:10835000F087000030B50B46024601F085FC63B1A2
:108360000021094C0CE000BF01EB410304EB830347
:1083700015685B88AB4202D11160002030BD491CFA
:108380008142F1D3052030BDE0220020F8B50E4631
:10839000017814460546012901D1687830B120885A
:1083A000821C9A422DD8012902D006E00720F8BD90
:1083B00069780144891C994223D8181A801E87B213
:1083C000ADF800702188B01C084469467DDF0028A4
:1083D000EDD12878022805D1BDF80010B94201D8A6
:1083E00009210AE00821012805D16878B84202D89D
:1083F000ADF8000001E0ADF80070BDF80000FE2807
:1084000001D90C20F8BD2288401CB0542088401CA3
:1084100080B2208031542088401C2080BDF800109C
:10842000084420800020F8BD70B505460C004FF0D0
:10843000FF0020D04FF6FF76B5421CD00E48012237
:1084400041782846FCF752FF2846FEF795FEFF28A4
:1084500003D1FEF7ADFEFF280DD0084B00EB400224
:1084600003EB82014D8023F8226022684A60A288D3
:108470000A81A2798A7270BDB4210020742800207C
:1084800070B54FF6FF750E46A84201D1002000E0FE
:10849000401C84B208E02146304603F0B8FB08B126
:1084A000204670BD641CA4B2FF2CF4D9284670BDD0
:1084B00008B500216A46FAF762FF08BD08B5012138
:1084C0006A46FAF74FFF009808BD38B50446002504
:1084D0008DF800506846FCF72BFA2168626808683E
:1084E00090420ED9401E08600178238AE26801FBA1
:1084F0000325227A2168101AC0B20A79824200D27A
:1085000008719DF80000FCF737FA284638BD38B5E9
:10851000054600208DF800000C466846FCF708FA76
:10852000E868298A201AB0FBF1F12A681068431C18
:10853000136001709DF80000FCF71EFA38BD10B5FD
:1085400030B1017A42680368891AC9B21A6006E03C
:108550000E2010BD03681A68541C1C601170491E5F
:10856000C9B2F7D2006800210171084610BDC208E7
:1085700000F007030120895C98400840704710B55F
:1085800060B10161172120F8021B20F8021B1B219A
:1085900000F8021BFFF748FA002010BD0E2010BDA6
:1085A0002DE9F043858895B00C46002D3DD101881A
:1085B000DFF824810026DFF82491012724293CD00C
:1085C00006DC102909D011290CD023296DD150E0E7
:1085D0003A290BD0552968D12AE00146204602F0FD
:1085E0000DFA62E0A01DFFF71FFA5EE02246408907
:1085F00034F8061F814200D808466080172800D250
:1086000017206080106970B1607960B1D8E90010FE
:10861000CDE90310ADF80E506088ADF81000136975
:1086200003A9104698476671267115B0BDE8F0831E
:108630000146204602F030FA37E0011D342206A838
:10864000FAF71AFFBDF81800BDF81C2004EBC001B2
:108650004A7322694AB3D8E90432CDE90432ADF84D
:108660001200487B8DF814002269204604A9904727
:108670001BE00496059630F8041F04EBC102017953
:10868000127B8A4200D21146ADF81010ADF81210DC
:108690000088002204A990DF020006D0B9F800008B
:1086A0000F4907EB004001F039FAA07A0028BCD04E
:1086B000E18828469EDF02000BD0112AB5D0B9F818
:1086C000000015B007EB0040BDE8F043054901F09C
:1086D00025BAA672E772A8E790E00200E022002027
:1086E000E0E4020058E4020000F180400068002845
:1086F00000D00120704708B500F1804000210160E2
:108700000068009008BD000000283ED01F49204AA4
:10871000096800BF00BF00BF00BF00BF00BF00BFAF
:1087200000BF91422FD000BF00BF00BF00BF00BFFD
:1087300000BF00BF00BF00BF00BF00BF00BF00BF41
:1087400000BF00BF00BF00BF00BF00BF00BF00BF31
:1087500000BF00BF00BF00BF00BF00BF00BF00BF21
:1087600000BF00BF00BF00BF00BF00BF00BF00BF11
:1087700000BF00BF00BF00BF00BF00BF00BF00BF01
:1087800000BF00BF00BF0138C3D17047B422002032
:108790000024F40070B54FF010246169104D0126DB
:1087A000491C288814D06269032101EB00400DA107
:1087B00001F0B4F9606913DF040007D0288814A120
:1087C00006EB004001F0A6F9204670BD002070BD08
:1087D00006EB00401BA101F09DF9042070BD0000D4
:1087E0004C23002053657474696E6720766563744A
:1087F0006F72207461626C6520746F20626F6F7499
:108800006C6F616465723A203078253038780000EA
:108810004661696C65642072756E6E696E6720735F
:10882000645F736F66746465766963655F766563BC
:10883000746F725F7461626C655F626173655F73B0
:10884000657400004E6F20626F6F746C6F616465B9
:10885000722077617320666F756E640070B50C4D81
:1088600003210C4A288801EB00400BA101F056F9C6
:10887000084813DF040008D02888012101EB0040DC
:1088800010A101F047F9204670BD002070BD000026
:108890004C2300200030020053657474696E672019
:1088A000766563746F72207461626C6520746F20EA
:1088B0006D61696E206170703A20307825303878AB
:1088C000000000004661696C65642072756E6E6917
:1088D0006E672073645F736F667464657669636541
:1088E0005F766563746F725F7461626C655F62610D
:1088F00073655F736574000070B50F4C00252078B8
:1089000008B1852516E00021A16061602161E16068
:108910004FF0E020D0F80001012610F0010F03D144
:108920000721002000F02DF801F0F2FC08B90348FF
:1089300006602670284670BD742D00201805004082
:1089400008B500208DF800006846FBF7F1FF0648E7
:10895000C168491EC160C06808B9FFF751F89DF8A9
:108960000000FCF709F808BD742D002000F01F027C
:10897000012191404009800000F1E020C0F8801101
:1089800070474907090E002806DA00F00F0202F1CD
:10899000E02282F8141D03E000F1E02282F80014C6
:1089A00000F01F02012191404009800000F1E02009
:1089B000C0F88012C0F800117047000B40B2704739
:1089C0002DE9F0418846054602F0FAFE234E0028C4
:1089D00028461AD0FDF728FC304490F8480080095A
:1089E000032802D001280ED007E04FF0A040D0F8B5
:1089F0001005E84010F0010F05D003212846BDE81E
:108A0000F04100F090BE0221F8E702F0E5FE0028F8
:108A100022D02846FDF708FC04464FF4807000EB96
:108A200084000F4F81B207EB8400D0F8102542F08C
:108A30000102C0F81025084600F0B4FEB8F1000F9E
:108A40000AD02846FDF7F0FB56F82000002803D096
:108A50000120A040C7F80403BDE8F081882D002064
:108A6000006000402DE9FC41DFF8A480044608EBDB
:108A70000400002790F930001346C0170E46401C32
:108A800001D0082741E0F27819462046FDF7A8FBFF
:108A90000546401C38D0B07850B14FF0A04000EBF4
:108AA0008400D0F8001721F00201C0F8001707E099
:108AB00000217378204600910A46019100F0F3FDF1
:108AC000F078C0B11348317800EB8500D0F810255C
:108AD000114B1A40C0F810254FF4F8524FF44033B0
